{
	"contracts/MasterStorage.sol": {
		"MasterStorage": {
			"abi": [
				{
					"inputs": [],
					"stateMutability": "nonpayable",
					"type": "constructor"
				},
				{
					"anonymous": false,
					"inputs": [
						{
							"indexed": true,
							"internalType": "uint256",
							"name": "id",
							"type": "uint256"
						},
						{
							"indexed": false,
							"internalType": "string",
							"name": "data",
							"type": "string"
						},
						{
							"indexed": true,
							"internalType": "string",
							"name": "dataType",
							"type": "string"
						},
						{
							"indexed": true,
							"internalType": "uint256",
							"name": "timestamp",
							"type": "uint256"
						},
						{
							"indexed": false,
							"internalType": "uint8",
							"name": "rating",
							"type": "uint8"
						},
						{
							"indexed": false,
							"internalType": "address",
							"name": "childContract",
							"type": "address"
						}
					],
					"name": "DataStored",
					"type": "event"
				},
				{
					"anonymous": false,
					"inputs": [
						{
							"indexed": true,
							"internalType": "address",
							"name": "childAddress",
							"type": "address"
						},
						{
							"indexed": false,
							"internalType": "uint256",
							"name": "childIndex",
							"type": "uint256"
						}
					],
					"name": "NewChildContract",
					"type": "event"
				},
				{
					"inputs": [],
					"name": "MAX_CHILD_CONTRACTS",
					"outputs": [
						{
							"internalType": "uint256",
							"name": "",
							"type": "uint256"
						}
					],
					"stateMutability": "view",
					"type": "function"
				},
				{
					"inputs": [
						{
							"internalType": "uint256",
							"name": "",
							"type": "uint256"
						}
					],
					"name": "childContracts",
					"outputs": [
						{
							"internalType": "address",
							"name": "",
							"type": "address"
						}
					],
					"stateMutability": "view",
					"type": "function"
				},
				{
					"inputs": [],
					"name": "childCount",
					"outputs": [
						{
							"internalType": "uint256",
							"name": "",
							"type": "uint256"
						}
					],
					"stateMutability": "view",
					"type": "function"
				},
				{
					"inputs": [
						{
							"internalType": "bytes32",
							"name": "",
							"type": "bytes32"
						}
					],
					"name": "dataHashToId",
					"outputs": [
						{
							"internalType": "uint256",
							"name": "",
							"type": "uint256"
						}
					],
					"stateMutability": "view",
					"type": "function"
				},
				{
					"inputs": [],
					"name": "dataIdCounter",
					"outputs": [
						{
							"internalType": "uint256",
							"name": "",
							"type": "uint256"
						}
					],
					"stateMutability": "view",
					"type": "function"
				},
				{
					"inputs": [
						{
							"internalType": "uint256",
							"name": "",
							"type": "uint256"
						}
					],
					"name": "dataToChild",
					"outputs": [
						{
							"internalType": "address",
							"name": "",
							"type": "address"
						}
					],
					"stateMutability": "view",
					"type": "function"
				},
				{
					"inputs": [
						{
							"internalType": "string",
							"name": "",
							"type": "string"
						},
						{
							"internalType": "uint256",
							"name": "",
							"type": "uint256"
						}
					],
					"name": "dataTypeToIds",
					"outputs": [
						{
							"internalType": "uint256",
							"name": "",
							"type": "uint256"
						}
					],
					"stateMutability": "view",
					"type": "function"
				},
				{
					"inputs": [
						{
							"internalType": "uint256",
							"name": "startId",
							"type": "uint256"
						},
						{
							"internalType": "uint256",
							"name": "count",
							"type": "uint256"
						}
					],
					"name": "getBatchData",
					"outputs": [
						{
							"internalType": "string[]",
							"name": "data",
							"type": "string[]"
						},
						{
							"internalType": "string[]",
							"name": "dataTypes",
							"type": "string[]"
						},
						{
							"internalType": "uint256[]",
							"name": "timestamps",
							"type": "uint256[]"
						},
						{
							"internalType": "uint8[]",
							"name": "ratings",
							"type": "uint8[]"
						}
					],
					"stateMutability": "view",
					"type": "function"
				},
				{
					"inputs": [],
					"name": "getChildCount",
					"outputs": [
						{
							"internalType": "uint256",
							"name": "",
							"type": "uint256"
						}
					],
					"stateMutability": "view",
					"type": "function"
				},
				{
					"inputs": [
						{
							"internalType": "uint256",
							"name": "id",
							"type": "uint256"
						}
					],
					"name": "getData",
					"outputs": [
						{
							"internalType": "string",
							"name": "",
							"type": "string"
						},
						{
							"internalType": "string",
							"name": "",
							"type": "string"
						},
						{
							"internalType": "uint256",
							"name": "",
							"type": "uint256"
						},
						{
							"internalType": "uint8",
							"name": "",
							"type": "uint8"
						}
					],
					"stateMutability": "view",
					"type": "function"
				},
				{
					"inputs": [
						{
							"internalType": "bytes32",
							"name": "dataHash",
							"type": "bytes32"
						}
					],
					"name": "getDataByHash",
					"outputs": [
						{
							"internalType": "string",
							"name": "",
							"type": "string"
						},
						{
							"internalType": "string",
							"name": "",
							"type": "string"
						},
						{
							"internalType": "uint256",
							"name": "",
							"type": "uint256"
						},
						{
							"internalType": "uint8",
							"name": "",
							"type": "uint8"
						}
					],
					"stateMutability": "view",
					"type": "function"
				},
				{
					"inputs": [
						{
							"internalType": "uint8",
							"name": "rating",
							"type": "uint8"
						},
						{
							"internalType": "uint256",
							"name": "limit",
							"type": "uint256"
						},
						{
							"internalType": "uint256",
							"name": "offset",
							"type": "uint256"
						}
					],
					"name": "getDataByRating",
					"outputs": [
						{
							"internalType": "uint256[]",
							"name": "ids",
							"type": "uint256[]"
						},
						{
							"internalType": "string[]",
							"name": "data",
							"type": "string[]"
						},
						{
							"internalType": "string[]",
							"name": "dataTypes",
							"type": "string[]"
						},
						{
							"internalType": "uint256[]",
							"name": "timestamps",
							"type": "uint256[]"
						},
						{
							"internalType": "uint8[]",
							"name": "ratings",
							"type": "uint8[]"
						}
					],
					"stateMutability": "view",
					"type": "function"
				},
				{
					"inputs": [
						{
							"internalType": "string",
							"name": "dataType",
							"type": "string"
						},
						{
							"internalType": "uint256",
							"name": "limit",
							"type": "uint256"
						},
						{
							"internalType": "uint256",
							"name": "offset",
							"type": "uint256"
						}
					],
					"name": "getDataByType",
					"outputs": [
						{
							"internalType": "uint256[]",
							"name": "ids",
							"type": "uint256[]"
						},
						{
							"internalType": "string[]",
							"name": "data",
							"type": "string[]"
						},
						{
							"internalType": "string[]",
							"name": "dataTypes",
							"type": "string[]"
						},
						{
							"internalType": "uint256[]",
							"name": "timestamps",
							"type": "uint256[]"
						},
						{
							"internalType": "uint8[]",
							"name": "ratings",
							"type": "uint8[]"
						}
					],
					"stateMutability": "view",
					"type": "function"
				},
				{
					"inputs": [
						{
							"internalType": "string",
							"name": "dataType",
							"type": "string"
						}
					],
					"name": "getDataTypeCount",
					"outputs": [
						{
							"internalType": "uint256",
							"name": "",
							"type": "uint256"
						}
					],
					"stateMutability": "view",
					"type": "function"
				},
				{
					"inputs": [
						{
							"internalType": "uint256",
							"name": "limit",
							"type": "uint256"
						},
						{
							"internalType": "uint256",
							"name": "offset",
							"type": "uint256"
						},
						{
							"internalType": "string",
							"name": "dataType",
							"type": "string"
						}
					],
					"name": "getLatestData",
					"outputs": [
						{
							"internalType": "uint256[]",
							"name": "ids",
							"type": "uint256[]"
						},
						{
							"internalType": "string[]",
							"name": "data",
							"type": "string[]"
						},
						{
							"internalType": "string[]",
							"name": "dataTypes",
							"type": "string[]"
						},
						{
							"internalType": "uint256[]",
							"name": "timestamps",
							"type": "uint256[]"
						},
						{
							"internalType": "uint8[]",
							"name": "ratings",
							"type": "uint8[]"
						}
					],
					"stateMutability": "view",
					"type": "function"
				},
				{
					"inputs": [
						{
							"internalType": "uint8",
							"name": "rating",
							"type": "uint8"
						}
					],
					"name": "getRatingCount",
					"outputs": [
						{
							"internalType": "uint256",
							"name": "",
							"type": "uint256"
						}
					],
					"stateMutability": "view",
					"type": "function"
				},
				{
					"inputs": [],
					"name": "owner",
					"outputs": [
						{
							"internalType": "address",
							"name": "",
							"type": "address"
						}
					],
					"stateMutability": "view",
					"type": "function"
				},
				{
					"inputs": [
						{
							"internalType": "uint8",
							"name": "",
							"type": "uint8"
						},
						{
							"internalType": "uint256",
							"name": "",
							"type": "uint256"
						}
					],
					"name": "ratingToIds",
					"outputs": [
						{
							"internalType": "uint256",
							"name": "",
							"type": "uint256"
						}
					],
					"stateMutability": "view",
					"type": "function"
				},
				{
					"inputs": [
						{
							"internalType": "string",
							"name": "data",
							"type": "string"
						},
						{
							"internalType": "string",
							"name": "dataType",
							"type": "string"
						},
						{
							"internalType": "uint8",
							"name": "rating",
							"type": "uint8"
						}
					],
					"name": "storeData",
					"outputs": [],
					"stateMutability": "nonpayable",
					"type": "function"
				},
				{
					"inputs": [
						{
							"internalType": "uint256",
							"name": "",
							"type": "uint256"
						},
						{
							"internalType": "uint256",
							"name": "",
							"type": "uint256"
						}
					],
					"name": "timeToIds",
					"outputs": [
						{
							"internalType": "uint256",
							"name": "",
							"type": "uint256"
						}
					],
					"stateMutability": "view",
					"type": "function"
				}
			],
			"devdoc": {
				"kind": "dev",
				"methods": {},
				"version": 1
			},
			"evm": {
				"assembly": "    /* \"contracts/MasterStorage.sol\":101:8432  contract MasterStorage {... */\n  mstore(0x40, 0x80)\n  jumpi(tag_1, callvalue)\n    /* \"contracts/MasterStorage.sol\":1174:1192  owner = msg.sender */\n  0x08\n    /* \"contracts/MasterStorage.sol\":101:8432  contract MasterStorage {... */\n  dup1\n  sload\n  not(sub(shl(0xa0, 0x01), 0x01))\n  and\n    /* \"contracts/MasterStorage.sol\":1182:1192  msg.sender */\n  caller\n    /* \"contracts/MasterStorage.sol\":101:8432  contract MasterStorage {... */\n  or\n  swap1\n  sstore\n  0x00\n    /* \"contracts/MasterStorage.sol\":1203:1217  childCount = 0 */\n  0x06\n    /* \"contracts/MasterStorage.sol\":101:8432  contract MasterStorage {... */\n  dup2\n  swap1\n  sstore\n    /* \"contracts/MasterStorage.sol\":1228:1245  dataIdCounter = 0 */\n  0x07\n    /* \"contracts/MasterStorage.sol\":101:8432  contract MasterStorage {... */\n  sstore\n  mload(0x40)\n    /* \"contracts/MasterStorage.sol\":1586:1617  new ChildStorage(address(this)) */\n  dataSize(sub_1)\n  dup1\n  dup3\n  add\n  swap1\n  sub(shl(0x40, 0x01), 0x01)\n  dup3\n  gt\n  dup4\n  dup4\n  lt\n  or\n  tag_3\n  jumpi\n    /* \"contracts/MasterStorage.sol\":850:853  100 */\n  0x20\n    /* \"contracts/MasterStorage.sol\":1586:1617  new ChildStorage(address(this)) */\n  swap2\n  dup4\n  swap2\n  dataOffset(sub_1)\n  dup4\n  codecopy\n    /* \"contracts/MasterStorage.sol\":1611:1615  this */\n  address\n    /* \"contracts/MasterStorage.sol\":850:853  100 */\n  dup2\n  mstore\n    /* \"contracts/MasterStorage.sol\":1586:1617  new ChildStorage(address(this)) */\n  sub\n  add\n  swap1\n  0x00\n  create\n  dup1\n  iszero\n  tag_5\n  jumpi\n    /* \"contracts/MasterStorage.sol\":101:8432  contract MasterStorage {... */\n  0x01\n  dup1\n  0xa0\n  shl\n  sub\n  and\n    /* \"contracts/MasterStorage.sol\":1203:1217  childCount = 0 */\n  0x06\n    /* \"contracts/MasterStorage.sol\":101:8432  contract MasterStorage {... */\n  sload\n  0x00\n    /* \"contracts/MasterStorage.sol\":850:853  100 */\n  mstore\n  mstore(0x20, 0x00)\n    /* \"contracts/MasterStorage.sol\":101:8432  contract MasterStorage {... */\n  0x40\n  0x00\n    /* \"contracts/MasterStorage.sol\":850:853  100 */\n  keccak256\n    /* \"contracts/MasterStorage.sol\":101:8432  contract MasterStorage {... */\n  dup2\n  0x01\n  dup1\n  0xa0\n  shl\n  sub\n  not\n  dup3\n  sload\n  and\n  or\n  swap1\n  sstore\n    /* \"contracts/MasterStorage.sol\":1203:1217  childCount = 0 */\n  0x06\n    /* \"contracts/MasterStorage.sol\":101:8432  contract MasterStorage {... */\n  sload\n  swap1\n    /* \"contracts/MasterStorage.sol\":1690:1737  NewChildContract(address(newChild), childCount) */\n  0x9dede39b617164d465ca522f28bb62b2e885ce5793bce366296d86ba2310de18\n    /* \"contracts/MasterStorage.sol\":850:853  100 */\n  0x20\n    /* \"contracts/MasterStorage.sol\":101:8432  contract MasterStorage {... */\n  mload(0x40)\n    /* \"contracts/MasterStorage.sol\":850:853  100 */\n  dup5\n  dup2\n  mstore\n    /* \"contracts/MasterStorage.sol\":1690:1737  NewChildContract(address(newChild), childCount) */\n  log2\n  not(0x00)\n    /* \"contracts/MasterStorage.sol\":850:853  100 */\n  dup2\n  eq\n  tag_7\n  jumpi\n    /* \"contracts/MasterStorage.sol\":1487:1519  childCount < MAX_CHILD_CONTRACTS */\n  0x01\n    /* \"contracts/MasterStorage.sol\":850:853  100 */\n  add\n    /* \"contracts/MasterStorage.sol\":1203:1217  childCount = 0 */\n  0x06\n    /* \"contracts/MasterStorage.sol\":101:8432  contract MasterStorage {... */\n  sstore\n  mload(0x40)\n  dataSize(sub_0)\n  swap1\n  dup2\n  dataOffset(sub_0)\n  dup3\n  codecopy\n  return\n    /* \"contracts/MasterStorage.sol\":850:853  100 */\ntag_7:\n  mstore(0x00, shl(0xe0, 0x4e487b71))\n  mstore(0x04, 0x11)\n  revert(0x00, 0x24)\n    /* \"contracts/MasterStorage.sol\":1586:1617  new ChildStorage(address(this)) */\ntag_5:\n    /* \"contracts/MasterStorage.sol\":101:8432  contract MasterStorage {... */\n  mload(0x40)\n    /* \"contracts/MasterStorage.sol\":850:853  100 */\n  returndatasize\n  0x00\n  dup3\n  returndatacopy\n  returndatasize\n  swap1\n  revert\n    /* \"contracts/MasterStorage.sol\":1586:1617  new ChildStorage(address(this)) */\ntag_3:\n    /* \"contracts/MasterStorage.sol\":850:853  100 */\n  mstore(0x00, shl(0xe0, 0x4e487b71))\n  mstore(0x04, 0x41)\n  revert(0x00, 0x24)\n    /* \"contracts/MasterStorage.sol\":101:8432  contract MasterStorage {... */\ntag_1:\n  0x00\n  dup1\n  revert\nstop\n\nsub_0: assembly {\n        /* \"contracts/MasterStorage.sol\":101:8432  contract MasterStorage {... */\n      mstore(0x40, 0x80)\n      jumpi(tag_26, iszero(lt(calldatasize, 0x04)))\n      0x00\n      dup1\n      revert\n    tag_26:\n      0x00\n      shr(0xe0, calldataload(0x00))\n      dup1\n      0x0178fe3f\n      eq\n      tag_28\n      jumpi\n      dup1\n      0x1c175ee4\n      eq\n      tag_30\n      jumpi\n      dup1\n      0x2d281364\n      eq\n      tag_32\n      jumpi\n      dup1\n      0x37d7cd79\n      eq\n      tag_34\n      jumpi\n      dup1\n      0x3abe26d4\n      eq\n      tag_36\n      jumpi\n      dup1\n      0x3cf1c366\n      eq\n      tag_38\n      jumpi\n      dup1\n      0x8bc3bbc0\n      eq\n      tag_48\n      jumpi\n      dup1\n      0x8da5cb5b\n      eq\n      tag_42\n      jumpi\n      dup1\n      0x907c6c2e\n      eq\n      tag_44\n      jumpi\n      dup1\n      0x95bc9928\n      eq\n      tag_46\n      jumpi\n      dup1\n      0xa2ed365b\n      eq\n      tag_48\n      jumpi\n      dup1\n      0xa42b2cf0\n      eq\n      tag_50\n      jumpi\n      dup1\n      0xab746ba3\n      eq\n      tag_52\n      jumpi\n      dup1\n      0xafff9b4d\n      eq\n      tag_54\n      jumpi\n      dup1\n      0xb5174a12\n      eq\n      tag_56\n      jumpi\n      dup1\n      0xb8222859\n      eq\n      tag_58\n      jumpi\n      dup1\n      0xc5372dcc\n      eq\n      tag_60\n      jumpi\n      dup1\n      0xc747a0f5\n      eq\n      tag_62\n      jumpi\n      dup1\n      0xccc658f8\n      eq\n      tag_64\n      jumpi\n      0xe0c3ad85\n      eq\n      tag_66\n      jumpi\n      0x00\n      dup1\n      revert\n    tag_66:\n      jumpi(tag_75, callvalue)\n      jumpi(tag_75, slt(add(not(0x03), calldatasize), 0x40))\n      calldataload(0x04)\n      0xffffffffffffffff\n      dup2\n      gt\n      tag_72\n      jumpi\n      tag_74\n      swap1\n      calldatasize\n      swap1\n      0x04\n      add\n      tag_7\n      jump\t// in\n    tag_74:\n      mload(0x40)\n      dup2\n      mload\n      calldataload(0x24)\n      swap4\n      swap3\n      0x20\n      swap2\n      dup4\n      swap2\n      dup2\n      swap1\n      dup5\n      add\n      dup4\n      mcopy\n      dup2\n      add\n        /* \"contracts/MasterStorage.sol\":308:357  mapping(string => uint256[]) public dataTypeToIds */\n      0x02\n        /* \"contracts/MasterStorage.sol\":101:8432  contract MasterStorage {... */\n      dup2\n      mstore\n      sub\n      add\n      swap1\n      keccak256\n      swap1\n      dup2\n      sload\n        /* \"contracts/MasterStorage.sol\":308:357  mapping(string => uint256[]) public dataTypeToIds */\n      dup4\n      lt\n      iszero\n      tag_75\n      jumpi\n        /* \"contracts/MasterStorage.sol\":101:8432  contract MasterStorage {... */\n      0x20\n        /* \"contracts/MasterStorage.sol\":308:357  mapping(string => uint256[]) public dataTypeToIds */\n      tag_77\n      dup5\n      dup5\n      tag_4\n      jump\t// in\n    tag_77:\n        /* \"contracts/MasterStorage.sol\":101:8432  contract MasterStorage {... */\n      swap1\n      sload\n      swap1\n      0x03\n      shl\n      shr\n      mload(0x40)\n      swap1\n      dup2\n      mstore\n      return\n        /* \"contracts/MasterStorage.sol\":308:357  mapping(string => uint256[]) public dataTypeToIds */\n    tag_75:\n      dup1\n      revert\n        /* \"contracts/MasterStorage.sol\":101:8432  contract MasterStorage {... */\n    tag_72:\n      pop\n      dup1\n      revert\n    tag_64:\n      pop\n      jumpi(tag_75, callvalue)\n      jumpi(tag_75, slt(add(not(0x03), calldatasize), 0x20))\n      0x20\n      swap1\n      calldataload(0x04)\n      dup2\n      mstore\n      0x01\n      dup3\n      mstore\n      0x40\n      0x01\n      dup1\n      0xa0\n      shl\n      sub\n      swap2\n      keccak256\n      sload\n      and\n      mload(0x40)\n      swap1\n      dup2\n      mstore\n      return\n    tag_62:\n      pop\n      jumpi(tag_109, callvalue)\n      jumpi(tag_109, slt(add(not(0x03), calldatasize), 0x60))\n      calldataload(0x04)\n      0xffffffffffffffff\n      dup2\n      gt\n      tag_109\n      jumpi\n      tag_88\n      swap1\n      calldatasize\n      swap1\n      0x04\n      add\n      tag_7\n      jump\t// in\n    tag_88:\n      swap1\n      calldataload(0x24)\n      0xffffffffffffffff\n      dup2\n      gt\n      tag_109\n      jumpi\n      tag_91\n      swap1\n      calldatasize\n      swap1\n      0x04\n      add\n      tag_7\n      jump\t// in\n    tag_91:\n      calldataload(0x44)\n      0xff\n      dup2\n      and\n      dup1\n      swap2\n      sub\n      tag_109\n      jumpi\n        /* \"contracts/MasterStorage.sol\":1350:1355  owner */\n      0x08\n        /* \"contracts/MasterStorage.sol\":101:8432  contract MasterStorage {... */\n      sload\n      sub(shl(0xa0, 0x01), 0x01)\n      and\n        /* \"contracts/MasterStorage.sol\":1336:1346  msg.sender */\n      caller\n        /* \"contracts/MasterStorage.sol\":1336:1355  msg.sender == owner */\n      sub\n        /* \"contracts/MasterStorage.sol\":101:8432  contract MasterStorage {... */\n      tag_94\n      jumpi\n      dup4\n      mload\n        /* \"contracts/MasterStorage.sol\":1960:1982  bytes(data).length > 0 */\n      iszero\n        /* \"contracts/MasterStorage.sol\":101:8432  contract MasterStorage {... */\n      tag_96\n      jumpi\n      dup2\n      mload\n        /* \"contracts/MasterStorage.sol\":2026:2052  bytes(dataType).length > 0 */\n      iszero\n        /* \"contracts/MasterStorage.sol\":101:8432  contract MasterStorage {... */\n      tag_98\n      jumpi\n        /* \"contracts/MasterStorage.sol\":2093:2131  require(rating <= 5, \"Invalid rating\") */\n      tag_100\n        /* \"contracts/MasterStorage.sol\":2111:2112  5 */\n      0x05\n        /* \"contracts/MasterStorage.sol\":2101:2112  rating <= 5 */\n      dup3\n      gt\n      iszero\n        /* \"contracts/MasterStorage.sol\":2093:2131  require(rating <= 5, \"Invalid rating\") */\n      tag_23\n      jump\t// in\n    tag_100:\n        /* \"contracts/MasterStorage.sol\":2200:2210  childCount */\n      0x06\n        /* \"contracts/MasterStorage.sol\":101:8432  contract MasterStorage {... */\n      sload\n      not(0x00)\n      dup2\n      add\n      dup2\n      dup2\n      gt\n      tag_101\n      jumpi\n      0x00\n      mstore\n      mstore(0x20, 0x00)\n      0x01\n      dup1\n      0xa0\n      shl\n      sub\n      sload(keccak256(0x00, 0x40))\n      and\n      swap1\n      mload(0x40)\n      shl(0xe1, 0x5d5e9ecd)\n        /* \"contracts/MasterStorage.sol\":2231:2252  currentChild.isFull() */\n      dup2\n      mstore\n        /* \"contracts/MasterStorage.sol\":101:8432  contract MasterStorage {... */\n      0x20\n        /* \"contracts/MasterStorage.sol\":2231:2252  currentChild.isFull() */\n      dup2\n        /* \"contracts/MasterStorage.sol\":101:8432  contract MasterStorage {... */\n      0x04\n        /* \"contracts/MasterStorage.sol\":2231:2252  currentChild.isFull() */\n      dup2\n      dup7\n      gas\n      staticcall\n      swap1\n      dup2\n      iszero\n      tag_113\n      jumpi\n        /* \"contracts/MasterStorage.sol\":101:8432  contract MasterStorage {... */\n      0x00\n        /* \"contracts/MasterStorage.sol\":2231:2252  currentChild.isFull() */\n      swap2\n      tag_105\n      jumpi\n        /* \"contracts/MasterStorage.sol\":101:8432  contract MasterStorage {... */\n    tag_106:\n        /* \"contracts/MasterStorage.sol\":2227:2334  if (currentChild.isFull()) {... */\n      pop\n      tag_107\n      jumpi\n        /* \"contracts/MasterStorage.sol\":101:8432  contract MasterStorage {... */\n    tag_108:\n      pop\n      0x01\n      dup1\n      0xa0\n      shl\n      sub\n      and\n        /* \"contracts/MasterStorage.sol\":2473:2486  dataIdCounter */\n      0x07\n        /* \"contracts/MasterStorage.sol\":101:8432  contract MasterStorage {... */\n      sload\n        /* \"contracts/MasterStorage.sol\":2450:2522  currentChild.storeData(dataIdCounter, data, dataType, timestamp, rating) */\n      dup2\n      extcodesize\n      iszero\n      tag_109\n      jumpi\n        /* \"contracts/MasterStorage.sol\":101:8432  contract MasterStorage {... */\n      mload(0x40)\n      swap1\n      shl(0xe1, 0x7e8f58ff)\n        /* \"contracts/MasterStorage.sol\":2450:2522  currentChild.storeData(dataIdCounter, data, dataType, timestamp, rating) */\n      dup3\n      mstore\n        /* \"contracts/MasterStorage.sol\":101:8432  contract MasterStorage {... */\n      0x04\n        /* \"contracts/MasterStorage.sol\":2450:2522  currentChild.storeData(dataIdCounter, data, dataType, timestamp, rating) */\n      dup3\n      add\n        /* \"contracts/MasterStorage.sol\":101:8432  contract MasterStorage {... */\n      mstore\n      0xa0\n      0x24\n      dup3\n      add\n      mstore\n      0x00\n      dup2\n      dup1\n      tag_111\n      tag_112\n      0xa4\n      dup4\n      add\n      dup12\n      tag_1\n      jump\t// in\n    tag_112:\n      dup3\n      dup2\n      sub\n      not(0x03)\n      add\n      0x44\n      dup5\n      add\n      mstore\n      dup9\n      tag_1\n      jump\t// in\n    tag_111:\n        /* \"contracts/MasterStorage.sol\":2424:2439  block.timestamp */\n      timestamp\n        /* \"contracts/MasterStorage.sol\":101:8432  contract MasterStorage {... */\n      0x64\n      dup4\n      add\n      mstore\n      dup7\n      0x84\n      dup4\n      add\n      mstore\n        /* \"contracts/MasterStorage.sol\":2450:2522  currentChild.storeData(dataIdCounter, data, dataType, timestamp, rating) */\n      sub\n      dup2\n      dup4\n      dup7\n      gas\n      call\n      dup1\n      iszero\n      tag_113\n      jumpi\n      tag_115\n      jumpi\n        /* \"contracts/MasterStorage.sol\":101:8432  contract MasterStorage {... */\n    tag_116:\n      pop\n        /* \"contracts/MasterStorage.sol\":3094:3109  dataIdCounter++ */\n      tag_117\n        /* \"contracts/MasterStorage.sol\":101:8432  contract MasterStorage {... */\n      swap4\n      swap5\n        /* \"contracts/MasterStorage.sol\":2473:2486  dataIdCounter */\n      0x07\n        /* \"contracts/MasterStorage.sol\":101:8432  contract MasterStorage {... */\n      sload\n      dup7\n      mstore\n        /* \"contracts/MasterStorage.sol\":2213:2214  1 */\n      0x01\n        /* \"contracts/MasterStorage.sol\":101:8432  contract MasterStorage {... */\n      0x20\n      mstore\n      0x40\n      dup7\n      keccak256\n      0x01\n      dup1\n      0xa0\n      shl\n      sub\n      dup4\n      and\n      shl(0xa0, 0xffffffffffffffffffffffff)\n      dup3\n      sload\n      and\n      or\n      swap1\n      sstore\n        /* \"contracts/MasterStorage.sol\":3000:3083  DataStored(dataIdCounter, data, dataType, timestamp, rating, address(currentChild)) */\n      0x555b057972c66bd1796f2018bbcde1880d15866a26587e16ee62619da01ad41d\n        /* \"contracts/MasterStorage.sol\":101:8432  contract MasterStorage {... */\n      mload(0x40)\n      swap2\n        /* \"contracts/MasterStorage.sol\":2623:2666  dataTypeToIds[dataType].push(dataIdCounter) */\n      tag_118\n        /* \"contracts/MasterStorage.sol\":101:8432  contract MasterStorage {... */\n      dup7\n      mload\n      swap4\n      0x20\n      dup2\n      dup2\n      dup11\n      add\n      swap7\n      dup1\n      dup9\n      dup4\n      mcopy\n      dup2\n      add\n        /* \"contracts/MasterStorage.sol\":2623:2636  dataTypeToIds */\n      0x02\n        /* \"contracts/MasterStorage.sol\":101:8432  contract MasterStorage {... */\n      dup2\n      mstore\n      sub\n      add\n      swap1\n      keccak256\n        /* \"contracts/MasterStorage.sol\":2473:2486  dataIdCounter */\n      0x07\n        /* \"contracts/MasterStorage.sol\":101:8432  contract MasterStorage {... */\n      sload\n        /* \"contracts/MasterStorage.sol\":2623:2666  dataTypeToIds[dataType].push(dataIdCounter) */\n      swap1\n      tag_24\n      jump\t// in\n    tag_118:\n        /* \"contracts/MasterStorage.sol\":2681:2691  rating > 0 */\n      dup5\n        /* \"contracts/MasterStorage.sol\":2677:2759  if (rating > 0) {... */\n      tag_119\n      jumpi\n        /* \"contracts/MasterStorage.sol\":101:8432  contract MasterStorage {... */\n    tag_120:\n        /* \"contracts/MasterStorage.sol\":2810:2816  1 days */\n      0x015180\n        /* \"contracts/MasterStorage.sol\":2424:2439  block.timestamp */\n      timestamp\n        /* \"contracts/MasterStorage.sol\":101:8432  contract MasterStorage {... */\n      div\n      dup9\n      mstore\n      mstore(0x20, 0x04)\n        /* \"contracts/MasterStorage.sol\":2827:2870  timeToIds[dayTimestamp].push(dataIdCounter) */\n      tag_121\n        /* \"contracts/MasterStorage.sol\":101:8432  contract MasterStorage {... */\n      0x40\n      dup10\n      keccak256\n        /* \"contracts/MasterStorage.sol\":2473:2486  dataIdCounter */\n      0x07\n        /* \"contracts/MasterStorage.sol\":101:8432  contract MasterStorage {... */\n      sload\n        /* \"contracts/MasterStorage.sol\":2827:2870  timeToIds[dayTimestamp].push(dataIdCounter) */\n      swap1\n      tag_24\n      jump\t// in\n    tag_121:\n        /* \"contracts/MasterStorage.sol\":101:8432  contract MasterStorage {... */\n      mload(0x40)\n      0x20\n        /* \"contracts/MasterStorage.sol\":2910:2932  abi.encodePacked(data) */\n      dup2\n      add\n        /* \"contracts/MasterStorage.sol\":101:8432  contract MasterStorage {... */\n      swap1\n        /* \"contracts/MasterStorage.sol\":2910:2932  abi.encodePacked(data) */\n      tag_122\n        /* \"contracts/MasterStorage.sol\":101:8432  contract MasterStorage {... */\n      0x20\n      dup3\n      dup6\n      mload\n      dup1\n      dup4\n      dup9\n      add\n      dup8\n      mcopy\n      dup2\n      add\n      dup14\n      dup4\n      dup3\n      add\n      mstore\n        /* \"contracts/MasterStorage.sol\":2910:2932  abi.encodePacked(data) */\n      sub\n      add\n      not(0x1f)\n      dup2\n      add\n      dup4\n      mstore\n      dup3\n      tag_5\n      jump\t// in\n    tag_122:\n        /* \"contracts/MasterStorage.sol\":101:8432  contract MasterStorage {... */\n      mload\n        /* \"contracts/MasterStorage.sol\":2900:2933  keccak256(abi.encodePacked(data)) */\n      swap1\n      keccak256\n        /* \"contracts/MasterStorage.sol\":101:8432  contract MasterStorage {... */\n      swap3\n        /* \"contracts/MasterStorage.sol\":2473:2486  dataIdCounter */\n      0x07\n        /* \"contracts/MasterStorage.sol\":101:8432  contract MasterStorage {... */\n      sload\n      swap7\n      dup8\n      swap5\n      dup11\n      mstore\n        /* \"contracts/MasterStorage.sol\":2111:2112  5 */\n      0x05\n        /* \"contracts/MasterStorage.sol\":101:8432  contract MasterStorage {... */\n      0x20\n      mstore\n      dup5\n      0x40\n      dup12\n      keccak256\n      sstore\n      mload(0x40)\n      swap2\n      dup3\n      swap2\n      mload\n      dup1\n      swap2\n      dup4\n      mcopy\n      dup2\n      add\n      dup11\n      dup2\n      mstore\n      sub\n      swap1\n      keccak256\n      swap4\n      tag_123\n      mload(0x40)\n      swap3\n      0x60\n      dup5\n      mstore\n      0x60\n      dup5\n      add\n      swap1\n      tag_1\n      jump\t// in\n    tag_123:\n      swap6\n      0x20\n      dup4\n      add\n      mstore\n      0x40\n      dup3\n      add\n      mstore\n        /* \"contracts/MasterStorage.sol\":2424:2439  block.timestamp */\n      dup1\n      timestamp\n        /* \"contracts/MasterStorage.sol\":3000:3083  DataStored(dataIdCounter, data, dataType, timestamp, rating, address(currentChild)) */\n      swap6\n      sub\n      swap1\n      log4\n        /* \"contracts/MasterStorage.sol\":3094:3109  dataIdCounter++ */\n      tag_25\n      jump\t// in\n    tag_117:\n        /* \"contracts/MasterStorage.sol\":2473:2486  dataIdCounter */\n      0x07\n        /* \"contracts/MasterStorage.sol\":101:8432  contract MasterStorage {... */\n      sstore\n      dup1\n      return\n        /* \"contracts/MasterStorage.sol\":2677:2759  if (rating > 0) {... */\n    tag_119:\n        /* \"contracts/MasterStorage.sol\":101:8432  contract MasterStorage {... */\n      dup5\n      dup9\n      mstore\n        /* \"contracts/MasterStorage.sol\":2708:2719  ratingToIds */\n      0x03\n        /* \"contracts/MasterStorage.sol\":101:8432  contract MasterStorage {... */\n      0x20\n      mstore\n        /* \"contracts/MasterStorage.sol\":2708:2747  ratingToIds[rating].push(dataIdCounter) */\n      tag_124\n        /* \"contracts/MasterStorage.sol\":101:8432  contract MasterStorage {... */\n      0x40\n      dup10\n      keccak256\n        /* \"contracts/MasterStorage.sol\":2473:2486  dataIdCounter */\n      0x07\n        /* \"contracts/MasterStorage.sol\":101:8432  contract MasterStorage {... */\n      sload\n        /* \"contracts/MasterStorage.sol\":2708:2747  ratingToIds[rating].push(dataIdCounter) */\n      swap1\n      tag_24\n      jump\t// in\n    tag_124:\n        /* \"contracts/MasterStorage.sol\":2677:2759  if (rating > 0) {... */\n      jump(tag_120)\n        /* \"contracts/MasterStorage.sol\":2450:2522  currentChild.storeData(dataIdCounter, data, dataType, timestamp, rating) */\n    tag_115:\n        /* \"contracts/MasterStorage.sol\":3094:3109  dataIdCounter++ */\n      tag_117\n        /* \"contracts/MasterStorage.sol\":2450:2522  currentChild.storeData(dataIdCounter, data, dataType, timestamp, rating) */\n      swap5\n      pop\n        /* \"contracts/MasterStorage.sol\":101:8432  contract MasterStorage {... */\n      0x00\n        /* \"contracts/MasterStorage.sol\":2450:2522  currentChild.storeData(dataIdCounter, data, dataType, timestamp, rating) */\n      tag_125\n      swap2\n      tag_5\n      jump\t// in\n    tag_125:\n        /* \"contracts/MasterStorage.sol\":101:8432  contract MasterStorage {... */\n      0x00\n        /* \"contracts/MasterStorage.sol\":2450:2522  currentChild.storeData(dataIdCounter, data, dataType, timestamp, rating) */\n      swap4\n      jump(tag_116)\n    tag_113:\n        /* \"contracts/MasterStorage.sol\":101:8432  contract MasterStorage {... */\n      mload(0x40)\n      returndatasize\n      0x00\n      dup3\n      returndatacopy\n      returndatasize\n      swap1\n      revert\n        /* \"contracts/MasterStorage.sol\":2450:2522  currentChild.storeData(dataIdCounter, data, dataType, timestamp, rating) */\n    tag_109:\n        /* \"contracts/MasterStorage.sol\":101:8432  contract MasterStorage {... */\n      0x00\n      dup1\n      revert\n        /* \"contracts/MasterStorage.sol\":2227:2334  if (currentChild.isFull()) {... */\n    tag_107:\n        /* \"contracts/MasterStorage.sol\":850:853  100 */\n      0x64\n        /* \"contracts/MasterStorage.sol\":1487:1519  childCount < MAX_CHILD_CONTRACTS */\n      swap2\n      pop\n      lt\n        /* \"contracts/MasterStorage.sol\":101:8432  contract MasterStorage {... */\n      iszero\n      tag_126\n      jumpi\n      mload(0x40)\n        /* \"contracts/MasterStorage.sol\":1586:1617  new ChildStorage(address(this)) */\n      dataSize(sub_0)\n      dup1\n      dup3\n      add\n      swap1\n      dup3\n      dup3\n      lt\n        /* \"contracts/MasterStorage.sol\":101:8432  contract MasterStorage {... */\n      0xffffffffffffffff\n        /* \"contracts/MasterStorage.sol\":1586:1617  new ChildStorage(address(this)) */\n      dup4\n      gt\n      or\n      tag_128\n      jumpi\n        /* \"contracts/MasterStorage.sol\":101:8432  contract MasterStorage {... */\n      0x20\n        /* \"contracts/MasterStorage.sol\":1586:1617  new ChildStorage(address(this)) */\n      swap2\n      dup4\n      swap2\n      dataOffset(sub_0)\n      dup4\n      codecopy\n        /* \"contracts/MasterStorage.sol\":1611:1615  this */\n      address\n        /* \"contracts/MasterStorage.sol\":101:8432  contract MasterStorage {... */\n      dup2\n      mstore\n        /* \"contracts/MasterStorage.sol\":1586:1617  new ChildStorage(address(this)) */\n      sub\n      add\n      swap1\n        /* \"contracts/MasterStorage.sol\":101:8432  contract MasterStorage {... */\n      0x00\n        /* \"contracts/MasterStorage.sol\":1586:1617  new ChildStorage(address(this)) */\n      create\n      dup1\n      iszero\n      tag_113\n      jumpi\n        /* \"contracts/MasterStorage.sol\":101:8432  contract MasterStorage {... */\n      0x01\n      dup1\n      0xa0\n      shl\n      sub\n      and\n        /* \"contracts/MasterStorage.sol\":2200:2210  childCount */\n      0x06\n        /* \"contracts/MasterStorage.sol\":101:8432  contract MasterStorage {... */\n      sload\n      0x00\n      mstore\n      mstore(0x20, 0x00)\n      keccak256(0x00, 0x40)\n      0x01\n      dup1\n      0xa0\n      shl\n      sub\n      dup3\n      and\n      shl(0xa0, 0xffffffffffffffffffffffff)\n      dup3\n      sload\n      and\n      or\n      swap1\n      sstore\n        /* \"contracts/MasterStorage.sol\":1748:1760  childCount++ */\n      tag_132\n        /* \"contracts/MasterStorage.sol\":2200:2210  childCount */\n      0x06\n        /* \"contracts/MasterStorage.sol\":101:8432  contract MasterStorage {... */\n      sload\n      dup3\n        /* \"contracts/MasterStorage.sol\":1690:1737  NewChildContract(address(newChild), childCount) */\n      0x9dede39b617164d465ca522f28bb62b2e885ce5793bce366296d86ba2310de18\n        /* \"contracts/MasterStorage.sol\":101:8432  contract MasterStorage {... */\n      0x20\n      mload(0x40)\n      dup5\n      dup2\n      mstore\n        /* \"contracts/MasterStorage.sol\":1690:1737  NewChildContract(address(newChild), childCount) */\n      log2\n        /* \"contracts/MasterStorage.sol\":1748:1760  childCount++ */\n      tag_25\n      jump\t// in\n    tag_132:\n        /* \"contracts/MasterStorage.sol\":2200:2210  childCount */\n      0x06\n        /* \"contracts/MasterStorage.sol\":101:8432  contract MasterStorage {... */\n      sstore\n        /* \"contracts/MasterStorage.sol\":2227:2334  if (currentChild.isFull()) {... */\n      0x00\n      jump(tag_108)\n        /* \"contracts/MasterStorage.sol\":1586:1617  new ChildStorage(address(this)) */\n    tag_128:\n        /* \"contracts/MasterStorage.sol\":101:8432  contract MasterStorage {... */\n      mstore(0x00, shl(0xe0, 0x4e487b71))\n      mstore(0x04, 0x41)\n      revert(0x00, 0x24)\n    tag_126:\n      mload(0x40)\n      shl(0xe5, 0x461bcd)\n      dup2\n      mstore\n      0x20\n      0x04\n      dup3\n      add\n      mstore\n      0x1b\n      0x24\n      dup3\n      add\n      mstore\n      0x4d6178206368696c6420636f6e74726163747320726561636865640000000000\n      0x44\n      dup3\n      add\n      mstore\n        /* \"contracts/MasterStorage.sol\":850:853  100 */\n      0x64\n      swap1\n        /* \"contracts/MasterStorage.sol\":101:8432  contract MasterStorage {... */\n      revert\n        /* \"contracts/MasterStorage.sol\":2231:2252  currentChild.isFull() */\n    tag_105:\n      swap1\n      pop\n        /* \"contracts/MasterStorage.sol\":101:8432  contract MasterStorage {... */\n      0x20\n        /* \"contracts/MasterStorage.sol\":2231:2252  currentChild.isFull() */\n      dup2\n      returndatasize\n        /* \"contracts/MasterStorage.sol\":101:8432  contract MasterStorage {... */\n      0x20\n        /* \"contracts/MasterStorage.sol\":2231:2252  currentChild.isFull() */\n      gt\n      tag_133\n      jumpi\n    tag_134:\n      dup2\n      tag_135\n        /* \"contracts/MasterStorage.sol\":101:8432  contract MasterStorage {... */\n      0x20\n        /* \"contracts/MasterStorage.sol\":2231:2252  currentChild.isFull() */\n      swap4\n      dup4\n      tag_5\n      jump\t// in\n    tag_135:\n      dup2\n      add\n        /* \"contracts/MasterStorage.sol\":101:8432  contract MasterStorage {... */\n      sub\n      slt\n      tag_109\n      jumpi\n      mload\n      dup1\n      iszero\n      iszero\n      dup2\n      sub\n      tag_109\n      jumpi\n        /* \"contracts/MasterStorage.sol\":2231:2252  currentChild.isFull() */\n      0x00\n      jump(tag_106)\n    tag_133:\n      returndatasize\n      swap2\n      pop\n      jump(tag_134)\n        /* \"contracts/MasterStorage.sol\":101:8432  contract MasterStorage {... */\n    tag_101:\n      mstore(0x00, shl(0xe0, 0x4e487b71))\n      mstore(0x04, 0x11)\n      revert(0x00, 0x24)\n    tag_98:\n      mload(0x40)\n      shl(0xe5, 0x461bcd)\n      dup2\n      mstore\n      0x20\n      0x04\n      dup3\n      add\n      mstore\n      0x19\n      0x24\n      dup3\n      add\n      mstore\n      0x4461746120747970652063616e6e6f7420626520656d70747900000000000000\n      0x44\n      dup3\n      add\n      mstore\n      0x64\n      swap1\n      revert\n    tag_96:\n      mload(0x40)\n      shl(0xe5, 0x461bcd)\n      dup2\n      mstore\n      0x20\n      0x04\n      dup3\n      add\n      mstore\n      0x14\n      0x24\n      dup3\n      add\n      mstore\n      shl(0x60, 0x446174612063616e6e6f7420626520656d707479)\n      0x44\n      dup3\n      add\n      mstore\n      0x64\n      swap1\n      revert\n    tag_94:\n      mload(0x40)\n      shl(0xe5, 0x461bcd)\n      dup2\n      mstore\n      0x20\n      0x04\n      dup3\n      add\n      mstore\n      0x13\n      0x24\n      dup3\n      add\n      mstore\n      shl(0x6a, 0x13db9b1e481bdddb995c8818d85b8818d85b1b)\n      0x44\n      dup3\n      add\n      mstore\n      0x64\n      swap1\n      revert\n    tag_60:\n      jumpi(tag_109, callvalue)\n      jumpi(tag_109, slt(add(not(0x03), calldatasize), 0x20))\n      mstore(0x00, calldataload(0x04))\n        /* \"contracts/MasterStorage.sol\":6776:6788  dataHashToId */\n      0x05\n        /* \"contracts/MasterStorage.sol\":101:8432  contract MasterStorage {... */\n      0x20\n      mstore\n      sload(keccak256(0x00, 0x40))\n      dup1\n      0x00\n      mstore\n      mstore(0x20, 0x01)\n      0x00\n      0x01\n      dup1\n      0xa0\n      shl\n      sub\n      0x40\n      dup3\n      keccak256\n      sload\n      and\n        /* \"contracts/MasterStorage.sol\":6878:6906  address(child) != address(0) */\n      swap2\n        /* \"contracts/MasterStorage.sol\":6870:6925  require(address(child) != address(0), \"Data not found\") */\n      tag_144\n        /* \"contracts/MasterStorage.sol\":6878:6906  address(child) != address(0) */\n      dup4\n      iszero\n      iszero\n        /* \"contracts/MasterStorage.sol\":6870:6925  require(address(child) != address(0), \"Data not found\") */\n      tag_13\n      jump\t// in\n    tag_144:\n        /* \"contracts/MasterStorage.sol\":6943:6960  child.getData(id) */\n      0x24\n        /* \"contracts/MasterStorage.sol\":101:8432  contract MasterStorage {... */\n      mload(0x40)\n      dup1\n      swap5\n      dup2\n      swap4\n      shl(0xe0, 0x0178fe3f)\n        /* \"contracts/MasterStorage.sol\":6943:6960  child.getData(id) */\n      dup4\n      mstore\n        /* \"contracts/MasterStorage.sol\":101:8432  contract MasterStorage {... */\n      0x04\n        /* \"contracts/MasterStorage.sol\":6943:6960  child.getData(id) */\n      dup4\n      add\n        /* \"contracts/MasterStorage.sol\":101:8432  contract MasterStorage {... */\n      mstore\n        /* \"contracts/MasterStorage.sol\":6943:6960  child.getData(id) */\n      gas\n      staticcall\n      dup1\n      iszero\n      tag_113\n      jumpi\n        /* \"contracts/MasterStorage.sol\":101:8432  contract MasterStorage {... */\n      0x00\n      0x00\n      swap2\n      0x00\n      0x00\n        /* \"contracts/MasterStorage.sol\":6943:6960  child.getData(id) */\n      swap2\n      tag_147\n      jumpi\n        /* \"contracts/MasterStorage.sol\":101:8432  contract MasterStorage {... */\n    tag_148:\n      swap1\n      tag_149\n      swap2\n      mload(0x40)\n      swap5\n      dup6\n      swap5\n      dup6\n      tag_2\n      jump\t// in\n    tag_149:\n      sub\n      swap1\n      return\n        /* \"contracts/MasterStorage.sol\":6943:6960  child.getData(id) */\n    tag_147:\n      pop\n      pop\n      pop\n      pop\n      tag_150\n        /* \"contracts/MasterStorage.sol\":101:8432  contract MasterStorage {... */\n      tag_149\n        /* \"contracts/MasterStorage.sol\":6943:6960  child.getData(id) */\n      swap2\n      returndatasize\n      dup1\n        /* \"contracts/MasterStorage.sol\":101:8432  contract MasterStorage {... */\n      0x00\n        /* \"contracts/MasterStorage.sol\":6943:6960  child.getData(id) */\n      dup4\n      returndatacopy\n      tag_151\n      dup2\n      dup4\n      tag_5\n      jump\t// in\n    tag_151:\n      dup2\n      add\n      swap1\n      tag_15\n      jump\t// in\n    tag_150:\n      swap2\n      swap4\n      pop\n      dup4\n      swap3\n      swap2\n      swap1\n      jump(tag_148)\n        /* \"contracts/MasterStorage.sol\":101:8432  contract MasterStorage {... */\n    tag_58:\n      jumpi(tag_109, callvalue)\n      jumpi(tag_109, slt(add(not(0x03), calldatasize), 0x20))\n      0xff\n      tag_156\n      tag_12\n      jump\t// in\n    tag_156:\n      and\n        /* \"contracts/MasterStorage.sol\":8339:8377  require(rating <= 5, \"Invalid rating\") */\n      tag_157\n        /* \"contracts/MasterStorage.sol\":8357:8358  5 */\n      0x05\n        /* \"contracts/MasterStorage.sol\":8347:8358  rating <= 5 */\n      dup3\n      gt\n      iszero\n        /* \"contracts/MasterStorage.sol\":8339:8377  require(rating <= 5, \"Invalid rating\") */\n      tag_23\n      jump\t// in\n    tag_157:\n        /* \"contracts/MasterStorage.sol\":101:8432  contract MasterStorage {... */\n      0x00\n      mstore\n        /* \"contracts/MasterStorage.sol\":8395:8406  ratingToIds */\n      0x03\n        /* \"contracts/MasterStorage.sol\":101:8432  contract MasterStorage {... */\n      0x20\n      mstore\n      0x20\n      sload(keccak256(0x00, 0x40))\n      mload(0x40)\n      swap1\n      dup2\n      mstore\n      return\n    tag_56:\n      jumpi(tag_109, callvalue)\n      jumpi(tag_109, slt(add(not(0x03), calldatasize), 0x20))\n      calldataload(0x04)\n      0xffffffffffffffff\n      dup2\n      gt\n      tag_109\n      jumpi\n      0x20\n      dup1\n      tag_164\n      dup2\n      swap4\n      calldatasize\n      swap1\n      0x04\n      add\n      tag_7\n      jump\t// in\n    tag_164:\n      mload(0x40)\n      swap3\n      dup2\n      dup5\n      swap3\n      mload\n      swap2\n      dup3\n      swap2\n      add\n      dup4\n      mcopy\n      dup2\n      add\n        /* \"contracts/MasterStorage.sol\":8145:8158  dataTypeToIds */\n      0x02\n        /* \"contracts/MasterStorage.sol\":101:8432  contract MasterStorage {... */\n      dup2\n      mstore\n      sub\n      add\n      swap1\n      keccak256\n      sload\n      mload(0x40)\n      swap1\n      dup2\n      mstore\n      return\n    tag_54:\n      jumpi(tag_109, callvalue)\n      jumpi(tag_109, slt(add(not(0x03), calldatasize), 0x60))\n      tag_169\n      tag_12\n      jump\t// in\n    tag_169:\n      calldataload(0x24)\n      0xff\n      calldataload(0x44)\n      swap3\n      and\n        /* \"contracts/MasterStorage.sol\":4813:4851  require(rating <= 5, \"Invalid rating\") */\n      tag_170\n        /* \"contracts/MasterStorage.sol\":4831:4832  5 */\n      0x05\n        /* \"contracts/MasterStorage.sol\":4821:4832  rating <= 5 */\n      dup3\n      gt\n      iszero\n        /* \"contracts/MasterStorage.sol\":4813:4851  require(rating <= 5, \"Invalid rating\") */\n      tag_23\n      jump\t// in\n    tag_170:\n        /* \"contracts/MasterStorage.sol\":101:8432  contract MasterStorage {... */\n      0x00\n      mstore\n        /* \"contracts/MasterStorage.sol\":4888:4899  ratingToIds */\n      0x03\n        /* \"contracts/MasterStorage.sol\":101:8432  contract MasterStorage {... */\n      0x20\n      mstore\n      keccak256(0x00, 0x40)\n      swap1\n      mload(0x40)\n      dup1\n      dup4\n      0x20\n      dup3\n      swap6\n      sload\n      swap4\n      dup5\n      dup2\n      mstore\n      add\n      swap1\n      0x00\n      mstore\n      keccak256(0x00, 0x20)\n      swap3\n      0x00\n    tag_171:\n      dup2\n      dup2\n      lt\n      tag_172\n      jumpi\n      pop\n      pop\n      tag_174\n      swap3\n      pop\n      sub\n      dup4\n      tag_5\n      jump\t// in\n    tag_174:\n        /* \"contracts/MasterStorage.sol\":4918:4974  require(offset <= idList.length, \"Offset out of bounds\") */\n      tag_175\n        /* \"contracts/MasterStorage.sol\":101:8432  contract MasterStorage {... */\n      dup3\n      mload\n        /* \"contracts/MasterStorage.sol\":4926:4949  offset <= idList.length */\n      dup5\n      gt\n      iszero\n        /* \"contracts/MasterStorage.sol\":4918:4974  require(offset <= idList.length, \"Offset out of bounds\") */\n      tag_16\n      jump\t// in\n    tag_175:\n        /* \"contracts/MasterStorage.sol\":101:8432  contract MasterStorage {... */\n      dup1\n        /* \"contracts/MasterStorage.sol\":5001:5023  idList.length - offset */\n      tag_176\n        /* \"contracts/MasterStorage.sol\":101:8432  contract MasterStorage {... */\n      dup5\n      dup5\n      mload\n        /* \"contracts/MasterStorage.sol\":5001:5023  idList.length - offset */\n      tag_17\n      jump\t// in\n    tag_176:\n        /* \"contracts/MasterStorage.sol\":5001:5031  idList.length - offset > limit */\n      gt\n        /* \"contracts/MasterStorage.sol\":5001:5064  idList.length - offset > limit ? limit : idList.length - offset */\n      iszero\n      tag_177\n      jumpi\n      swap1\n    tag_179:\n        /* \"contracts/MasterStorage.sol\":5083:5103  new uint256[](count) */\n      tag_180\n      dup3\n      tag_19\n      jump\t// in\n    tag_180:\n        /* \"contracts/MasterStorage.sol\":5121:5140  new string[](count) */\n      swap1\n      tag_181\n      dup4\n      tag_20\n      jump\t// in\n    tag_181:\n        /* \"contracts/MasterStorage.sol\":5163:5182  new string[](count) */\n      swap3\n      tag_182\n      dup2\n      tag_20\n      jump\t// in\n    tag_182:\n        /* \"contracts/MasterStorage.sol\":5206:5226  new uint256[](count) */\n      tag_183\n      dup3\n      tag_19\n      jump\t// in\n    tag_183:\n        /* \"contracts/MasterStorage.sol\":5247:5265  new uint8[](count) */\n      swap2\n      tag_184\n      dup2\n      tag_19\n      jump\t// in\n    tag_184:\n        /* \"contracts/MasterStorage.sol\":5283:5296  uint256 i = 0 */\n      swap4\n        /* \"contracts/MasterStorage.sol\":101:8432  contract MasterStorage {... */\n      0x00\n        /* \"contracts/MasterStorage.sol\":5298:5307  i < count */\n    tag_185:\n      dup3\n      dup2\n      lt\n      tag_186\n      jumpi\n        /* \"contracts/MasterStorage.sol\":101:8432  contract MasterStorage {... */\n      pop\n      pop\n      pop\n      swap1\n      tag_149\n      swap3\n      swap2\n      mload(0x40)\n      swap6\n      dup7\n      swap6\n      dup7\n      tag_11\n      jump\t// in\n        /* \"contracts/MasterStorage.sol\":5309:5312  i++ */\n    tag_186:\n        /* \"contracts/MasterStorage.sol\":5338:5356  idList[offset + i] */\n      tag_189\n        /* \"contracts/MasterStorage.sol\":5345:5355  offset + i */\n      tag_190\n      dup3\n      dup12\n      tag_22\n      jump\t// in\n    tag_190:\n        /* \"contracts/MasterStorage.sol\":5338:5356  idList[offset + i] */\n      dup4\n      tag_21\n      jump\t// in\n    tag_189:\n        /* \"contracts/MasterStorage.sol\":101:8432  contract MasterStorage {... */\n      mload\n        /* \"contracts/MasterStorage.sol\":5329:5356  ids[i] = idList[offset + i] */\n      tag_191\n      dup3\n      dup10\n      tag_21\n      jump\t// in\n    tag_191:\n        /* \"contracts/MasterStorage.sol\":101:8432  contract MasterStorage {... */\n      mstore\n        /* \"contracts/MasterStorage.sol\":5417:5423  ids[i] */\n      tag_192\n      dup2\n      dup9\n      tag_21\n      jump\t// in\n    tag_192:\n        /* \"contracts/MasterStorage.sol\":101:8432  contract MasterStorage {... */\n      mload\n      0x00\n      swap1\n      dup2\n      mstore\n      mstore(0x20, 0x01)\n      0x40\n      dup2\n      keccak256\n      sload\n      sub(shl(0xa0, 0x01), 0x01)\n      and\n      swap2\n        /* \"contracts/MasterStorage.sol\":5507:5513  ids[i] */\n      swap1\n      tag_193\n      dup3\n      dup11\n      tag_21\n      jump\t// in\n    tag_193:\n        /* \"contracts/MasterStorage.sol\":101:8432  contract MasterStorage {... */\n      mload\n      0x24\n      mload(0x40)\n      dup1\n      swap6\n      dup2\n      swap4\n      shl(0xe0, 0x0178fe3f)\n        /* \"contracts/MasterStorage.sol\":5493:5514  child.getData(ids[i]) */\n      dup4\n      mstore\n        /* \"contracts/MasterStorage.sol\":101:8432  contract MasterStorage {... */\n      0x04\n        /* \"contracts/MasterStorage.sol\":5493:5514  child.getData(ids[i]) */\n      dup4\n      add\n        /* \"contracts/MasterStorage.sol\":101:8432  contract MasterStorage {... */\n      mstore\n        /* \"contracts/MasterStorage.sol\":5493:5514  child.getData(ids[i]) */\n      gas\n      staticcall\n      swap2\n      dup3\n      iszero\n      tag_113\n      jumpi\n        /* \"contracts/MasterStorage.sol\":101:8432  contract MasterStorage {... */\n      0x01\n        /* \"contracts/MasterStorage.sol\":5493:5514  child.getData(ids[i]) */\n      swap3\n        /* \"contracts/MasterStorage.sol\":101:8432  contract MasterStorage {... */\n      0x00\n      swap2\n      0x00\n      swap2\n      0x00\n      swap2\n      0x00\n        /* \"contracts/MasterStorage.sol\":5493:5514  child.getData(ids[i]) */\n      swap2\n      tag_196\n      jumpi\n        /* \"contracts/MasterStorage.sol\":5309:5312  i++ */\n    tag_197:\n        /* \"contracts/MasterStorage.sol\":5440:5514  (data[i], dataTypes[i], timestamps[i], ratings[i]) = child.getData(ids[i]) */\n      pop\n        /* \"contracts/MasterStorage.sol\":101:8432  contract MasterStorage {... */\n      0xff\n        /* \"contracts/MasterStorage.sol\":5440:5514  (data[i], dataTypes[i], timestamps[i], ratings[i]) = child.getData(ids[i]) */\n      tag_198\n      dup7\n      dup14\n      tag_21\n      jump\t// in\n    tag_198:\n        /* \"contracts/MasterStorage.sol\":101:8432  contract MasterStorage {... */\n      swap2\n      and\n      swap1\n      mstore\n        /* \"contracts/MasterStorage.sol\":5440:5514  (data[i], dataTypes[i], timestamps[i], ratings[i]) = child.getData(ids[i]) */\n      tag_199\n      dup5\n      dup11\n      tag_21\n      jump\t// in\n    tag_199:\n        /* \"contracts/MasterStorage.sol\":101:8432  contract MasterStorage {... */\n      mstore\n        /* \"contracts/MasterStorage.sol\":5440:5514  (data[i], dataTypes[i], timestamps[i], ratings[i]) = child.getData(ids[i]) */\n      tag_200\n      dup4\n      dup9\n      tag_21\n      jump\t// in\n    tag_200:\n      mstore\n      tag_201\n      dup3\n      dup12\n      tag_21\n      jump\t// in\n    tag_201:\n      mstore\n        /* \"contracts/MasterStorage.sol\":101:8432  contract MasterStorage {... */\n      add\n        /* \"contracts/MasterStorage.sol\":5283:5296  uint256 i = 0 */\n      jump(tag_185)\n        /* \"contracts/MasterStorage.sol\":5493:5514  child.getData(ids[i]) */\n    tag_196:\n      swap3\n      pop\n      pop\n      pop\n      tag_202\n      swap2\n      pop\n      returndatasize\n      dup1\n        /* \"contracts/MasterStorage.sol\":101:8432  contract MasterStorage {... */\n      0x00\n        /* \"contracts/MasterStorage.sol\":5493:5514  child.getData(ids[i]) */\n      dup4\n      returndatacopy\n      tag_151\n      dup2\n      dup4\n      tag_5\n      jump\t// in\n    tag_202:\n      dup15\n      jump(tag_197)\n        /* \"contracts/MasterStorage.sol\":5001:5064  idList.length - offset > limit ? limit : idList.length - offset */\n    tag_177:\n        /* \"contracts/MasterStorage.sol\":101:8432  contract MasterStorage {... */\n      pop\n        /* \"contracts/MasterStorage.sol\":5042:5064  idList.length - offset */\n      tag_204\n        /* \"contracts/MasterStorage.sol\":101:8432  contract MasterStorage {... */\n      dup3\n      dup3\n      mload\n        /* \"contracts/MasterStorage.sol\":5042:5064  idList.length - offset */\n      tag_17\n      jump\t// in\n    tag_204:\n        /* \"contracts/MasterStorage.sol\":5001:5064  idList.length - offset > limit ? limit : idList.length - offset */\n      swap1\n      jump(tag_179)\n        /* \"contracts/MasterStorage.sol\":101:8432  contract MasterStorage {... */\n    tag_172:\n      dup5\n      sload\n      dup4\n      mstore\n      0x01\n      swap5\n      dup6\n      add\n      swap5\n      dup8\n      swap5\n      pop\n      0x20\n      swap1\n      swap4\n      add\n      swap3\n      add\n      jump(tag_171)\n    tag_52:\n      jumpi(tag_109, callvalue)\n      jumpi(tag_109, slt(add(not(0x03), calldatasize), 0x60))\n      calldataload(0x04)\n      0xffffffffffffffff\n      dup2\n      gt\n      tag_109\n      jumpi\n      tag_211\n      swap1\n      calldatasize\n      swap1\n      0x04\n      add\n      tag_7\n      jump\t// in\n    tag_211:\n      calldataload(0x24)\n      0x20\n      dup1\n      calldataload(0x44)\n      swap4\n      mload(0x40)\n      swap3\n      dup2\n      dup5\n      swap3\n      mload\n      swap2\n      dup3\n      swap2\n      add\n      dup4\n      mcopy\n      dup2\n      add\n        /* \"contracts/MasterStorage.sol\":5916:5929  dataTypeToIds */\n      0x02\n        /* \"contracts/MasterStorage.sol\":101:8432  contract MasterStorage {... */\n      dup2\n      mstore\n      sub\n      add\n      swap1\n      keccak256\n      swap1\n      mload(0x40)\n      dup1\n      dup4\n      0x20\n      dup3\n      swap6\n      sload\n      swap4\n      dup5\n      dup2\n      mstore\n      add\n      swap1\n      0x00\n      mstore\n      keccak256(0x00, 0x20)\n      swap3\n      0x00\n    tag_212:\n      dup2\n      dup2\n      lt\n      tag_213\n      jumpi\n      pop\n      pop\n      tag_215\n      swap3\n      pop\n      sub\n      dup4\n      tag_5\n      jump\t// in\n    tag_215:\n        /* \"contracts/MasterStorage.sol\":5950:6006  require(offset <= idList.length, \"Offset out of bounds\") */\n      tag_216\n        /* \"contracts/MasterStorage.sol\":101:8432  contract MasterStorage {... */\n      dup3\n      mload\n        /* \"contracts/MasterStorage.sol\":5958:5981  offset <= idList.length */\n      dup5\n      gt\n      iszero\n        /* \"contracts/MasterStorage.sol\":5950:6006  require(offset <= idList.length, \"Offset out of bounds\") */\n      tag_16\n      jump\t// in\n    tag_216:\n        /* \"contracts/MasterStorage.sol\":101:8432  contract MasterStorage {... */\n      dup1\n        /* \"contracts/MasterStorage.sol\":6033:6055  idList.length - offset */\n      tag_217\n        /* \"contracts/MasterStorage.sol\":101:8432  contract MasterStorage {... */\n      dup5\n      dup5\n      mload\n        /* \"contracts/MasterStorage.sol\":6033:6055  idList.length - offset */\n      tag_17\n      jump\t// in\n    tag_217:\n        /* \"contracts/MasterStorage.sol\":6033:6063  idList.length - offset > limit */\n      gt\n        /* \"contracts/MasterStorage.sol\":6033:6096  idList.length - offset > limit ? limit : idList.length - offset */\n      iszero\n      tag_218\n      jumpi\n      swap1\n    tag_220:\n        /* \"contracts/MasterStorage.sol\":6123:6143  new uint256[](count) */\n      tag_221\n      dup3\n      tag_19\n      jump\t// in\n    tag_221:\n        /* \"contracts/MasterStorage.sol\":6161:6180  new string[](count) */\n      swap1\n      tag_222\n      dup4\n      tag_20\n      jump\t// in\n    tag_222:\n        /* \"contracts/MasterStorage.sol\":6203:6222  new string[](count) */\n      swap3\n      tag_223\n      dup2\n      tag_20\n      jump\t// in\n    tag_223:\n        /* \"contracts/MasterStorage.sol\":6246:6266  new uint256[](count) */\n      tag_224\n      dup3\n      tag_19\n      jump\t// in\n    tag_224:\n        /* \"contracts/MasterStorage.sol\":6287:6305  new uint8[](count) */\n      swap2\n      tag_225\n      dup2\n      tag_19\n      jump\t// in\n    tag_225:\n        /* \"contracts/MasterStorage.sol\":6323:6336  uint256 i = 0 */\n      swap4\n        /* \"contracts/MasterStorage.sol\":101:8432  contract MasterStorage {... */\n      0x00\n        /* \"contracts/MasterStorage.sol\":6338:6347  i < count */\n    tag_226:\n      dup3\n      dup2\n      lt\n      tag_227\n      jumpi\n        /* \"contracts/MasterStorage.sol\":101:8432  contract MasterStorage {... */\n      pop\n      pop\n      pop\n      swap1\n      tag_149\n      swap3\n      swap2\n      mload(0x40)\n      swap6\n      dup7\n      swap6\n      dup7\n      tag_11\n      jump\t// in\n        /* \"contracts/MasterStorage.sol\":6349:6352  i++ */\n    tag_227:\n        /* \"contracts/MasterStorage.sol\":6378:6396  idList[offset + i] */\n      tag_230\n        /* \"contracts/MasterStorage.sol\":6385:6395  offset + i */\n      tag_190\n      dup3\n      dup12\n      tag_22\n      jump\t// in\n        /* \"contracts/MasterStorage.sol\":6378:6396  idList[offset + i] */\n    tag_230:\n        /* \"contracts/MasterStorage.sol\":101:8432  contract MasterStorage {... */\n      mload\n        /* \"contracts/MasterStorage.sol\":6369:6396  ids[i] = idList[offset + i] */\n      tag_232\n      dup3\n      dup10\n      tag_21\n      jump\t// in\n    tag_232:\n        /* \"contracts/MasterStorage.sol\":101:8432  contract MasterStorage {... */\n      mstore\n        /* \"contracts/MasterStorage.sol\":6457:6463  ids[i] */\n      tag_233\n      dup2\n      dup9\n      tag_21\n      jump\t// in\n    tag_233:\n        /* \"contracts/MasterStorage.sol\":101:8432  contract MasterStorage {... */\n      mload\n      0x00\n      swap1\n      dup2\n      mstore\n      mstore(0x20, 0x01)\n      0x40\n      dup2\n      keccak256\n      sload\n      sub(shl(0xa0, 0x01), 0x01)\n      and\n      swap2\n        /* \"contracts/MasterStorage.sol\":6547:6553  ids[i] */\n      swap1\n      tag_234\n      dup3\n      dup11\n      tag_21\n      jump\t// in\n    tag_234:\n        /* \"contracts/MasterStorage.sol\":101:8432  contract MasterStorage {... */\n      mload\n      0x24\n      mload(0x40)\n      dup1\n      swap6\n      dup2\n      swap4\n      shl(0xe0, 0x0178fe3f)\n        /* \"contracts/MasterStorage.sol\":6533:6554  child.getData(ids[i]) */\n      dup4\n      mstore\n        /* \"contracts/MasterStorage.sol\":101:8432  contract MasterStorage {... */\n      0x04\n        /* \"contracts/MasterStorage.sol\":6533:6554  child.getData(ids[i]) */\n      dup4\n      add\n        /* \"contracts/MasterStorage.sol\":101:8432  contract MasterStorage {... */\n      mstore\n        /* \"contracts/MasterStorage.sol\":6533:6554  child.getData(ids[i]) */\n      gas\n      staticcall\n      swap2\n      dup3\n      iszero\n      tag_113\n      jumpi\n        /* \"contracts/MasterStorage.sol\":101:8432  contract MasterStorage {... */\n      0x01\n        /* \"contracts/MasterStorage.sol\":6533:6554  child.getData(ids[i]) */\n      swap3\n        /* \"contracts/MasterStorage.sol\":101:8432  contract MasterStorage {... */\n      0x00\n      swap2\n      0x00\n      swap2\n      0x00\n      swap2\n      0x00\n        /* \"contracts/MasterStorage.sol\":6533:6554  child.getData(ids[i]) */\n      swap2\n      tag_237\n      jumpi\n        /* \"contracts/MasterStorage.sol\":6349:6352  i++ */\n    tag_238:\n        /* \"contracts/MasterStorage.sol\":6480:6554  (data[i], dataTypes[i], timestamps[i], ratings[i]) = child.getData(ids[i]) */\n      pop\n        /* \"contracts/MasterStorage.sol\":101:8432  contract MasterStorage {... */\n      0xff\n        /* \"contracts/MasterStorage.sol\":6480:6554  (data[i], dataTypes[i], timestamps[i], ratings[i]) = child.getData(ids[i]) */\n      tag_239\n      dup7\n      dup14\n      tag_21\n      jump\t// in\n    tag_239:\n        /* \"contracts/MasterStorage.sol\":101:8432  contract MasterStorage {... */\n      swap2\n      and\n      swap1\n      mstore\n        /* \"contracts/MasterStorage.sol\":6480:6554  (data[i], dataTypes[i], timestamps[i], ratings[i]) = child.getData(ids[i]) */\n      tag_240\n      dup5\n      dup11\n      tag_21\n      jump\t// in\n    tag_240:\n        /* \"contracts/MasterStorage.sol\":101:8432  contract MasterStorage {... */\n      mstore\n        /* \"contracts/MasterStorage.sol\":6480:6554  (data[i], dataTypes[i], timestamps[i], ratings[i]) = child.getData(ids[i]) */\n      tag_241\n      dup4\n      dup9\n      tag_21\n      jump\t// in\n    tag_241:\n      mstore\n      tag_242\n      dup3\n      dup12\n      tag_21\n      jump\t// in\n    tag_242:\n      mstore\n        /* \"contracts/MasterStorage.sol\":101:8432  contract MasterStorage {... */\n      add\n        /* \"contracts/MasterStorage.sol\":6323:6336  uint256 i = 0 */\n      jump(tag_226)\n        /* \"contracts/MasterStorage.sol\":6533:6554  child.getData(ids[i]) */\n    tag_237:\n      swap3\n      pop\n      pop\n      pop\n      tag_243\n      swap2\n      pop\n      returndatasize\n      dup1\n        /* \"contracts/MasterStorage.sol\":101:8432  contract MasterStorage {... */\n      0x00\n        /* \"contracts/MasterStorage.sol\":6533:6554  child.getData(ids[i]) */\n      dup4\n      returndatacopy\n      tag_151\n      dup2\n      dup4\n      tag_5\n      jump\t// in\n    tag_243:\n      dup15\n      jump(tag_238)\n        /* \"contracts/MasterStorage.sol\":6033:6096  idList.length - offset > limit ? limit : idList.length - offset */\n    tag_218:\n        /* \"contracts/MasterStorage.sol\":101:8432  contract MasterStorage {... */\n      pop\n        /* \"contracts/MasterStorage.sol\":6074:6096  idList.length - offset */\n      tag_245\n        /* \"contracts/MasterStorage.sol\":101:8432  contract MasterStorage {... */\n      dup3\n      dup3\n      mload\n        /* \"contracts/MasterStorage.sol\":6074:6096  idList.length - offset */\n      tag_17\n      jump\t// in\n    tag_245:\n        /* \"contracts/MasterStorage.sol\":6033:6096  idList.length - offset > limit ? limit : idList.length - offset */\n      swap1\n      jump(tag_220)\n        /* \"contracts/MasterStorage.sol\":101:8432  contract MasterStorage {... */\n    tag_213:\n      dup5\n      sload\n      dup4\n      mstore\n      0x01\n      swap5\n      dup6\n      add\n      swap5\n      dup8\n      swap5\n      pop\n      0x20\n      swap1\n      swap4\n      add\n      swap3\n      add\n      jump(tag_212)\n    tag_50:\n      jumpi(tag_109, callvalue)\n      jumpi(tag_109, slt(add(not(0x03), calldatasize), 0x20))\n      mstore(0x00, calldataload(0x04))\n        /* \"contracts/MasterStorage.sol\":622:669  mapping(bytes32 => uint256) public dataHashToId */\n      0x05\n        /* \"contracts/MasterStorage.sol\":101:8432  contract MasterStorage {... */\n      0x20\n      mstore\n      0x20\n      sload(keccak256(0x00, 0x40))\n      mload(0x40)\n      swap1\n      dup2\n      mstore\n      return\n    tag_48:\n      jumpi(tag_109, callvalue)\n      jumpi(tag_109, slt(add(not(0x03), calldatasize), 0x00))\n      0x20\n        /* \"contracts/MasterStorage.sol\":7950:7960  childCount */\n      0x06\n        /* \"contracts/MasterStorage.sol\":101:8432  contract MasterStorage {... */\n      sload\n      mload(0x40)\n      swap1\n      dup2\n      mstore\n      return\n    tag_46:\n      jumpi(tag_109, callvalue)\n      jumpi(tag_109, slt(add(not(0x03), calldatasize), 0x20))\n      mstore(0x00, calldataload(0x04))\n      mstore(0x20, 0x00)\n      0x20\n      0x01\n      dup1\n      0xa0\n      shl\n      sub\n      sload(keccak256(0x00, 0x40))\n      and\n      mload(0x40)\n      swap1\n      dup2\n      mstore\n      return\n    tag_44:\n      jumpi(tag_109, callvalue)\n      tag_260\n      calldatasize\n      tag_3\n      jump\t// in\n    tag_260:\n        /* \"contracts/MasterStorage.sol\":7227:7240  dataIdCounter */\n      0x07\n        /* \"contracts/MasterStorage.sol\":101:8432  contract MasterStorage {... */\n      sload\n        /* \"contracts/MasterStorage.sol\":7217:7240  startId < dataIdCounter */\n      dup1\n      dup4\n      lt\n        /* \"contracts/MasterStorage.sol\":101:8432  contract MasterStorage {... */\n      iszero\n      tag_261\n      jumpi\n        /* \"contracts/MasterStorage.sol\":7280:7289  count > 0 */\n      dup2\n      iszero\n      iszero\n        /* \"contracts/MasterStorage.sol\":7280:7325  count > 0 && startId + count <= dataIdCounter */\n      swap1\n      dup2\n      tag_263\n      jumpi\n        /* \"contracts/MasterStorage.sol\":101:8432  contract MasterStorage {... */\n    tag_264:\n      pop\n      iszero\n      tag_265\n      jumpi\n        /* \"contracts/MasterStorage.sol\":7363:7382  new string[](count) */\n      tag_267\n      dup2\n      tag_20\n      jump\t// in\n    tag_267:\n        /* \"contracts/MasterStorage.sol\":7405:7424  new string[](count) */\n      swap2\n      tag_268\n      dup3\n      tag_20\n      jump\t// in\n    tag_268:\n        /* \"contracts/MasterStorage.sol\":7448:7468  new uint256[](count) */\n      tag_269\n      dup4\n      tag_19\n      jump\t// in\n    tag_269:\n        /* \"contracts/MasterStorage.sol\":7489:7507  new uint8[](count) */\n      swap2\n      tag_270\n      dup5\n      tag_19\n      jump\t// in\n    tag_270:\n        /* \"contracts/MasterStorage.sol\":7525:7538  uint256 i = 0 */\n      swap4\n        /* \"contracts/MasterStorage.sol\":101:8432  contract MasterStorage {... */\n      0x00\n        /* \"contracts/MasterStorage.sol\":7540:7549  i < count */\n    tag_271:\n      dup2\n      dup2\n      lt\n      tag_272\n      jumpi\n        /* \"contracts/MasterStorage.sol\":101:8432  contract MasterStorage {... */\n      tag_274\n      dup8\n      tag_149\n      dup9\n      tag_276\n      dup10\n      tag_277\n      dup11\n      mload(0x40)\n      swap8\n      dup9\n      swap8\n      0x80\n      dup10\n      mstore\n      0x80\n      dup10\n      add\n      swap1\n      tag_9\n      jump\t// in\n    tag_274:\n      swap1\n      dup8\n      dup3\n      sub\n      0x20\n      dup10\n      add\n      mstore\n      tag_9\n      jump\t// in\n    tag_277:\n      swap1\n      dup6\n      dup3\n      sub\n      0x40\n      dup8\n      add\n      mstore\n      tag_8\n      jump\t// in\n    tag_276:\n      swap1\n      dup4\n      dup3\n      sub\n      0x60\n      dup6\n      add\n      mstore\n      tag_10\n      jump\t// in\n        /* \"contracts/MasterStorage.sol\":7551:7554  i++ */\n    tag_272:\n        /* \"contracts/MasterStorage.sol\":7617:7628  startId + i */\n      tag_278\n      dup2\n      dup5\n      tag_22\n      jump\t// in\n    tag_278:\n        /* \"contracts/MasterStorage.sol\":101:8432  contract MasterStorage {... */\n      0x00\n      swap1\n      dup2\n      mstore\n      mstore(0x20, 0x01)\n      0x40\n      swap1\n      keccak256\n      sload\n      sub(shl(0xa0, 0x01), 0x01)\n      and\n      swap1\n      dup2\n        /* \"contracts/MasterStorage.sol\":7645:7793  if (address(child) != address(0)) {... */\n      tag_279\n      jumpi\n        /* \"contracts/MasterStorage.sol\":7551:7554  i++ */\n    tag_280:\n        /* \"contracts/MasterStorage.sol\":101:8432  contract MasterStorage {... */\n      0x01\n        /* \"contracts/MasterStorage.sol\":7551:7554  i++ */\n      swap2\n      pop\n        /* \"contracts/MasterStorage.sol\":101:8432  contract MasterStorage {... */\n      add\n        /* \"contracts/MasterStorage.sol\":7525:7538  uint256 i = 0 */\n      jump(tag_271)\n        /* \"contracts/MasterStorage.sol\":7645:7793  if (address(child) != address(0)) {... */\n    tag_279:\n        /* \"contracts/MasterStorage.sol\":101:8432  contract MasterStorage {... */\n      0x00\n        /* \"contracts/MasterStorage.sol\":7765:7776  startId + i */\n      tag_281\n      dup3\n      dup7\n      tag_22\n      jump\t// in\n    tag_281:\n        /* \"contracts/MasterStorage.sol\":7751:7777  child.getData(startId + i) */\n      0x24\n        /* \"contracts/MasterStorage.sol\":101:8432  contract MasterStorage {... */\n      mload(0x40)\n      dup1\n      swap6\n      dup2\n      swap4\n      shl(0xe0, 0x0178fe3f)\n        /* \"contracts/MasterStorage.sol\":7751:7777  child.getData(startId + i) */\n      dup4\n      mstore\n        /* \"contracts/MasterStorage.sol\":101:8432  contract MasterStorage {... */\n      0x04\n        /* \"contracts/MasterStorage.sol\":7751:7777  child.getData(startId + i) */\n      dup4\n      add\n        /* \"contracts/MasterStorage.sol\":101:8432  contract MasterStorage {... */\n      mstore\n        /* \"contracts/MasterStorage.sol\":7751:7777  child.getData(startId + i) */\n      gas\n      staticcall\n      swap2\n      dup3\n      iszero\n      tag_113\n      jumpi\n        /* \"contracts/MasterStorage.sol\":101:8432  contract MasterStorage {... */\n      0x01\n        /* \"contracts/MasterStorage.sol\":7751:7777  child.getData(startId + i) */\n      swap3\n        /* \"contracts/MasterStorage.sol\":101:8432  contract MasterStorage {... */\n      0x00\n      swap2\n      0x00\n      swap2\n      0x00\n      swap2\n      0x00\n        /* \"contracts/MasterStorage.sol\":7751:7777  child.getData(startId + i) */\n      swap2\n      tag_284\n      jumpi\n        /* \"contracts/MasterStorage.sol\":7645:7793  if (address(child) != address(0)) {... */\n    tag_285:\n        /* \"contracts/MasterStorage.sol\":7698:7777  (data[i], dataTypes[i], timestamps[i], ratings[i]) = child.getData(startId + i) */\n      pop\n        /* \"contracts/MasterStorage.sol\":101:8432  contract MasterStorage {... */\n      0xff\n        /* \"contracts/MasterStorage.sol\":7698:7777  (data[i], dataTypes[i], timestamps[i], ratings[i]) = child.getData(startId + i) */\n      tag_286\n      dup7\n      dup14\n      tag_21\n      jump\t// in\n    tag_286:\n        /* \"contracts/MasterStorage.sol\":101:8432  contract MasterStorage {... */\n      swap2\n      and\n      swap1\n      mstore\n        /* \"contracts/MasterStorage.sol\":7698:7777  (data[i], dataTypes[i], timestamps[i], ratings[i]) = child.getData(startId + i) */\n      tag_287\n      dup5\n      dup11\n      tag_21\n      jump\t// in\n    tag_287:\n        /* \"contracts/MasterStorage.sol\":101:8432  contract MasterStorage {... */\n      mstore\n        /* \"contracts/MasterStorage.sol\":7698:7777  (data[i], dataTypes[i], timestamps[i], ratings[i]) = child.getData(startId + i) */\n      tag_288\n      dup4\n      dup9\n      tag_21\n      jump\t// in\n    tag_288:\n      mstore\n      tag_289\n      dup3\n      dup11\n      tag_21\n      jump\t// in\n    tag_289:\n      mstore\n        /* \"contracts/MasterStorage.sol\":7645:7793  if (address(child) != address(0)) {... */\n      jump(tag_280)\n        /* \"contracts/MasterStorage.sol\":7751:7777  child.getData(startId + i) */\n    tag_284:\n      swap3\n      pop\n      pop\n      pop\n      tag_290\n      swap2\n      pop\n      returndatasize\n      dup1\n        /* \"contracts/MasterStorage.sol\":101:8432  contract MasterStorage {... */\n      0x00\n        /* \"contracts/MasterStorage.sol\":7751:7777  child.getData(startId + i) */\n      dup4\n      returndatacopy\n      tag_151\n      dup2\n      dup4\n      tag_5\n      jump\t// in\n    tag_290:\n      dup13\n      jump(tag_285)\n        /* \"contracts/MasterStorage.sol\":101:8432  contract MasterStorage {... */\n    tag_265:\n      mload(0x40)\n      shl(0xe5, 0x461bcd)\n      dup2\n      mstore\n      0x20\n      0x04\n      dup3\n      add\n      mstore\n      0x0d\n      0x24\n      dup3\n      add\n      mstore\n      shl(0x9a, 0x125b9d985b1a590818dbdd5b9d)\n      0x44\n      dup3\n      add\n      mstore\n      0x64\n      swap1\n      revert\n        /* \"contracts/MasterStorage.sol\":7280:7325  count > 0 && startId + count <= dataIdCounter */\n    tag_263:\n        /* \"contracts/MasterStorage.sol\":7293:7308  startId + count */\n      swap1\n      pop\n      tag_292\n      dup3\n      dup5\n      tag_22\n      jump\t// in\n    tag_292:\n        /* \"contracts/MasterStorage.sol\":7293:7325  startId + count <= dataIdCounter */\n      gt\n      iszero\n        /* \"contracts/MasterStorage.sol\":7280:7325  count > 0 && startId + count <= dataIdCounter */\n      dup4\n      jump(tag_264)\n        /* \"contracts/MasterStorage.sol\":101:8432  contract MasterStorage {... */\n    tag_261:\n      mload(0x40)\n      shl(0xe5, 0x461bcd)\n      dup2\n      mstore\n      0x20\n      0x04\n      dup3\n      add\n      mstore\n      0x10\n      0x24\n      dup3\n      add\n      mstore\n      shl(0x82, 0x125b9d985b1a59081cdd185c9d081251)\n      0x44\n      dup3\n      add\n      mstore\n      0x64\n      swap1\n      revert\n    tag_42:\n      jumpi(tag_109, callvalue)\n      jumpi(tag_109, slt(add(not(0x03), calldatasize), 0x00))\n        /* \"contracts/MasterStorage.sol\":777:797  address public owner */\n      0x08\n        /* \"contracts/MasterStorage.sol\":101:8432  contract MasterStorage {... */\n      sload\n      mload(0x40)\n      sub(shl(0xa0, 0x01), 0x01)\n      swap1\n      swap2\n      and\n      dup2\n      mstore\n      0x20\n      swap1\n      return\n    tag_38:\n      jumpi(tag_109, callvalue)\n      jumpi(tag_109, slt(add(not(0x03), calldatasize), 0x00))\n      0x20\n        /* \"contracts/MasterStorage.sol\":742:770  uint256 public dataIdCounter */\n      0x07\n        /* \"contracts/MasterStorage.sol\":101:8432  contract MasterStorage {... */\n      sload\n      mload(0x40)\n      swap1\n      dup2\n      mstore\n      return\n    tag_36:\n      jumpi(tag_109, callvalue)\n      jumpi(tag_109, slt(add(not(0x03), calldatasize), 0x00))\n      0x20\n      mload(0x40)\n        /* \"contracts/MasterStorage.sol\":850:853  100 */\n      0x64\n        /* \"contracts/MasterStorage.sol\":101:8432  contract MasterStorage {... */\n      dup2\n      mstore\n      return\n    tag_34:\n      jumpi(tag_109, callvalue)\n      jumpi(tag_109, slt(add(not(0x03), calldatasize), 0x40))\n      tag_313\n      tag_12\n      jump\t// in\n    tag_313:\n      0xff\n      calldataload(0x24)\n      swap2\n      and\n      0x00\n      mstore\n        /* \"contracts/MasterStorage.sol\":407:453  mapping(uint8 => uint256[]) public ratingToIds */\n      0x03\n        /* \"contracts/MasterStorage.sol\":101:8432  contract MasterStorage {... */\n      0x20\n      mstore\n      keccak256(0x00, 0x40)\n      dup1\n      sload\n        /* \"contracts/MasterStorage.sol\":407:453  mapping(uint8 => uint256[]) public ratingToIds */\n      dup3\n      lt\n      iszero\n      tag_109\n      jumpi\n        /* \"contracts/MasterStorage.sol\":101:8432  contract MasterStorage {... */\n      0x20\n        /* \"contracts/MasterStorage.sol\":407:453  mapping(uint8 => uint256[]) public ratingToIds */\n      swap2\n      tag_77\n      swap2\n      tag_4\n      jump\t// in\n        /* \"contracts/MasterStorage.sol\":101:8432  contract MasterStorage {... */\n    tag_32:\n      jumpi(tag_109, callvalue)\n      jumpi(tag_109, slt(add(not(0x03), calldatasize), 0x60))\n      calldataload(0x04)\n      calldataload(0x24)\n      calldataload(0x44)\n      0xffffffffffffffff\n      dup2\n      gt\n      tag_109\n      jumpi\n      0x20\n      tag_323\n      dup2\n      swap3\n      calldatasize\n      swap1\n      0x04\n      add\n      tag_7\n      jump\t// in\n    tag_323:\n      mload(0x40)\n      swap3\n      dup2\n      dup5\n      swap3\n      mload\n      swap2\n      dup3\n      swap2\n      add\n      dup4\n      mcopy\n      dup2\n      add\n        /* \"contracts/MasterStorage.sol\":3715:3728  dataTypeToIds */\n      0x02\n        /* \"contracts/MasterStorage.sol\":101:8432  contract MasterStorage {... */\n      dup2\n      mstore\n      sub\n      add\n      swap1\n      keccak256\n      swap2\n      mload(0x40)\n      dup1\n      dup5\n      0x20\n      dup3\n      swap7\n      sload\n      swap4\n      dup5\n      dup2\n      mstore\n      add\n      swap1\n      0x00\n      mstore\n      keccak256(0x00, 0x20)\n      swap3\n      0x00\n    tag_324:\n      dup2\n      dup2\n      lt\n      tag_325\n      jumpi\n      pop\n      pop\n      tag_327\n      swap3\n      pop\n      sub\n      dup5\n      tag_5\n      jump\t// in\n    tag_327:\n        /* \"contracts/MasterStorage.sol\":3749:3805  require(offset <= idList.length, \"Offset out of bounds\") */\n      tag_328\n        /* \"contracts/MasterStorage.sol\":101:8432  contract MasterStorage {... */\n      dup4\n      mload\n        /* \"contracts/MasterStorage.sol\":3757:3780  offset <= idList.length */\n      dup4\n      gt\n      iszero\n        /* \"contracts/MasterStorage.sol\":3749:3805  require(offset <= idList.length, \"Offset out of bounds\") */\n      tag_16\n      jump\t// in\n    tag_328:\n        /* \"contracts/MasterStorage.sol\":101:8432  contract MasterStorage {... */\n      dup1\n        /* \"contracts/MasterStorage.sol\":3832:3854  idList.length - offset */\n      tag_329\n        /* \"contracts/MasterStorage.sol\":101:8432  contract MasterStorage {... */\n      dup4\n      dup6\n      mload\n        /* \"contracts/MasterStorage.sol\":3832:3854  idList.length - offset */\n      tag_17\n      jump\t// in\n    tag_329:\n        /* \"contracts/MasterStorage.sol\":3832:3862  idList.length - offset > limit */\n      gt\n        /* \"contracts/MasterStorage.sol\":3832:3895  idList.length - offset > limit ? limit : idList.length - offset */\n      iszero\n      tag_330\n      jumpi\n      swap2\n    tag_332:\n        /* \"contracts/MasterStorage.sol\":3922:3942  new uint256[](count) */\n      tag_333\n      dup4\n      tag_19\n      jump\t// in\n    tag_333:\n        /* \"contracts/MasterStorage.sol\":3960:3979  new string[](count) */\n      swap1\n      tag_334\n      dup5\n      tag_20\n      jump\t// in\n    tag_334:\n        /* \"contracts/MasterStorage.sol\":4002:4021  new string[](count) */\n      swap3\n      tag_335\n      dup6\n      tag_20\n      jump\t// in\n    tag_335:\n        /* \"contracts/MasterStorage.sol\":4045:4065  new uint256[](count) */\n      tag_336\n      dup7\n      tag_19\n      jump\t// in\n    tag_336:\n        /* \"contracts/MasterStorage.sol\":4086:4104  new uint8[](count) */\n      swap2\n      tag_337\n      dup8\n      tag_19\n      jump\t// in\n    tag_337:\n        /* \"contracts/MasterStorage.sol\":4194:4207  uint256 i = 0 */\n      swap4\n        /* \"contracts/MasterStorage.sol\":101:8432  contract MasterStorage {... */\n      0x00\n        /* \"contracts/MasterStorage.sol\":4209:4218  i < count */\n    tag_338:\n      dup9\n      dup2\n      lt\n      tag_339\n      jumpi\n        /* \"contracts/MasterStorage.sol\":101:8432  contract MasterStorage {... */\n      pop\n      pop\n      pop\n      swap1\n      tag_149\n      swap3\n      swap2\n      mload(0x40)\n      swap6\n      dup7\n      swap6\n      dup7\n      tag_11\n      jump\t// in\n        /* \"contracts/MasterStorage.sol\":4220:4223  i++ */\n    tag_339:\n        /* \"contracts/MasterStorage.sol\":101:8432  contract MasterStorage {... */\n      dup2\n      mload\n      not(0x00)\n      dup2\n      add\n      swap1\n      dup2\n      gt\n      tag_101\n      jumpi\n        /* \"contracts/MasterStorage.sol\":4256:4286  idList.length - 1 - offset - i */\n      tag_190\n        /* \"contracts/MasterStorage.sol\":4256:4282  idList.length - 1 - offset */\n      dup3\n      tag_345\n      dup7\n        /* \"contracts/MasterStorage.sol\":4249:4287  idList[idList.length - 1 - offset - i] */\n      tag_346\n        /* \"contracts/MasterStorage.sol\":4256:4282  idList.length - 1 - offset */\n      swap5\n      tag_17\n      jump\t// in\n    tag_345:\n        /* \"contracts/MasterStorage.sol\":4256:4286  idList.length - 1 - offset - i */\n      tag_17\n      jump\t// in\n        /* \"contracts/MasterStorage.sol\":4249:4287  idList[idList.length - 1 - offset - i] */\n    tag_346:\n        /* \"contracts/MasterStorage.sol\":101:8432  contract MasterStorage {... */\n      mload\n        /* \"contracts/MasterStorage.sol\":4240:4287  ids[i] = idList[idList.length - 1 - offset - i] */\n      tag_347\n      dup3\n      dup10\n      tag_21\n      jump\t// in\n    tag_347:\n        /* \"contracts/MasterStorage.sol\":101:8432  contract MasterStorage {... */\n      mstore\n        /* \"contracts/MasterStorage.sol\":4348:4354  ids[i] */\n      tag_348\n      dup2\n      dup9\n      tag_21\n      jump\t// in\n    tag_348:\n        /* \"contracts/MasterStorage.sol\":101:8432  contract MasterStorage {... */\n      mload\n      0x00\n      swap1\n      dup2\n      mstore\n      mstore(0x20, 0x01)\n      0x40\n      dup2\n      keccak256\n      sload\n      sub(shl(0xa0, 0x01), 0x01)\n      and\n      swap2\n        /* \"contracts/MasterStorage.sol\":4438:4444  ids[i] */\n      swap1\n      tag_349\n      dup3\n      dup11\n      tag_21\n      jump\t// in\n    tag_349:\n        /* \"contracts/MasterStorage.sol\":101:8432  contract MasterStorage {... */\n      mload\n      0x24\n      mload(0x40)\n      dup1\n      swap6\n      dup2\n      swap4\n      shl(0xe0, 0x0178fe3f)\n        /* \"contracts/MasterStorage.sol\":4424:4445  child.getData(ids[i]) */\n      dup4\n      mstore\n        /* \"contracts/MasterStorage.sol\":101:8432  contract MasterStorage {... */\n      0x04\n        /* \"contracts/MasterStorage.sol\":4424:4445  child.getData(ids[i]) */\n      dup4\n      add\n        /* \"contracts/MasterStorage.sol\":101:8432  contract MasterStorage {... */\n      mstore\n        /* \"contracts/MasterStorage.sol\":4424:4445  child.getData(ids[i]) */\n      gas\n      staticcall\n      swap2\n      dup3\n      iszero\n      tag_113\n      jumpi\n        /* \"contracts/MasterStorage.sol\":101:8432  contract MasterStorage {... */\n      0x01\n        /* \"contracts/MasterStorage.sol\":4424:4445  child.getData(ids[i]) */\n      swap3\n        /* \"contracts/MasterStorage.sol\":101:8432  contract MasterStorage {... */\n      0x00\n      swap2\n      0x00\n      swap2\n      0x00\n      swap2\n      0x00\n        /* \"contracts/MasterStorage.sol\":4424:4445  child.getData(ids[i]) */\n      swap2\n      tag_352\n      jumpi\n        /* \"contracts/MasterStorage.sol\":4220:4223  i++ */\n    tag_353:\n        /* \"contracts/MasterStorage.sol\":4371:4445  (data[i], dataTypes[i], timestamps[i], ratings[i]) = child.getData(ids[i]) */\n      pop\n        /* \"contracts/MasterStorage.sol\":101:8432  contract MasterStorage {... */\n      0xff\n        /* \"contracts/MasterStorage.sol\":4371:4445  (data[i], dataTypes[i], timestamps[i], ratings[i]) = child.getData(ids[i]) */\n      tag_354\n      dup7\n      dup14\n      tag_21\n      jump\t// in\n    tag_354:\n        /* \"contracts/MasterStorage.sol\":101:8432  contract MasterStorage {... */\n      swap2\n      and\n      swap1\n      mstore\n        /* \"contracts/MasterStorage.sol\":4371:4445  (data[i], dataTypes[i], timestamps[i], ratings[i]) = child.getData(ids[i]) */\n      tag_355\n      dup5\n      dup11\n      tag_21\n      jump\t// in\n    tag_355:\n        /* \"contracts/MasterStorage.sol\":101:8432  contract MasterStorage {... */\n      mstore\n        /* \"contracts/MasterStorage.sol\":4371:4445  (data[i], dataTypes[i], timestamps[i], ratings[i]) = child.getData(ids[i]) */\n      tag_356\n      dup4\n      dup9\n      tag_21\n      jump\t// in\n    tag_356:\n      mstore\n      tag_357\n      dup3\n      dup12\n      tag_21\n      jump\t// in\n    tag_357:\n      mstore\n        /* \"contracts/MasterStorage.sol\":101:8432  contract MasterStorage {... */\n      add\n        /* \"contracts/MasterStorage.sol\":4194:4207  uint256 i = 0 */\n      jump(tag_338)\n        /* \"contracts/MasterStorage.sol\":4424:4445  child.getData(ids[i]) */\n    tag_352:\n      swap3\n      pop\n      pop\n      pop\n      tag_358\n      swap2\n      pop\n      returndatasize\n      dup1\n        /* \"contracts/MasterStorage.sol\":101:8432  contract MasterStorage {... */\n      0x00\n        /* \"contracts/MasterStorage.sol\":4424:4445  child.getData(ids[i]) */\n      dup4\n      returndatacopy\n      tag_151\n      dup2\n      dup4\n      tag_5\n      jump\t// in\n    tag_358:\n      dup15\n      jump(tag_353)\n        /* \"contracts/MasterStorage.sol\":3832:3895  idList.length - offset > limit ? limit : idList.length - offset */\n    tag_330:\n        /* \"contracts/MasterStorage.sol\":101:8432  contract MasterStorage {... */\n      pop\n        /* \"contracts/MasterStorage.sol\":3873:3895  idList.length - offset */\n      tag_360\n        /* \"contracts/MasterStorage.sol\":101:8432  contract MasterStorage {... */\n      dup2\n      dup4\n      mload\n        /* \"contracts/MasterStorage.sol\":3873:3895  idList.length - offset */\n      tag_17\n      jump\t// in\n    tag_360:\n        /* \"contracts/MasterStorage.sol\":3832:3895  idList.length - offset > limit ? limit : idList.length - offset */\n      swap2\n      jump(tag_332)\n        /* \"contracts/MasterStorage.sol\":101:8432  contract MasterStorage {... */\n    tag_325:\n      dup5\n      sload\n      dup4\n      mstore\n      0x01\n      swap5\n      dup6\n      add\n      swap5\n      dup9\n      swap5\n      pop\n      0x20\n      swap1\n      swap4\n      add\n      swap3\n      add\n      jump(tag_324)\n    tag_30:\n      jumpi(tag_109, callvalue)\n      tag_363\n      calldatasize\n      tag_3\n      jump\t// in\n    tag_363:\n      swap1\n      0x00\n      mstore\n      mstore(0x20, 0x04)\n      keccak256(0x00, 0x40)\n      dup1\n      sload\n        /* \"contracts/MasterStorage.sol\":501:547  mapping(uint256 => uint256[]) public timeToIds */\n      dup3\n      lt\n      iszero\n      tag_109\n      jumpi\n        /* \"contracts/MasterStorage.sol\":101:8432  contract MasterStorage {... */\n      0x20\n        /* \"contracts/MasterStorage.sol\":501:547  mapping(uint256 => uint256[]) public timeToIds */\n      swap2\n      tag_77\n      swap2\n      tag_4\n      jump\t// in\n        /* \"contracts/MasterStorage.sol\":101:8432  contract MasterStorage {... */\n    tag_28:\n      jumpi(tag_109, callvalue)\n      jumpi(tag_109, slt(add(not(0x03), calldatasize), 0x20))\n      calldataload(0x04)\n      0x00\n      dup2\n      dup2\n      mstore\n      mstore(0x20, 0x01)\n      0x40\n      dup2\n      keccak256\n      sload\n      sub(shl(0xa0, 0x01), 0x01)\n      and\n      swap2\n        /* \"contracts/MasterStorage.sol\":3295:3350  require(address(child) != address(0), \"Data not found\") */\n      tag_144\n        /* \"contracts/MasterStorage.sol\":3303:3331  address(child) != address(0) */\n      dup4\n      iszero\n      iszero\n        /* \"contracts/MasterStorage.sol\":3295:3350  require(address(child) != address(0), \"Data not found\") */\n      tag_13\n      jump\t// in\n        /* \"contracts/MasterStorage.sol\":101:8432  contract MasterStorage {... */\n    tag_1:\n      dup1\n      mload\n      dup1\n      dup4\n      mstore\n      0x20\n      swap3\n      swap2\n      dup2\n      swap1\n      dup5\n      add\n      dup5\n      dup5\n      add\n      mcopy\n      0x00\n      dup3\n      dup3\n      add\n      dup5\n      add\n      mstore\n      0x1f\n      add\n      not(0x1f)\n      and\n      add\n      add\n      swap1\n      jump\t// out\n    tag_2:\n      swap3\n      swap5\n      swap4\n      tag_379\n      0x60\n      swap4\n      tag_380\n      0xff\n      swap5\n      0x80\n      dup9\n      mstore\n      0x80\n      dup9\n      add\n      swap1\n      tag_1\n      jump\t// in\n    tag_380:\n      swap1\n      dup7\n      dup3\n      sub\n      0x20\n      dup9\n      add\n      mstore\n      tag_1\n      jump\t// in\n    tag_379:\n      swap6\n      0x40\n      dup6\n      add\n      mstore\n      and\n      swap2\n      add\n      mstore\n      jump\t// out\n    tag_3:\n      0x40\n      swap1\n      not(0x03)\n      add\n      slt\n      tag_109\n      jumpi\n      calldataload(0x04)\n      swap1\n      calldataload(0x24)\n      swap1\n      jump\t// out\n    tag_4:\n      dup1\n      sload\n      dup3\n      lt\n      iszero\n      tag_383\n      jumpi\n      0x00\n      mstore\n      keccak256(0x00, 0x20)\n      add\n      swap1\n      0x00\n      swap1\n      jump\t// out\n    tag_383:\n      mstore(0x00, shl(0xe0, 0x4e487b71))\n      mstore(0x04, 0x32)\n      revert(0x00, 0x24)\n    tag_5:\n      swap1\n      0x1f\n        /* \"contracts/MasterStorage.sol\":2910:2932  abi.encodePacked(data) */\n      dup1\n      not\n        /* \"contracts/MasterStorage.sol\":101:8432  contract MasterStorage {... */\n      swap2\n      add\n      and\n      dup2\n      add\n      swap1\n      dup2\n      lt\n      0xffffffffffffffff\n      dup3\n      gt\n      or\n      tag_128\n      jumpi\n      0x40\n      mstore\n      jump\t// out\n    tag_6:\n      0xffffffffffffffff\n      dup2\n      gt\n      tag_128\n      jumpi\n      0x1f\n      add\n      not(0x1f)\n      and\n      0x20\n      add\n      swap1\n      jump\t// out\n    tag_7:\n      dup2\n      0x1f\n      dup3\n      add\n      slt\n      iszero\n      tag_109\n      jumpi\n      dup1\n      calldataload\n      swap1\n      tag_391\n      dup3\n      tag_6\n      jump\t// in\n    tag_391:\n      swap3\n      tag_392\n      mload(0x40)\n      swap5\n      dup6\n      tag_5\n      jump\t// in\n    tag_392:\n      dup3\n      dup5\n      mstore\n      0x20\n      dup4\n      dup4\n      add\n      add\n      gt\n      tag_109\n      jumpi\n      dup2\n      0x00\n      swap3\n      0x20\n      dup1\n      swap4\n      add\n      dup4\n      dup7\n      add\n      calldatacopy\n      dup4\n      add\n      add\n      mstore\n      swap1\n      jump\t// out\n    tag_8:\n      swap1\n      0x20\n      dup1\n      dup4\n      mload\n      swap3\n      dup4\n      dup2\n      mstore\n      add\n      swap3\n      add\n      swap1\n      0x00\n    tag_395:\n      dup2\n      dup2\n      lt\n      tag_396\n      jumpi\n      pop\n      pop\n      pop\n      swap1\n      jump\t// out\n    tag_396:\n      dup3\n      mload\n      dup5\n      mstore\n      0x20\n      swap4\n      dup5\n      add\n      swap4\n      swap1\n      swap3\n      add\n      swap2\n      0x01\n      add\n      jump(tag_395)\n    tag_9:\n      swap1\n      dup1\n      0x20\n      dup4\n      mload\n      swap2\n      dup3\n      dup2\n      mstore\n      add\n      swap2\n      0x20\n      dup1\n      dup4\n      0x05\n      shl\n      dup4\n      add\n      add\n      swap5\n      add\n      swap3\n      0x00\n      swap2\n    tag_398:\n      dup4\n      dup4\n      lt\n      tag_399\n      jumpi\n      pop\n      pop\n      pop\n      pop\n      pop\n      swap1\n      jump\t// out\n    tag_399:\n        /* \"contracts/MasterStorage.sol\":2910:2932  abi.encodePacked(data) */\n      swap1\n      swap2\n      swap3\n      swap4\n      swap5\n        /* \"contracts/MasterStorage.sol\":101:8432  contract MasterStorage {... */\n      0x20\n        /* \"contracts/MasterStorage.sol\":2910:2932  abi.encodePacked(data) */\n      dup1\n        /* \"contracts/MasterStorage.sol\":101:8432  contract MasterStorage {... */\n      tag_401\n      0x01\n        /* \"contracts/MasterStorage.sol\":2910:2932  abi.encodePacked(data) */\n      swap4\n      not(0x1f)\n        /* \"contracts/MasterStorage.sol\":101:8432  contract MasterStorage {... */\n      dup7\n      dup3\n      sub\n      add\n      dup8\n      mstore\n      dup10\n      mload\n      tag_1\n      jump\t// in\n    tag_401:\n      swap8\n      add\n      swap4\n      add\n      swap4\n      add\n      swap2\n      swap4\n      swap3\n      swap1\n      jump(tag_398)\n    tag_10:\n      swap1\n      0x20\n      dup1\n      dup4\n      mload\n      swap3\n      dup4\n      dup2\n      mstore\n      add\n      swap3\n      add\n      swap1\n      0x00\n    tag_402:\n      dup2\n      dup2\n      lt\n      tag_403\n      jumpi\n      pop\n      pop\n      pop\n      swap1\n      jump\t// out\n    tag_403:\n      dup3\n      mload\n      0xff\n      and\n      dup5\n      mstore\n      0x20\n      swap4\n      dup5\n      add\n      swap4\n      swap1\n      swap3\n      add\n      swap2\n      0x01\n      add\n      jump(tag_402)\n    tag_11:\n      swap4\n      swap1\n      tag_405\n      swap6\n      swap4\n      tag_406\n      tag_407\n      swap5\n      tag_408\n      tag_409\n      swap5\n      0xa0\n      dup11\n      mstore\n      0xa0\n      dup11\n      add\n      swap1\n      tag_8\n      jump\t// in\n    tag_408:\n      swap1\n      dup9\n      dup3\n      sub\n      0x20\n      dup11\n      add\n      mstore\n      tag_9\n      jump\t// in\n    tag_406:\n      swap1\n      dup7\n      dup3\n      sub\n      0x40\n      dup9\n      add\n      mstore\n      tag_9\n      jump\t// in\n    tag_409:\n      swap1\n      dup5\n      dup3\n      sub\n      0x60\n      dup7\n      add\n      mstore\n      tag_8\n      jump\t// in\n    tag_407:\n      swap2\n      0x80\n      dup2\n      dup5\n      sub\n      swap2\n      add\n      mstore\n      tag_10\n      jump\t// in\n    tag_405:\n      swap1\n      jump\t// out\n    tag_12:\n      calldataload(0x04)\n      swap1\n      0xff\n      dup3\n      and\n      dup3\n      sub\n      tag_109\n      jumpi\n      jump\t// out\n    tag_13:\n      iszero\n      tag_412\n      jumpi\n      jump\t// out\n    tag_412:\n      mload(0x40)\n      shl(0xe5, 0x461bcd)\n      dup2\n      mstore\n      0x20\n      0x04\n      dup3\n      add\n      mstore\n      0x0e\n      0x24\n      dup3\n      add\n      mstore\n      shl(0x92, 0x11185d18481b9bdd08199bdd5b99)\n      0x44\n      dup3\n      add\n      mstore\n      0x64\n      swap1\n      revert\n    tag_14:\n      dup2\n      0x1f\n      dup3\n      add\n      slt\n      iszero\n      tag_109\n      jumpi\n      dup1\n      mload\n      swap1\n      tag_416\n      dup3\n      tag_6\n      jump\t// in\n    tag_416:\n      swap3\n      tag_417\n      mload(0x40)\n      swap5\n      dup6\n      tag_5\n      jump\t// in\n    tag_417:\n      dup3\n      dup5\n      mstore\n      0x20\n      dup4\n      dup4\n      add\n      add\n      gt\n      tag_109\n      jumpi\n      dup2\n      0x00\n      swap3\n      0x20\n      dup1\n      swap4\n      add\n      dup4\n      dup7\n      add\n      mcopy\n      dup4\n      add\n      add\n      mstore\n      swap1\n      jump\t// out\n    tag_15:\n      swap2\n      swap1\n      swap2\n      0x80\n      dup2\n      dup5\n      sub\n      slt\n      tag_109\n      jumpi\n      dup1\n      mload\n      0xffffffffffffffff\n      dup2\n      gt\n      tag_109\n      jumpi\n      dup4\n      tag_424\n      swap2\n      dup4\n      add\n      tag_14\n      jump\t// in\n    tag_424:\n      swap3\n      0x20\n      dup3\n      add\n      mload\n      swap1\n      0xffffffffffffffff\n      dup3\n      gt\n      tag_109\n      jumpi\n      tag_427\n      swap2\n      dup4\n      add\n      tag_14\n      jump\t// in\n    tag_427:\n      swap2\n      0x60\n      0x40\n      dup4\n      add\n      mload\n      swap3\n      add\n      mload\n      0xff\n      dup2\n      and\n      dup2\n      sub\n      tag_109\n      jumpi\n      swap1\n      jump\t// out\n    tag_16:\n      iszero\n      tag_430\n      jumpi\n      jump\t// out\n    tag_430:\n      mload(0x40)\n      shl(0xe5, 0x461bcd)\n      dup2\n      mstore\n      0x20\n      0x04\n      dup3\n      add\n      mstore\n      0x14\n      0x24\n      dup3\n      add\n      mstore\n      shl(0x60, 0x4f6666736574206f7574206f6620626f756e6473)\n      0x44\n      dup3\n      add\n      mstore\n      0x64\n      swap1\n      revert\n    tag_17:\n      swap2\n      swap1\n      dup3\n      sub\n      swap2\n      dup3\n      gt\n      tag_101\n      jumpi\n      jump\t// out\n    tag_18:\n      0xffffffffffffffff\n      dup2\n      gt\n      tag_128\n      jumpi\n      0x05\n      shl\n      0x20\n      add\n      swap1\n      jump\t// out\n    tag_19:\n      swap1\n      tag_436\n      dup3\n      tag_18\n      jump\t// in\n    tag_436:\n      tag_437\n      mload(0x40)\n      swap2\n      dup3\n      tag_5\n      jump\t// in\n    tag_437:\n      dup3\n      dup2\n      mstore\n      dup1\n        /* \"contracts/MasterStorage.sol\":2910:2932  abi.encodePacked(data) */\n      swap3\n        /* \"contracts/MasterStorage.sol\":101:8432  contract MasterStorage {... */\n      tag_438\n        /* \"contracts/MasterStorage.sol\":2910:2932  abi.encodePacked(data) */\n      not(0x1f)\n        /* \"contracts/MasterStorage.sol\":101:8432  contract MasterStorage {... */\n      swap2\n      tag_18\n      jump\t// in\n    tag_438:\n      add\n      swap1\n      0x20\n      calldatasize\n      swap2\n      add\n      calldatacopy\n      jump\t// out\n    tag_20:\n      swap1\n      tag_439\n      dup3\n      tag_18\n      jump\t// in\n    tag_439:\n      tag_440\n      mload(0x40)\n      swap2\n      dup3\n      tag_5\n      jump\t// in\n    tag_440:\n      dup3\n      dup2\n      mstore\n      dup1\n        /* \"contracts/MasterStorage.sol\":2910:2932  abi.encodePacked(data) */\n      swap3\n        /* \"contracts/MasterStorage.sol\":101:8432  contract MasterStorage {... */\n      tag_441\n        /* \"contracts/MasterStorage.sol\":2910:2932  abi.encodePacked(data) */\n      not(0x1f)\n        /* \"contracts/MasterStorage.sol\":101:8432  contract MasterStorage {... */\n      swap2\n      tag_18\n      jump\t// in\n    tag_441:\n      add\n      swap1\n      0x00\n    tag_442:\n      dup3\n      dup2\n      lt\n      tag_443\n      jumpi\n      pop\n      pop\n      pop\n      jump\t// out\n    tag_443:\n      dup1\n      0x60\n      0x20\n      dup1\n      swap4\n      dup6\n      add\n      add\n      mstore\n      add\n      jump(tag_442)\n    tag_21:\n      dup1\n      mload\n      dup3\n      lt\n      iszero\n      tag_383\n      jumpi\n      0x20\n      swap2\n      0x05\n      shl\n      add\n      add\n      swap1\n      jump\t// out\n    tag_22:\n      swap2\n      swap1\n      dup3\n      add\n      dup1\n      swap3\n      gt\n      tag_101\n      jumpi\n      jump\t// out\n    tag_23:\n      iszero\n      tag_449\n      jumpi\n      jump\t// out\n    tag_449:\n      mload(0x40)\n      shl(0xe5, 0x461bcd)\n      dup2\n      mstore\n      0x20\n      0x04\n      dup3\n      add\n      mstore\n      0x0e\n      0x24\n      dup3\n      add\n      mstore\n      shl(0x90, 0x496e76616c696420726174696e67)\n      0x44\n      dup3\n      add\n      mstore\n      0x64\n      swap1\n      revert\n    tag_24:\n      dup1\n      sload\n      0x010000000000000000\n      dup2\n      lt\n      iszero\n      tag_128\n      jumpi\n      tag_453\n      swap2\n      0x01\n      dup3\n      add\n      dup2\n      sstore\n      tag_4\n      jump\t// in\n    tag_453:\n      dup2\n      swap3\n      swap2\n      sload\n      swap1\n      0x03\n      shl\n      swap2\n      dup3\n      shl\n      swap2\n      not(0x00)\n      swap1\n      shl\n      not\n      and\n      or\n      swap1\n      sstore\n      jump\t// out\n    tag_25:\n      not(0x00)\n      dup2\n      eq\n      tag_101\n      jumpi\n      0x01\n      add\n      swap1\n      jump\t// out\n    stop\n\n    sub_0: assembly {\n            /* \"contracts/ChildStorage.sol\":61:1703  contract ChildStorage {... */\n          0x80\n          jumpi(tag_7, callvalue)\n          0x1f\n          bytecodeSize\n          codesize\n          dup2\n          swap1\n          sub\n          swap2\n          dup3\n          add\n          not(0x1f)\n          and\n          dup4\n          add\n          swap2\n          sub(shl(0x40, 0x01), 0x01)\n          dup4\n          gt\n          dup5\n          dup5\n          lt\n          or\n          tag_3\n          jumpi\n          dup1\n          dup5\n          swap3\n          0x20\n          swap5\n          0x40\n          mstore\n          dup4\n          codecopy\n          dup2\n          add\n          sub\n          slt\n          tag_7\n          jumpi\n          mload\n          sub(shl(0xa0, 0x01), 0x01)\n          dup2\n          and\n          swap1\n          dup2\n          swap1\n          sub\n          tag_7\n          jumpi\n            /* \"contracts/ChildStorage.sol\":698:730  masterContract = _masterContract */\n          0x02\n            /* \"contracts/ChildStorage.sol\":61:1703  contract ChildStorage {... */\n          dup1\n          sload\n          not(sub(shl(0xa0, 0x01), 0x01))\n          and\n          swap2\n          swap1\n          swap2\n          or\n          swap1\n          sstore\n          sstore(0x01, 0x00)\n          mload(0x40)\n          dataSize(sub_0)\n          swap1\n          dup2\n          dataOffset(sub_0)\n          dup3\n          codecopy\n          return\n        tag_7:\n          0x00\n          dup1\n          revert\n        tag_3:\n          mstore(0x00, shl(0xe0, 0x4e487b71))\n          mstore(0x04, 0x41)\n          revert(0x00, 0x24)\n        stop\n\n        sub_0: assembly {\n                /* \"contracts/ChildStorage.sol\":61:1703  contract ChildStorage {... */\n              0x80\n              dup1\n              0x40\n              mstore\n              jumpi(tag_8, iszero(lt(calldatasize, 0x04)))\n              0x00\n              dup1\n              revert\n            tag_8:\n              shr(0xe0, calldataload(0x00))\n              swap1\n              dup2\n              0x0178fe3f\n              eq\n              tag_10\n              jumpi\n              pop\n              dup1\n              0x5da40c47\n              eq\n              tag_12\n              jumpi\n              dup1\n              0xa0b0607f\n              eq\n              tag_14\n              jumpi\n              dup1\n              0xbabd3d9a\n              eq\n              tag_16\n              jumpi\n              dup1\n              0xcd446e22\n              eq\n              tag_18\n              jumpi\n              dup1\n              0xda6ea12a\n              eq\n              tag_20\n              jumpi\n              0xfd1eb1fe\n              eq\n              tag_22\n              jumpi\n              0x00\n              dup1\n              revert\n            tag_22:\n              jumpi(tag_34, callvalue)\n              jumpi(tag_34, slt(add(not(0x03), calldatasize), 0xa0))\n              calldataload(0x24)\n              0xffffffffffffffff\n              dup2\n              gt\n              tag_34\n              jumpi\n              tag_30\n              swap1\n              calldatasize\n              swap1\n              0x04\n              add\n              tag_7\n              jump\t// in\n            tag_30:\n              calldataload(0x44)\n              0xffffffffffffffff\n              dup2\n              gt\n              tag_34\n              jumpi\n              tag_33\n              swap1\n              calldatasize\n              swap1\n              0x04\n              add\n              tag_7\n              jump\t// in\n            tag_33:\n              swap1\n              calldataload(0x84)\n              swap2\n              0xff\n              dup4\n              and\n              dup1\n              swap4\n              sub\n              tag_34\n              jumpi\n                /* \"contracts/ChildStorage.sol\":574:588  masterContract */\n              0x02\n                /* \"contracts/ChildStorage.sol\":61:1703  contract ChildStorage {... */\n              sload\n              sub(shl(0xa0, 0x01), 0x01)\n              and\n                /* \"contracts/ChildStorage.sol\":560:570  msg.sender */\n              caller\n                /* \"contracts/ChildStorage.sol\":560:588  msg.sender == masterContract */\n              sub\n                /* \"contracts/ChildStorage.sol\":61:1703  contract ChildStorage {... */\n              tag_36\n              jumpi\n                /* \"contracts/ChildStorage.sol\":470:474  1000 */\n              0x03e8\n                /* \"contracts/ChildStorage.sol\":61:1703  contract ChildStorage {... */\n              sload(0x01)\n                /* \"contracts/ChildStorage.sol\":969:989  dataCount < MAX_DATA */\n              lt\n                /* \"contracts/ChildStorage.sol\":61:1703  contract ChildStorage {... */\n              iszero\n              tag_38\n              jumpi\n                /* \"contracts/ChildStorage.sol\":470:474  1000 */\n              0x03e8\n                /* \"contracts/ChildStorage.sol\":61:1703  contract ChildStorage {... */\n              dup3\n              mload\n                /* \"contracts/ChildStorage.sol\":1028:1054  bytes(data).length <= 1000 */\n              gt\n                /* \"contracts/ChildStorage.sol\":61:1703  contract ChildStorage {... */\n              tag_40\n              jumpi\n                /* \"contracts/ChildStorage.sol\":1117:1119  50 */\n              0x32\n                /* \"contracts/ChildStorage.sol\":61:1703  contract ChildStorage {... */\n              dup2\n              mload\n                /* \"contracts/ChildStorage.sol\":1091:1119  bytes(dataType).length <= 50 */\n              gt\n                /* \"contracts/ChildStorage.sol\":61:1703  contract ChildStorage {... */\n              tag_42\n              jumpi\n                /* \"contracts/ChildStorage.sol\":1171:1172  5 */\n              0x05\n                /* \"contracts/ChildStorage.sol\":1161:1172  rating <= 5 */\n              dup4\n              gt\n                /* \"contracts/ChildStorage.sol\":61:1703  contract ChildStorage {... */\n              tag_44\n              jumpi\n              mload(0x40)\n              swap2\n              tag_46\n              dup4\n              tag_4\n              jump\t// in\n            tag_46:\n              dup3\n              mstore\n              0x20\n                /* \"contracts/ChildStorage.sol\":1218:1262  DataEntry(data, dataType, timestamp, rating) */\n              dup3\n              add\n                /* \"contracts/ChildStorage.sol\":61:1703  contract ChildStorage {... */\n              swap1\n              dup2\n              mstore\n              0x40\n                /* \"contracts/ChildStorage.sol\":1218:1262  DataEntry(data, dataType, timestamp, rating) */\n              dup3\n              add\n                /* \"contracts/ChildStorage.sol\":61:1703  contract ChildStorage {... */\n              swap1\n              calldataload(0x64)\n              dup3\n              mstore\n              0x60\n                /* \"contracts/ChildStorage.sol\":1218:1262  DataEntry(data, dataType, timestamp, rating) */\n              dup4\n              add\n                /* \"contracts/ChildStorage.sol\":61:1703  contract ChildStorage {... */\n              swap4\n              dup5\n              mstore\n              mstore(0x00, calldataload(0x04))\n              mstore(0x20, 0x00)\n              keccak256(0x00, 0x40)\n              swap3\n              mload\n              dup1\n              mload\n              swap1\n              0xffffffffffffffff\n              dup3\n              gt\n              tag_57\n              jumpi\n              dup2\n              swap1\n              tag_49\n              dup7\n              sload\n              tag_3\n              jump\t// in\n            tag_49:\n              0x1f\n              dup2\n              gt\n              tag_50\n              jumpi\n            tag_51:\n              pop\n              0x20\n              swap1\n              0x1f\n              dup4\n              gt\n              0x01\n              eq\n              tag_52\n              jumpi\n              0x00\n              swap3\n              tag_54\n              jumpi\n            tag_55:\n              pop\n              pop\n              dup2\n              0x01\n              shl\n              swap2\n              not(0x00)\n              swap1\n              0x03\n              shl\n              shr\n              not\n              and\n              or\n              dup4\n              sstore\n            tag_56:\n              mload\n              dup1\n              mload\n              0x01\n              dup5\n              add\n              swap2\n              0xffffffffffffffff\n              dup3\n              gt\n              tag_57\n              jumpi\n              tag_59\n              dup4\n              sload\n              tag_3\n              jump\t// in\n            tag_59:\n              0x1f\n              dup2\n              gt\n              tag_60\n              jumpi\n            tag_61:\n              pop\n              0x20\n              swap1\n              0x1f\n              dup4\n              gt\n              0x01\n              eq\n              tag_62\n              jumpi\n              swap2\n              dup1\n              0xff\n              swap7\n              swap5\n              swap3\n              0x03\n              swap7\n              swap5\n              0x00\n              swap3\n              tag_64\n              jumpi\n            tag_65:\n              pop\n              pop\n              dup2\n              0x01\n              shl\n              swap2\n              not(0x00)\n              swap1\n              dup8\n              shl\n              shr\n              not\n              and\n              or\n              swap1\n              sstore\n            tag_66:\n              mload\n                /* \"contracts/ChildStorage.sol\":574:588  masterContract */\n              0x02\n                /* \"contracts/ChildStorage.sol\":61:1703  contract ChildStorage {... */\n              dup3\n              add\n              sstore\n              add\n              swap2\n              mload\n              and\n              not(0xff)\n              dup3\n              sload\n              and\n              or\n              swap1\n              sstore\n              sload(0x01)\n              not(0x00)\n              dup2\n              eq\n              tag_67\n              jumpi\n              0x01\n              add\n              0x01\n              sstore\n              0x00\n              dup1\n              return\n            tag_67:\n              mstore(0x00, shl(0xe0, 0x4e487b71))\n              mstore(0x04, 0x11)\n              revert(0x00, 0x24)\n            tag_64:\n              add\n              mload\n              swap1\n              pop\n              0x00\n              dup1\n              jump(tag_65)\n            tag_62:\n              swap1\n              not(0x1f)\n              dup4\n              and\n              swap2\n              dup5\n              0x00\n              mstore\n              dup2\n              0x00\n              keccak256\n              swap3\n              0x00\n            tag_69:\n              dup2\n              dup2\n              lt\n              tag_70\n              jumpi\n              pop\n              swap3\n              0x01\n              swap3\n              dup6\n              swap3\n              0x03\n              swap9\n              swap7\n              0xff\n              swap11\n              swap9\n              swap7\n              lt\n              tag_72\n              jumpi\n            tag_73:\n              pop\n              pop\n              pop\n              dup2\n              shl\n              add\n              swap1\n              sstore\n              jump(tag_66)\n            tag_72:\n              add\n              mload\n              not(0x00)\n              dup4\n              dup10\n              shl\n              0xf8\n              and\n              shr\n              not\n              and\n              swap1\n              sstore\n              0x00\n              dup1\n              dup1\n              jump(tag_73)\n            tag_70:\n              swap3\n              swap4\n              0x20\n              0x01\n              dup2\n              swap3\n              dup8\n              dup7\n              add\n              mload\n              dup2\n              sstore\n              add\n              swap6\n              add\n              swap4\n              add\n              jump(tag_69)\n            tag_60:\n              dup4\n              0x00\n              mstore\n              keccak256(0x00, 0x20)\n              0x1f\n              dup5\n              add\n                /* \"contracts/ChildStorage.sol\":1171:1172  5 */\n              0x05\n                /* \"contracts/ChildStorage.sol\":61:1703  contract ChildStorage {... */\n              shr\n              dup2\n              add\n              swap2\n              0x20\n              dup6\n              lt\n              tag_74\n              jumpi\n            tag_75:\n              0x1f\n              add\n                /* \"contracts/ChildStorage.sol\":1171:1172  5 */\n              0x05\n                /* \"contracts/ChildStorage.sol\":61:1703  contract ChildStorage {... */\n              shr\n              add\n              swap1\n            tag_76:\n              dup2\n              dup2\n              lt\n              tag_77\n              jumpi\n              pop\n              jump(tag_61)\n            tag_77:\n              0x00\n              dup2\n              sstore\n              0x01\n              add\n              jump(tag_76)\n            tag_74:\n              swap1\n              swap2\n              pop\n              dup2\n              swap1\n              jump(tag_75)\n            tag_57:\n              mstore(0x00, shl(0xe0, 0x4e487b71))\n              mstore(0x04, 0x41)\n              revert(0x00, 0x24)\n            tag_54:\n              add\n              mload\n              swap1\n              pop\n              0x00\n              dup1\n              jump(tag_55)\n            tag_52:\n              0x00\n              dup8\n              dup2\n              mstore\n              dup3\n              dup2\n              keccak256\n              swap4\n              pop\n              not(0x1f)\n              dup6\n              and\n              swap1\n            tag_79:\n              dup2\n              dup2\n              lt\n              tag_80\n              jumpi\n              pop\n              swap1\n              dup5\n              0x01\n              swap6\n              swap5\n              swap4\n              swap3\n              lt\n              tag_82\n              jumpi\n            tag_83:\n              pop\n              pop\n              pop\n              dup2\n              shl\n              add\n              dup4\n              sstore\n              jump(tag_56)\n            tag_82:\n              add\n              mload\n              not(0x00)\n              0xf8\n              dup5\n              0x03\n              shl\n              and\n              shr\n              not\n              and\n              swap1\n              sstore\n              0x00\n              dup1\n              dup1\n              jump(tag_83)\n            tag_80:\n              swap3\n              swap4\n              0x20\n              0x01\n              dup2\n              swap3\n              dup8\n              dup7\n              add\n              mload\n              dup2\n              sstore\n              add\n              swap6\n              add\n              swap4\n              add\n              jump(tag_79)\n            tag_50:\n              swap1\n              swap2\n              pop\n              dup6\n              0x00\n              mstore\n              keccak256(0x00, 0x20)\n              0x1f\n              dup5\n              add\n                /* \"contracts/ChildStorage.sol\":1171:1172  5 */\n              0x05\n                /* \"contracts/ChildStorage.sol\":61:1703  contract ChildStorage {... */\n              shr\n              dup2\n              add\n              swap2\n              0x20\n              dup6\n              lt\n              tag_84\n              jumpi\n            tag_85:\n              swap1\n              0x1f\n              dup6\n              swap5\n              swap4\n              swap3\n              add\n                /* \"contracts/ChildStorage.sol\":1171:1172  5 */\n              0x05\n                /* \"contracts/ChildStorage.sol\":61:1703  contract ChildStorage {... */\n              shr\n              add\n              swap1\n            tag_86:\n              dup2\n              dup2\n              lt\n              tag_87\n              jumpi\n              pop\n              jump(tag_51)\n            tag_87:\n              0x00\n              dup2\n              sstore\n              dup5\n              swap4\n              pop\n              0x01\n              add\n              jump(tag_86)\n            tag_84:\n              swap1\n              swap2\n              pop\n              dup2\n              swap1\n              jump(tag_85)\n            tag_44:\n              mload(0x40)\n              shl(0xe5, 0x461bcd)\n              dup2\n              mstore\n              0x20\n              0x04\n              dup3\n              add\n              mstore\n              0x0e\n              0x24\n              dup3\n              add\n              mstore\n              shl(0x90, 0x496e76616c696420726174696e67)\n              0x44\n              dup3\n              add\n              mstore\n              0x64\n              swap1\n              revert\n            tag_42:\n              mload(0x40)\n              shl(0xe5, 0x461bcd)\n              dup2\n              mstore\n              0x20\n              0x04\n              dup3\n              add\n              mstore\n              0x12\n              0x24\n              dup3\n              add\n              mstore\n              shl(0x70, 0x44617461207479706520746f6f206c6f6e67)\n              0x44\n              dup3\n              add\n              mstore\n              0x64\n              swap1\n              revert\n            tag_40:\n              mload(0x40)\n              shl(0xe5, 0x461bcd)\n              dup2\n              mstore\n              0x20\n              0x04\n              dup3\n              add\n              mstore\n              0x0d\n              0x24\n              dup3\n              add\n              mstore\n              shl(0x98, 0x4461746120746f6f206c6f6e67)\n              0x44\n              dup3\n              add\n              mstore\n              0x64\n              swap1\n              revert\n            tag_38:\n              mload(0x40)\n              shl(0xe5, 0x461bcd)\n              dup2\n              mstore\n              0x20\n              0x04\n              dup3\n              add\n              mstore\n              0x0f\n              0x24\n              dup3\n              add\n              mstore\n              shl(0x8a, 0x14dd1bdc9859d9481a5cc8199d5b1b)\n              0x44\n              dup3\n              add\n              mstore\n              0x64\n              swap1\n              revert\n            tag_36:\n              mload(0x40)\n              shl(0xe5, 0x461bcd)\n              dup2\n              mstore\n              0x20\n              0x04\n              dup3\n              add\n              mstore\n              0x1d\n              0x24\n              dup3\n              add\n              mstore\n              0x4f6e6c79204d617374657220436f6e74726163742063616e2063616c6c000000\n              0x44\n              dup3\n              add\n              mstore\n              0x64\n              swap1\n              revert\n            tag_34:\n              0x00\n              dup1\n              revert\n            tag_20:\n              jumpi(tag_34, callvalue)\n              jumpi(tag_34, slt(add(not(0x03), calldatasize), 0x20))\n              mstore(0x00, calldataload(0x04))\n              mstore(0x20, 0x00)\n              keccak256(0x00, 0x40)\n                /* \"contracts/ChildStorage.sol\":351:397  mapping(uint256 => DataEntry) public dataStore */\n              tag_93\n              dup2\n              tag_6\n              jump\t// in\n            tag_93:\n                /* \"contracts/ChildStorage.sol\":61:1703  contract ChildStorage {... */\n              tag_94\n                /* \"contracts/ChildStorage.sol\":351:397  mapping(uint256 => DataEntry) public dataStore */\n              tag_95\n                /* \"contracts/ChildStorage.sol\":61:1703  contract ChildStorage {... */\n              0x01\n                /* \"contracts/ChildStorage.sol\":351:397  mapping(uint256 => DataEntry) public dataStore */\n              dup5\n              add\n              tag_6\n              jump\t// in\n            tag_95:\n              swap3\n                /* \"contracts/ChildStorage.sol\":61:1703  contract ChildStorage {... */\n              0xff\n                /* \"contracts/ChildStorage.sol\":351:397  mapping(uint256 => DataEntry) public dataStore */\n              0x03\n              0x02\n              dup4\n              add\n                /* \"contracts/ChildStorage.sol\":61:1703  contract ChildStorage {... */\n              sload\n                /* \"contracts/ChildStorage.sol\":351:397  mapping(uint256 => DataEntry) public dataStore */\n              swap3\n              add\n                /* \"contracts/ChildStorage.sol\":61:1703  contract ChildStorage {... */\n              sload\n              and\n              swap1\n              mload(0x40)\n              swap5\n              dup6\n              swap5\n              dup6\n              tag_2\n              jump\t// in\n            tag_94:\n              sub\n              swap1\n              return\n            tag_18:\n              jumpi(tag_34, callvalue)\n              jumpi(tag_34, slt(add(not(0x03), calldatasize), 0x00))\n                /* \"contracts/ChildStorage.sol\":481:510  address public masterContract */\n              0x02\n                /* \"contracts/ChildStorage.sol\":61:1703  contract ChildStorage {... */\n              sload\n              mload(0x40)\n              sub(shl(0xa0, 0x01), 0x01)\n              swap1\n              swap2\n              and\n              dup2\n              mstore\n              0x20\n              swap1\n              return\n            tag_16:\n              jumpi(tag_34, callvalue)\n              jumpi(tag_34, slt(add(not(0x03), calldatasize), 0x00))\n              0x20\n                /* \"contracts/ChildStorage.sol\":470:474  1000 */\n              0x03e8\n                /* \"contracts/ChildStorage.sol\":1365:1374  dataCount */\n              0x01\n                /* \"contracts/ChildStorage.sol\":61:1703  contract ChildStorage {... */\n              sload\n                /* \"contracts/ChildStorage.sol\":1365:1386  dataCount >= MAX_DATA */\n              lt\n              iszero\n                /* \"contracts/ChildStorage.sol\":61:1703  contract ChildStorage {... */\n              mload(0x40)\n              swap1\n              dup2\n              mstore\n              return\n            tag_14:\n              jumpi(tag_34, callvalue)\n              jumpi(tag_34, slt(add(not(0x03), calldatasize), 0x00))\n              0x20\n              mload(0x40)\n                /* \"contracts/ChildStorage.sol\":470:474  1000 */\n              0x03e8\n                /* \"contracts/ChildStorage.sol\":61:1703  contract ChildStorage {... */\n              dup2\n              mstore\n              return\n            tag_12:\n              jumpi(tag_34, callvalue)\n              jumpi(tag_34, slt(add(not(0x03), calldatasize), 0x00))\n              0x20\n                /* \"contracts/ChildStorage.sol\":404:428  uint256 public dataCount */\n              0x01\n                /* \"contracts/ChildStorage.sol\":61:1703  contract ChildStorage {... */\n              sload\n              mload(0x40)\n              swap1\n              dup2\n              mstore\n              return\n            tag_10:\n              jumpi(tag_34, callvalue)\n              jumpi(tag_34, slt(add(not(0x03), calldatasize), 0x20))\n              mstore(0x00, calldataload(0x04))\n              mstore(0x20, 0x00)\n              keccak256(0x00, 0x40)\n              swap1\n              tag_116\n              dup2\n              tag_4\n              jump\t// in\n            tag_116:\n              tag_117\n              dup3\n              tag_6\n              jump\t// in\n            tag_117:\n              dup2\n              mstore\n              tag_118\n              0x01\n              dup4\n              add\n              tag_6\n              jump\t// in\n            tag_118:\n              swap1\n              0x20\n              dup2\n              add\n              swap2\n              dup3\n              mstore\n              0xff\n              0x03\n              0x02\n              dup6\n              add\n              sload\n              swap5\n              0x40\n              dup5\n              add\n              swap6\n              dup7\n              mstore\n              add\n              sload\n              and\n              0x60\n              dup3\n              add\n              swap1\n              dup2\n              mstore\n                /* \"contracts/ChildStorage.sol\":1574:1584  entry.data */\n              dup2\n              mload\n                /* \"contracts/ChildStorage.sol\":61:1703  contract ChildStorage {... */\n              mload\n                /* \"contracts/ChildStorage.sol\":1568:1596  bytes(entry.data).length > 0 */\n              iszero\n                /* \"contracts/ChildStorage.sol\":61:1703  contract ChildStorage {... */\n              tag_119\n              jumpi\n              0xff\n              tag_94\n                /* \"contracts/ChildStorage.sol\":1634:1644  entry.data */\n              swap3\n              mload\n                /* \"contracts/ChildStorage.sol\":1646:1660  entry.dataType */\n              swap4\n              mload\n                /* \"contracts/ChildStorage.sol\":61:1703  contract ChildStorage {... */\n              swap5\n              mload\n              swap2\n              mload\n              and\n              swap1\n              mload(0x40)\n              swap5\n              dup6\n              swap5\n              dup6\n              tag_2\n              jump\t// in\n            tag_119:\n              mload(0x40)\n              shl(0xe5, 0x461bcd)\n              dup2\n              mstore\n              0x20\n              0x04\n              dup3\n              add\n              mstore\n              0x0e\n              0x24\n              dup3\n              add\n              mstore\n              shl(0x92, 0x11185d18481b9bdd08199bdd5b99)\n              0x44\n              dup3\n              add\n              mstore\n              0x64\n              swap1\n              revert\n            tag_1:\n              dup1\n              mload\n              dup1\n              dup4\n              mstore\n              0x20\n              swap3\n              swap2\n              dup2\n              swap1\n              dup5\n              add\n              dup5\n              dup5\n              add\n              mcopy\n              0x00\n              dup3\n              dup3\n              add\n              dup5\n              add\n              mstore\n              0x1f\n              add\n              not(0x1f)\n              and\n              add\n              add\n              swap1\n              jump\t// out\n            tag_2:\n              swap3\n              swap5\n              swap4\n              tag_122\n              0x60\n              swap4\n              tag_123\n              0xff\n              swap5\n              0x80\n              dup9\n              mstore\n              0x80\n              dup9\n              add\n              swap1\n              tag_1\n              jump\t// in\n            tag_123:\n              swap1\n              dup7\n              dup3\n              sub\n              0x20\n              dup9\n              add\n              mstore\n              tag_1\n              jump\t// in\n            tag_122:\n              swap6\n              0x40\n              dup6\n              add\n              mstore\n              and\n              swap2\n              add\n              mstore\n              jump\t// out\n            tag_3:\n              swap1\n              0x01\n              dup3\n              dup2\n              shr\n              swap3\n              and\n              dup1\n              iszero\n              tag_124\n              jumpi\n            tag_125:\n              0x20\n              dup4\n              lt\n              eq\n              tag_126\n              jumpi\n              jump\t// out\n            tag_126:\n              mstore(0x00, shl(0xe0, 0x4e487b71))\n              mstore(0x04, 0x22)\n              revert(0x00, 0x24)\n            tag_124:\n              swap2\n              0x7f\n              and\n              swap2\n              jump(tag_125)\n            tag_4:\n              0x80\n              dup2\n              add\n              swap1\n              dup2\n              lt\n              0xffffffffffffffff\n              dup3\n              gt\n              or\n              tag_57\n              jumpi\n              0x40\n              mstore\n              jump\t// out\n            tag_5:\n              swap1\n              0x1f\n              dup1\n              not\n              swap2\n              add\n              and\n              dup2\n              add\n              swap1\n              dup2\n              lt\n              0xffffffffffffffff\n              dup3\n              gt\n              or\n              tag_57\n              jumpi\n              0x40\n              mstore\n              jump\t// out\n            tag_6:\n              swap1\n              mload(0x40)\n              swap2\n              dup3\n              0x00\n              dup3\n              sload\n              swap3\n              tag_132\n              dup5\n              tag_3\n              jump\t// in\n            tag_132:\n              dup1\n              dup5\n              mstore\n              swap4\n              0x01\n              dup2\n              and\n              swap1\n              dup2\n              iszero\n              tag_133\n              jumpi\n              pop\n              0x01\n              eq\n              tag_135\n              jumpi\n            tag_136:\n              pop\n              tag_137\n              swap3\n              pop\n              sub\n              dup4\n              tag_5\n              jump\t// in\n            tag_137:\n              jump\t// out\n            tag_135:\n              swap1\n              pop\n              0x00\n              swap3\n              swap2\n              swap3\n              mstore\n              keccak256(0x00, 0x20)\n              swap1\n              0x00\n              swap2\n            tag_138:\n              dup2\n              dup4\n              lt\n              tag_139\n              jumpi\n              pop\n              pop\n              swap1\n              0x20\n              tag_137\n              swap3\n              dup3\n              add\n              add\n              0x00\n              jump(tag_136)\n            tag_139:\n              0x20\n              swap2\n              swap4\n              pop\n              dup1\n              0x01\n              swap2\n              sload\n              dup4\n              dup6\n              dup10\n              add\n              add\n              mstore\n              add\n              swap2\n              add\n              swap1\n              swap2\n              dup5\n              swap3\n              jump(tag_138)\n            tag_133:\n              swap1\n              pop\n              0x20\n              swap3\n              pop\n              tag_137\n              swap5\n              swap2\n              pop\n              not(0xff)\n              and\n              dup3\n              dup5\n              add\n              mstore\n              iszero\n              iszero\n              0x05\n              shl\n              dup3\n              add\n              add\n              0x00\n              jump(tag_136)\n            tag_7:\n              dup2\n              0x1f\n              dup3\n              add\n              slt\n              iszero\n              tag_34\n              jumpi\n              dup1\n              calldataload\n              swap1\n              0xffffffffffffffff\n              dup3\n              gt\n              tag_57\n              jumpi\n              mload(0x40)\n              swap3\n              tag_145\n              0x1f\n              dup5\n              add\n              not(0x1f)\n              and\n              0x20\n              add\n              dup6\n              tag_5\n              jump\t// in\n            tag_145:\n              dup3\n              dup5\n              mstore\n              0x20\n              dup4\n              dup4\n              add\n              add\n              gt\n              tag_34\n              jumpi\n              dup2\n              0x00\n              swap3\n              0x20\n              dup1\n              swap4\n              add\n              dup4\n              dup7\n              add\n              calldatacopy\n              dup4\n              add\n              add\n              mstore\n              swap1\n              jump\t// out\n\n            auxdata: 0xa2646970667358221220b38bb918725c90ead853d241fb9ccaa81495bf9870fa19354f90d1150528b4e564736f6c634300081e0033\n        }\n    }\n\n    auxdata: 0xa264697066735822122074e7fa3b37fcf9a5ed3ca69b4f7cfc275b76f09e47e1dbf786e7d0a2eb74431a64736f6c634300081e0033\n}\n\nsub_1: assembly {\n        /* \"contracts/ChildStorage.sol\":61:1703  contract ChildStorage {... */\n      0x80\n      jumpi(tag_7, callvalue)\n      0x1f\n      bytecodeSize\n      codesize\n      dup2\n      swap1\n      sub\n      swap2\n      dup3\n      add\n      not(0x1f)\n      and\n      dup4\n      add\n      swap2\n      sub(shl(0x40, 0x01), 0x01)\n      dup4\n      gt\n      dup5\n      dup5\n      lt\n      or\n      tag_3\n      jumpi\n      dup1\n      dup5\n      swap3\n      0x20\n      swap5\n      0x40\n      mstore\n      dup4\n      codecopy\n      dup2\n      add\n      sub\n      slt\n      tag_7\n      jumpi\n      mload\n      sub(shl(0xa0, 0x01), 0x01)\n      dup2\n      and\n      swap1\n      dup2\n      swap1\n      sub\n      tag_7\n      jumpi\n        /* \"contracts/ChildStorage.sol\":698:730  masterContract = _masterContract */\n      0x02\n        /* \"contracts/ChildStorage.sol\":61:1703  contract ChildStorage {... */\n      dup1\n      sload\n      not(sub(shl(0xa0, 0x01), 0x01))\n      and\n      swap2\n      swap1\n      swap2\n      or\n      swap1\n      sstore\n      sstore(0x01, 0x00)\n      mload(0x40)\n      dataSize(sub_0)\n      swap1\n      dup2\n      dataOffset(sub_0)\n      dup3\n      codecopy\n      return\n    tag_7:\n      0x00\n      dup1\n      revert\n    tag_3:\n      mstore(0x00, shl(0xe0, 0x4e487b71))\n      mstore(0x04, 0x41)\n      revert(0x00, 0x24)\n    stop\n\n    sub_0: assembly {\n            /* \"contracts/ChildStorage.sol\":61:1703  contract ChildStorage {... */\n          0x80\n          dup1\n          0x40\n          mstore\n          jumpi(tag_8, iszero(lt(calldatasize, 0x04)))\n          0x00\n          dup1\n          revert\n        tag_8:\n          shr(0xe0, calldataload(0x00))\n          swap1\n          dup2\n          0x0178fe3f\n          eq\n          tag_10\n          jumpi\n          pop\n          dup1\n          0x5da40c47\n          eq\n          tag_12\n          jumpi\n          dup1\n          0xa0b0607f\n          eq\n          tag_14\n          jumpi\n          dup1\n          0xbabd3d9a\n          eq\n          tag_16\n          jumpi\n          dup1\n          0xcd446e22\n          eq\n          tag_18\n          jumpi\n          dup1\n          0xda6ea12a\n          eq\n          tag_20\n          jumpi\n          0xfd1eb1fe\n          eq\n          tag_22\n          jumpi\n          0x00\n          dup1\n          revert\n        tag_22:\n          jumpi(tag_34, callvalue)\n          jumpi(tag_34, slt(add(not(0x03), calldatasize), 0xa0))\n          calldataload(0x24)\n          0xffffffffffffffff\n          dup2\n          gt\n          tag_34\n          jumpi\n          tag_30\n          swap1\n          calldatasize\n          swap1\n          0x04\n          add\n          tag_7\n          jump\t// in\n        tag_30:\n          calldataload(0x44)\n          0xffffffffffffffff\n          dup2\n          gt\n          tag_34\n          jumpi\n          tag_33\n          swap1\n          calldatasize\n          swap1\n          0x04\n          add\n          tag_7\n          jump\t// in\n        tag_33:\n          swap1\n          calldataload(0x84)\n          swap2\n          0xff\n          dup4\n          and\n          dup1\n          swap4\n          sub\n          tag_34\n          jumpi\n            /* \"contracts/ChildStorage.sol\":574:588  masterContract */\n          0x02\n            /* \"contracts/ChildStorage.sol\":61:1703  contract ChildStorage {... */\n          sload\n          sub(shl(0xa0, 0x01), 0x01)\n          and\n            /* \"contracts/ChildStorage.sol\":560:570  msg.sender */\n          caller\n            /* \"contracts/ChildStorage.sol\":560:588  msg.sender == masterContract */\n          sub\n            /* \"contracts/ChildStorage.sol\":61:1703  contract ChildStorage {... */\n          tag_36\n          jumpi\n            /* \"contracts/ChildStorage.sol\":470:474  1000 */\n          0x03e8\n            /* \"contracts/ChildStorage.sol\":61:1703  contract ChildStorage {... */\n          sload(0x01)\n            /* \"contracts/ChildStorage.sol\":969:989  dataCount < MAX_DATA */\n          lt\n            /* \"contracts/ChildStorage.sol\":61:1703  contract ChildStorage {... */\n          iszero\n          tag_38\n          jumpi\n            /* \"contracts/ChildStorage.sol\":470:474  1000 */\n          0x03e8\n            /* \"contracts/ChildStorage.sol\":61:1703  contract ChildStorage {... */\n          dup3\n          mload\n            /* \"contracts/ChildStorage.sol\":1028:1054  bytes(data).length <= 1000 */\n          gt\n            /* \"contracts/ChildStorage.sol\":61:1703  contract ChildStorage {... */\n          tag_40\n          jumpi\n            /* \"contracts/ChildStorage.sol\":1117:1119  50 */\n          0x32\n            /* \"contracts/ChildStorage.sol\":61:1703  contract ChildStorage {... */\n          dup2\n          mload\n            /* \"contracts/ChildStorage.sol\":1091:1119  bytes(dataType).length <= 50 */\n          gt\n            /* \"contracts/ChildStorage.sol\":61:1703  contract ChildStorage {... */\n          tag_42\n          jumpi\n            /* \"contracts/ChildStorage.sol\":1171:1172  5 */\n          0x05\n            /* \"contracts/ChildStorage.sol\":1161:1172  rating <= 5 */\n          dup4\n          gt\n            /* \"contracts/ChildStorage.sol\":61:1703  contract ChildStorage {... */\n          tag_44\n          jumpi\n          mload(0x40)\n          swap2\n          tag_46\n          dup4\n          tag_4\n          jump\t// in\n        tag_46:\n          dup3\n          mstore\n          0x20\n            /* \"contracts/ChildStorage.sol\":1218:1262  DataEntry(data, dataType, timestamp, rating) */\n          dup3\n          add\n            /* \"contracts/ChildStorage.sol\":61:1703  contract ChildStorage {... */\n          swap1\n          dup2\n          mstore\n          0x40\n            /* \"contracts/ChildStorage.sol\":1218:1262  DataEntry(data, dataType, timestamp, rating) */\n          dup3\n          add\n            /* \"contracts/ChildStorage.sol\":61:1703  contract ChildStorage {... */\n          swap1\n          calldataload(0x64)\n          dup3\n          mstore\n          0x60\n            /* \"contracts/ChildStorage.sol\":1218:1262  DataEntry(data, dataType, timestamp, rating) */\n          dup4\n          add\n            /* \"contracts/ChildStorage.sol\":61:1703  contract ChildStorage {... */\n          swap4\n          dup5\n          mstore\n          mstore(0x00, calldataload(0x04))\n          mstore(0x20, 0x00)\n          keccak256(0x00, 0x40)\n          swap3\n          mload\n          dup1\n          mload\n          swap1\n          0xffffffffffffffff\n          dup3\n          gt\n          tag_57\n          jumpi\n          dup2\n          swap1\n          tag_49\n          dup7\n          sload\n          tag_3\n          jump\t// in\n        tag_49:\n          0x1f\n          dup2\n          gt\n          tag_50\n          jumpi\n        tag_51:\n          pop\n          0x20\n          swap1\n          0x1f\n          dup4\n          gt\n          0x01\n          eq\n          tag_52\n          jumpi\n          0x00\n          swap3\n          tag_54\n          jumpi\n        tag_55:\n          pop\n          pop\n          dup2\n          0x01\n          shl\n          swap2\n          not(0x00)\n          swap1\n          0x03\n          shl\n          shr\n          not\n          and\n          or\n          dup4\n          sstore\n        tag_56:\n          mload\n          dup1\n          mload\n          0x01\n          dup5\n          add\n          swap2\n          0xffffffffffffffff\n          dup3\n          gt\n          tag_57\n          jumpi\n          tag_59\n          dup4\n          sload\n          tag_3\n          jump\t// in\n        tag_59:\n          0x1f\n          dup2\n          gt\n          tag_60\n          jumpi\n        tag_61:\n          pop\n          0x20\n          swap1\n          0x1f\n          dup4\n          gt\n          0x01\n          eq\n          tag_62\n          jumpi\n          swap2\n          dup1\n          0xff\n          swap7\n          swap5\n          swap3\n          0x03\n          swap7\n          swap5\n          0x00\n          swap3\n          tag_64\n          jumpi\n        tag_65:\n          pop\n          pop\n          dup2\n          0x01\n          shl\n          swap2\n          not(0x00)\n          swap1\n          dup8\n          shl\n          shr\n          not\n          and\n          or\n          swap1\n          sstore\n        tag_66:\n          mload\n            /* \"contracts/ChildStorage.sol\":574:588  masterContract */\n          0x02\n            /* \"contracts/ChildStorage.sol\":61:1703  contract ChildStorage {... */\n          dup3\n          add\n          sstore\n          add\n          swap2\n          mload\n          and\n          not(0xff)\n          dup3\n          sload\n          and\n          or\n          swap1\n          sstore\n          sload(0x01)\n          not(0x00)\n          dup2\n          eq\n          tag_67\n          jumpi\n          0x01\n          add\n          0x01\n          sstore\n          0x00\n          dup1\n          return\n        tag_67:\n          mstore(0x00, shl(0xe0, 0x4e487b71))\n          mstore(0x04, 0x11)\n          revert(0x00, 0x24)\n        tag_64:\n          add\n          mload\n          swap1\n          pop\n          0x00\n          dup1\n          jump(tag_65)\n        tag_62:\n          swap1\n          not(0x1f)\n          dup4\n          and\n          swap2\n          dup5\n          0x00\n          mstore\n          dup2\n          0x00\n          keccak256\n          swap3\n          0x00\n        tag_69:\n          dup2\n          dup2\n          lt\n          tag_70\n          jumpi\n          pop\n          swap3\n          0x01\n          swap3\n          dup6\n          swap3\n          0x03\n          swap9\n          swap7\n          0xff\n          swap11\n          swap9\n          swap7\n          lt\n          tag_72\n          jumpi\n        tag_73:\n          pop\n          pop\n          pop\n          dup2\n          shl\n          add\n          swap1\n          sstore\n          jump(tag_66)\n        tag_72:\n          add\n          mload\n          not(0x00)\n          dup4\n          dup10\n          shl\n          0xf8\n          and\n          shr\n          not\n          and\n          swap1\n          sstore\n          0x00\n          dup1\n          dup1\n          jump(tag_73)\n        tag_70:\n          swap3\n          swap4\n          0x20\n          0x01\n          dup2\n          swap3\n          dup8\n          dup7\n          add\n          mload\n          dup2\n          sstore\n          add\n          swap6\n          add\n          swap4\n          add\n          jump(tag_69)\n        tag_60:\n          dup4\n          0x00\n          mstore\n          keccak256(0x00, 0x20)\n          0x1f\n          dup5\n          add\n            /* \"contracts/ChildStorage.sol\":1171:1172  5 */\n          0x05\n            /* \"contracts/ChildStorage.sol\":61:1703  contract ChildStorage {... */\n          shr\n          dup2\n          add\n          swap2\n          0x20\n          dup6\n          lt\n          tag_74\n          jumpi\n        tag_75:\n          0x1f\n          add\n            /* \"contracts/ChildStorage.sol\":1171:1172  5 */\n          0x05\n            /* \"contracts/ChildStorage.sol\":61:1703  contract ChildStorage {... */\n          shr\n          add\n          swap1\n        tag_76:\n          dup2\n          dup2\n          lt\n          tag_77\n          jumpi\n          pop\n          jump(tag_61)\n        tag_77:\n          0x00\n          dup2\n          sstore\n          0x01\n          add\n          jump(tag_76)\n        tag_74:\n          swap1\n          swap2\n          pop\n          dup2\n          swap1\n          jump(tag_75)\n        tag_57:\n          mstore(0x00, shl(0xe0, 0x4e487b71))\n          mstore(0x04, 0x41)\n          revert(0x00, 0x24)\n        tag_54:\n          add\n          mload\n          swap1\n          pop\n          0x00\n          dup1\n          jump(tag_55)\n        tag_52:\n          0x00\n          dup8\n          dup2\n          mstore\n          dup3\n          dup2\n          keccak256\n          swap4\n          pop\n          not(0x1f)\n          dup6\n          and\n          swap1\n        tag_79:\n          dup2\n          dup2\n          lt\n          tag_80\n          jumpi\n          pop\n          swap1\n          dup5\n          0x01\n          swap6\n          swap5\n          swap4\n          swap3\n          lt\n          tag_82\n          jumpi\n        tag_83:\n          pop\n          pop\n          pop\n          dup2\n          shl\n          add\n          dup4\n          sstore\n          jump(tag_56)\n        tag_82:\n          add\n          mload\n          not(0x00)\n          0xf8\n          dup5\n          0x03\n          shl\n          and\n          shr\n          not\n          and\n          swap1\n          sstore\n          0x00\n          dup1\n          dup1\n          jump(tag_83)\n        tag_80:\n          swap3\n          swap4\n          0x20\n          0x01\n          dup2\n          swap3\n          dup8\n          dup7\n          add\n          mload\n          dup2\n          sstore\n          add\n          swap6\n          add\n          swap4\n          add\n          jump(tag_79)\n        tag_50:\n          swap1\n          swap2\n          pop\n          dup6\n          0x00\n          mstore\n          keccak256(0x00, 0x20)\n          0x1f\n          dup5\n          add\n            /* \"contracts/ChildStorage.sol\":1171:1172  5 */\n          0x05\n            /* \"contracts/ChildStorage.sol\":61:1703  contract ChildStorage {... */\n          shr\n          dup2\n          add\n          swap2\n          0x20\n          dup6\n          lt\n          tag_84\n          jumpi\n        tag_85:\n          swap1\n          0x1f\n          dup6\n          swap5\n          swap4\n          swap3\n          add\n            /* \"contracts/ChildStorage.sol\":1171:1172  5 */\n          0x05\n            /* \"contracts/ChildStorage.sol\":61:1703  contract ChildStorage {... */\n          shr\n          add\n          swap1\n        tag_86:\n          dup2\n          dup2\n          lt\n          tag_87\n          jumpi\n          pop\n          jump(tag_51)\n        tag_87:\n          0x00\n          dup2\n          sstore\n          dup5\n          swap4\n          pop\n          0x01\n          add\n          jump(tag_86)\n        tag_84:\n          swap1\n          swap2\n          pop\n          dup2\n          swap1\n          jump(tag_85)\n        tag_44:\n          mload(0x40)\n          shl(0xe5, 0x461bcd)\n          dup2\n          mstore\n          0x20\n          0x04\n          dup3\n          add\n          mstore\n          0x0e\n          0x24\n          dup3\n          add\n          mstore\n          shl(0x90, 0x496e76616c696420726174696e67)\n          0x44\n          dup3\n          add\n          mstore\n          0x64\n          swap1\n          revert\n        tag_42:\n          mload(0x40)\n          shl(0xe5, 0x461bcd)\n          dup2\n          mstore\n          0x20\n          0x04\n          dup3\n          add\n          mstore\n          0x12\n          0x24\n          dup3\n          add\n          mstore\n          shl(0x70, 0x44617461207479706520746f6f206c6f6e67)\n          0x44\n          dup3\n          add\n          mstore\n          0x64\n          swap1\n          revert\n        tag_40:\n          mload(0x40)\n          shl(0xe5, 0x461bcd)\n          dup2\n          mstore\n          0x20\n          0x04\n          dup3\n          add\n          mstore\n          0x0d\n          0x24\n          dup3\n          add\n          mstore\n          shl(0x98, 0x4461746120746f6f206c6f6e67)\n          0x44\n          dup3\n          add\n          mstore\n          0x64\n          swap1\n          revert\n        tag_38:\n          mload(0x40)\n          shl(0xe5, 0x461bcd)\n          dup2\n          mstore\n          0x20\n          0x04\n          dup3\n          add\n          mstore\n          0x0f\n          0x24\n          dup3\n          add\n          mstore\n          shl(0x8a, 0x14dd1bdc9859d9481a5cc8199d5b1b)\n          0x44\n          dup3\n          add\n          mstore\n          0x64\n          swap1\n          revert\n        tag_36:\n          mload(0x40)\n          shl(0xe5, 0x461bcd)\n          dup2\n          mstore\n          0x20\n          0x04\n          dup3\n          add\n          mstore\n          0x1d\n          0x24\n          dup3\n          add\n          mstore\n          0x4f6e6c79204d617374657220436f6e74726163742063616e2063616c6c000000\n          0x44\n          dup3\n          add\n          mstore\n          0x64\n          swap1\n          revert\n        tag_34:\n          0x00\n          dup1\n          revert\n        tag_20:\n          jumpi(tag_34, callvalue)\n          jumpi(tag_34, slt(add(not(0x03), calldatasize), 0x20))\n          mstore(0x00, calldataload(0x04))\n          mstore(0x20, 0x00)\n          keccak256(0x00, 0x40)\n            /* \"contracts/ChildStorage.sol\":351:397  mapping(uint256 => DataEntry) public dataStore */\n          tag_93\n          dup2\n          tag_6\n          jump\t// in\n        tag_93:\n            /* \"contracts/ChildStorage.sol\":61:1703  contract ChildStorage {... */\n          tag_94\n            /* \"contracts/ChildStorage.sol\":351:397  mapping(uint256 => DataEntry) public dataStore */\n          tag_95\n            /* \"contracts/ChildStorage.sol\":61:1703  contract ChildStorage {... */\n          0x01\n            /* \"contracts/ChildStorage.sol\":351:397  mapping(uint256 => DataEntry) public dataStore */\n          dup5\n          add\n          tag_6\n          jump\t// in\n        tag_95:\n          swap3\n            /* \"contracts/ChildStorage.sol\":61:1703  contract ChildStorage {... */\n          0xff\n            /* \"contracts/ChildStorage.sol\":351:397  mapping(uint256 => DataEntry) public dataStore */\n          0x03\n          0x02\n          dup4\n          add\n            /* \"contracts/ChildStorage.sol\":61:1703  contract ChildStorage {... */\n          sload\n            /* \"contracts/ChildStorage.sol\":351:397  mapping(uint256 => DataEntry) public dataStore */\n          swap3\n          add\n            /* \"contracts/ChildStorage.sol\":61:1703  contract ChildStorage {... */\n          sload\n          and\n          swap1\n          mload(0x40)\n          swap5\n          dup6\n          swap5\n          dup6\n          tag_2\n          jump\t// in\n        tag_94:\n          sub\n          swap1\n          return\n        tag_18:\n          jumpi(tag_34, callvalue)\n          jumpi(tag_34, slt(add(not(0x03), calldatasize), 0x00))\n            /* \"contracts/ChildStorage.sol\":481:510  address public masterContract */\n          0x02\n            /* \"contracts/ChildStorage.sol\":61:1703  contract ChildStorage {... */\n          sload\n          mload(0x40)\n          sub(shl(0xa0, 0x01), 0x01)\n          swap1\n          swap2\n          and\n          dup2\n          mstore\n          0x20\n          swap1\n          return\n        tag_16:\n          jumpi(tag_34, callvalue)\n          jumpi(tag_34, slt(add(not(0x03), calldatasize), 0x00))\n          0x20\n            /* \"contracts/ChildStorage.sol\":470:474  1000 */\n          0x03e8\n            /* \"contracts/ChildStorage.sol\":1365:1374  dataCount */\n          0x01\n            /* \"contracts/ChildStorage.sol\":61:1703  contract ChildStorage {... */\n          sload\n            /* \"contracts/ChildStorage.sol\":1365:1386  dataCount >= MAX_DATA */\n          lt\n          iszero\n            /* \"contracts/ChildStorage.sol\":61:1703  contract ChildStorage {... */\n          mload(0x40)\n          swap1\n          dup2\n          mstore\n          return\n        tag_14:\n          jumpi(tag_34, callvalue)\n          jumpi(tag_34, slt(add(not(0x03), calldatasize), 0x00))\n          0x20\n          mload(0x40)\n            /* \"contracts/ChildStorage.sol\":470:474  1000 */\n          0x03e8\n            /* \"contracts/ChildStorage.sol\":61:1703  contract ChildStorage {... */\n          dup2\n          mstore\n          return\n        tag_12:\n          jumpi(tag_34, callvalue)\n          jumpi(tag_34, slt(add(not(0x03), calldatasize), 0x00))\n          0x20\n            /* \"contracts/ChildStorage.sol\":404:428  uint256 public dataCount */\n          0x01\n            /* \"contracts/ChildStorage.sol\":61:1703  contract ChildStorage {... */\n          sload\n          mload(0x40)\n          swap1\n          dup2\n          mstore\n          return\n        tag_10:\n          jumpi(tag_34, callvalue)\n          jumpi(tag_34, slt(add(not(0x03), calldatasize), 0x20))\n          mstore(0x00, calldataload(0x04))\n          mstore(0x20, 0x00)\n          keccak256(0x00, 0x40)\n          swap1\n          tag_116\n          dup2\n          tag_4\n          jump\t// in\n        tag_116:\n          tag_117\n          dup3\n          tag_6\n          jump\t// in\n        tag_117:\n          dup2\n          mstore\n          tag_118\n          0x01\n          dup4\n          add\n          tag_6\n          jump\t// in\n        tag_118:\n          swap1\n          0x20\n          dup2\n          add\n          swap2\n          dup3\n          mstore\n          0xff\n          0x03\n          0x02\n          dup6\n          add\n          sload\n          swap5\n          0x40\n          dup5\n          add\n          swap6\n          dup7\n          mstore\n          add\n          sload\n          and\n          0x60\n          dup3\n          add\n          swap1\n          dup2\n          mstore\n            /* \"contracts/ChildStorage.sol\":1574:1584  entry.data */\n          dup2\n          mload\n            /* \"contracts/ChildStorage.sol\":61:1703  contract ChildStorage {... */\n          mload\n            /* \"contracts/ChildStorage.sol\":1568:1596  bytes(entry.data).length > 0 */\n          iszero\n            /* \"contracts/ChildStorage.sol\":61:1703  contract ChildStorage {... */\n          tag_119\n          jumpi\n          0xff\n          tag_94\n            /* \"contracts/ChildStorage.sol\":1634:1644  entry.data */\n          swap3\n          mload\n            /* \"contracts/ChildStorage.sol\":1646:1660  entry.dataType */\n          swap4\n          mload\n            /* \"contracts/ChildStorage.sol\":61:1703  contract ChildStorage {... */\n          swap5\n          mload\n          swap2\n          mload\n          and\n          swap1\n          mload(0x40)\n          swap5\n          dup6\n          swap5\n          dup6\n          tag_2\n          jump\t// in\n        tag_119:\n          mload(0x40)\n          shl(0xe5, 0x461bcd)\n          dup2\n          mstore\n          0x20\n          0x04\n          dup3\n          add\n          mstore\n          0x0e\n          0x24\n          dup3\n          add\n          mstore\n          shl(0x92, 0x11185d18481b9bdd08199bdd5b99)\n          0x44\n          dup3\n          add\n          mstore\n          0x64\n          swap1\n          revert\n        tag_1:\n          dup1\n          mload\n          dup1\n          dup4\n          mstore\n          0x20\n          swap3\n          swap2\n          dup2\n          swap1\n          dup5\n          add\n          dup5\n          dup5\n          add\n          mcopy\n          0x00\n          dup3\n          dup3\n          add\n          dup5\n          add\n          mstore\n          0x1f\n          add\n          not(0x1f)\n          and\n          add\n          add\n          swap1\n          jump\t// out\n        tag_2:\n          swap3\n          swap5\n          swap4\n          tag_122\n          0x60\n          swap4\n          tag_123\n          0xff\n          swap5\n          0x80\n          dup9\n          mstore\n          0x80\n          dup9\n          add\n          swap1\n          tag_1\n          jump\t// in\n        tag_123:\n          swap1\n          dup7\n          dup3\n          sub\n          0x20\n          dup9\n          add\n          mstore\n          tag_1\n          jump\t// in\n        tag_122:\n          swap6\n          0x40\n          dup6\n          add\n          mstore\n          and\n          swap2\n          add\n          mstore\n          jump\t// out\n        tag_3:\n          swap1\n          0x01\n          dup3\n          dup2\n          shr\n          swap3\n          and\n          dup1\n          iszero\n          tag_124\n          jumpi\n        tag_125:\n          0x20\n          dup4\n          lt\n          eq\n          tag_126\n          jumpi\n          jump\t// out\n        tag_126:\n          mstore(0x00, shl(0xe0, 0x4e487b71))\n          mstore(0x04, 0x22)\n          revert(0x00, 0x24)\n        tag_124:\n          swap2\n          0x7f\n          and\n          swap2\n          jump(tag_125)\n        tag_4:\n          0x80\n          dup2\n          add\n          swap1\n          dup2\n          lt\n          0xffffffffffffffff\n          dup3\n          gt\n          or\n          tag_57\n          jumpi\n          0x40\n          mstore\n          jump\t// out\n        tag_5:\n          swap1\n          0x1f\n          dup1\n          not\n          swap2\n          add\n          and\n          dup2\n          add\n          swap1\n          dup2\n          lt\n          0xffffffffffffffff\n          dup3\n          gt\n          or\n          tag_57\n          jumpi\n          0x40\n          mstore\n          jump\t// out\n        tag_6:\n          swap1\n          mload(0x40)\n          swap2\n          dup3\n          0x00\n          dup3\n          sload\n          swap3\n          tag_132\n          dup5\n          tag_3\n          jump\t// in\n        tag_132:\n          dup1\n          dup5\n          mstore\n          swap4\n          0x01\n          dup2\n          and\n          swap1\n          dup2\n          iszero\n          tag_133\n          jumpi\n          pop\n          0x01\n          eq\n          tag_135\n          jumpi\n        tag_136:\n          pop\n          tag_137\n          swap3\n          pop\n          sub\n          dup4\n          tag_5\n          jump\t// in\n        tag_137:\n          jump\t// out\n        tag_135:\n          swap1\n          pop\n          0x00\n          swap3\n          swap2\n          swap3\n          mstore\n          keccak256(0x00, 0x20)\n          swap1\n          0x00\n          swap2\n        tag_138:\n          dup2\n          dup4\n          lt\n          tag_139\n          jumpi\n          pop\n          pop\n          swap1\n          0x20\n          tag_137\n          swap3\n          dup3\n          add\n          add\n          0x00\n          jump(tag_136)\n        tag_139:\n          0x20\n          swap2\n          swap4\n          pop\n          dup1\n          0x01\n          swap2\n          sload\n          dup4\n          dup6\n          dup10\n          add\n          add\n          mstore\n          add\n          swap2\n          add\n          swap1\n          swap2\n          dup5\n          swap3\n          jump(tag_138)\n        tag_133:\n          swap1\n          pop\n          0x20\n          swap3\n          pop\n          tag_137\n          swap5\n          swap2\n          pop\n          not(0xff)\n          and\n          dup3\n          dup5\n          add\n          mstore\n          iszero\n          iszero\n          0x05\n          shl\n          dup3\n          add\n          add\n          0x00\n          jump(tag_136)\n        tag_7:\n          dup2\n          0x1f\n          dup3\n          add\n          slt\n          iszero\n          tag_34\n          jumpi\n          dup1\n          calldataload\n          swap1\n          0xffffffffffffffff\n          dup3\n          gt\n          tag_57\n          jumpi\n          mload(0x40)\n          swap3\n          tag_145\n          0x1f\n          dup5\n          add\n          not(0x1f)\n          and\n          0x20\n          add\n          dup6\n          tag_5\n          jump\t// in\n        tag_145:\n          dup3\n          dup5\n          mstore\n          0x20\n          dup4\n          dup4\n          add\n          add\n          gt\n          tag_34\n          jumpi\n          dup2\n          0x00\n          swap3\n          0x20\n          dup1\n          swap4\n          add\n          dup4\n          dup7\n          add\n          calldatacopy\n          dup4\n          add\n          add\n          mstore\n          swap1\n          jump\t// out\n\n        auxdata: 0xa2646970667358221220b38bb918725c90ead853d241fb9ccaa81495bf9870fa19354f90d1150528b4e564736f6c634300081e0033\n    }\n}\n",
				"bytecode": {
					"linkReferences": {},
					"object": "6080604052346100fa57600880546001600160a01b031916331790555f60068190556007556040516108f1808201906001600160401b038211838310176100e6576020918391611fc383393081520301905ff080156100db5760018060a01b03166006545f525f60205260405f208160018060a01b0319825416179055600654907f9dede39b617164d465ca522f28bb62b2e885ce5793bce366296d86ba2310de186020604051848152a25f1981146100c757600101600655604051611ec490816100ff8239f35b634e487b7160e01b5f52601160045260245ffd5b6040513d5f823e3d90fd5b634e487b7160e01b5f52604160045260245ffd5b5f80fdfe60806040526004361015610011575f80fd5b5f5f3560e01c80630178fe3f146110ab5780631c175ee41461107c5780632d28136414610e7b57806337d7cd7914610e3b5780633abe26d414610e205780633cf1c36614610e035780638bc3bbc014610ba25780638da5cb5b14610ddb578063907c6c2e14610bf057806395bc992814610bbf578063a2ed365b14610ba2578063a42b2cf014610b78578063ab746ba31461098c578063afff9b4d146107b2578063b5174a121461075c578063b82228591461071d578063c5372dcc1461066d578063c747a0f5146101a5578063ccc658f8146101725763e0c3ad85146100f6575f80fd5b3461016b57604036600319011261016b5760043567ffffffffffffffff811161016e576101279036906004016111ba565b60405181516024359392602091839181908401835e8101600281520301902090815483101561016b57602061015c8484611153565b90549060031b1c604051908152f35b80fd5b5080fd5b503461016b57602036600319011261016b57602090600435815260018252604060018060a01b0391205416604051908152f35b50346104535760603660031901126104535760043567ffffffffffffffff8111610453576101d79036906004016111ba565b9060243567ffffffffffffffff8111610453576101f89036906004016111ba565b60443560ff8116809103610453576008546001600160a01b03163303610632578351156105f6578151156105b1576102336005821115611519565b6006545f19810181811161059d575f525f60205260018060a01b0360405f20541690604051635d5e9ecd60e11b8152602081600481865afa908115610448575f91610562575b50610457575b5060018060a01b0316600754813b156104535760405190637e8f58ff60e11b8252600482015260a060248201525f81806102d16102bf60a483018b6110e2565b828103600319016044840152886110e2565b426064830152866084830152038183865af1801561044857610432575b5061040f9394600754865260016020526040862060018060a01b0383166bffffffffffffffffffffffff60a01b8254161790557f555b057972c66bd1796f2018bbcde1880d15866a26587e16ee62619da01ad41d6040519161036a865193602081818a01968088835e8101600281520301902060075490611556565b84610415575b6201518042048852600460205261038d6040892060075490611556565b60405160208101906103b9602082855180838801875e81018d838201520301601f19810183528261117c565b519020926007549687948a5260056020528460408b2055604051918291518091835e81018a8152039020936103f9604051926060845260608401906110e2565b95602083015260408201528042950390a461158f565b60075580f35b848852600360205261042d6040892060075490611556565b610370565b61040f94505f6104419161117c565b5f936102ee565b6040513d5f823e3d90fd5b5f80fd5b60649150101561051d576040516108f18082019082821067ffffffffffffffff83111761050957602091839161159e83393081520301905ff080156104485760018060a01b03166006545f525f60205260405f2060018060a01b0382166bffffffffffffffffffffffff60a01b825416179055610500600654827f9dede39b617164d465ca522f28bb62b2e885ce5793bce366296d86ba2310de186020604051848152a261158f565b6006555f61027f565b634e487b7160e01b5f52604160045260245ffd5b60405162461bcd60e51b815260206004820152601b60248201527f4d6178206368696c6420636f6e747261637473207265616368656400000000006044820152606490fd5b90506020813d602011610595575b8161057d6020938361117c565b8101031261045357518015158103610453575f610279565b3d9150610570565b634e487b7160e01b5f52601160045260245ffd5b60405162461bcd60e51b815260206004820152601960248201527f4461746120747970652063616e6e6f7420626520656d707479000000000000006044820152606490fd5b60405162461bcd60e51b8152602060048201526014602482015273446174612063616e6e6f7420626520656d70747960601b6044820152606490fd5b60405162461bcd60e51b815260206004820152601360248201527213db9b1e481bdddb995c8818d85b8818d85b1b606a1b6044820152606490fd5b34610453576020366003190112610453576004355f52600560205260405f2054805f5260016020525f60018060a01b03604082205416916106af83151561132f565b602460405180948193630178fe3f60e01b835260048301525afa8015610448575f5f915f5f916106ef575b906106eb9160405194859485611106565b0390f35b505050506107116106eb913d805f833e610709818361117c565b8101906113b2565b919350839291906106da565b346104535760203660031901126104535760ff61073861131f565b166107466005821115611519565b5f526003602052602060405f2054604051908152f35b346104535760203660031901126104535760043567ffffffffffffffff811161045357602080610791819336906004016111ba565b604051928184925191829101835e8101600281520301902054604051908152f35b34610453576060366003190112610453576107cb61131f565b60243560ff60443592166107e26005821115611519565b5f52600360205260405f2090604051808360208295549384815201905f5260205f20925f5b81811061097357505061081c9250038361117c565b6108298251841115611415565b80610835848451611458565b111561096157905b6108468261147d565b90610850836114af565b9261085a816114af565b6108638261147d565b9161086d8161147d565b935f5b82811061088c57505050906106eb9291604051958695866112c1565b61089f610899828b61150c565b836114f8565b516108aa82896114f8565b526108b581886114f8565b515f908152600160205260408120546001600160a01b031691906108d9828a6114f8565b51602460405180958193630178fe3f60e01b835260048301525afa918215610448576001925f915f915f915f91610943575b5060ff610918868d6114f8565b91169052610926848a6114f8565b5261093183886114f8565b5261093c828b6114f8565b5201610870565b9250505061095b91503d805f833e610709818361117c565b8e61090b565b5061096d828251611458565b9061083d565b8454835260019485019487945060209093019201610807565b346104535760603660031901126104535760043567ffffffffffffffff8111610453576109bd9036906004016111ba565b60243560208060443593604051928184925191829101835e8101600281520301902090604051808360208295549384815201905f5260205f20925f5b818110610b5f575050610a0e9250038361117c565b610a1b8251841115611415565b80610a27848451611458565b1115610b4d57905b610a388261147d565b90610a42836114af565b92610a4c816114af565b610a558261147d565b91610a5f8161147d565b935f5b828110610a7e57505050906106eb9291604051958695866112c1565b610a8b610899828b61150c565b51610a9682896114f8565b52610aa181886114f8565b515f908152600160205260408120546001600160a01b03169190610ac5828a6114f8565b51602460405180958193630178fe3f60e01b835260048301525afa918215610448576001925f915f915f915f91610b2f575b5060ff610b04868d6114f8565b91169052610b12848a6114f8565b52610b1d83886114f8565b52610b28828b6114f8565b5201610a62565b92505050610b4791503d805f833e610709818361117c565b8e610af7565b50610b59828251611458565b90610a2f565b84548352600194850194879450602090930192016109f9565b34610453576020366003190112610453576004355f526005602052602060405f2054604051908152f35b34610453575f366003190112610453576020600654604051908152f35b34610453576020366003190112610453576004355f525f602052602060018060a01b0360405f205416604051908152f35b3461045357610bfe3661113d565b60075480831015610da3578115159081610d8f575b5015610d5a57610c22816114af565b91610c2c826114af565b610c358361147d565b91610c3f8461147d565b935f5b818110610c9757610c6d876106eb88610c8989610c7b8a604051978897608089526080890190611233565b908782036020890152611233565b908582036040870152611200565b90838203606085015261128b565b610ca1818461150c565b5f908152600160205260409020546001600160a01b03169081610cc9575b6001915001610c42565b5f610cd4828661150c565b602460405180958193630178fe3f60e01b835260048301525afa918215610448576001925f915f915f915f91610d3c575b5060ff610d12868d6114f8565b91169052610d20848a6114f8565b52610d2b83886114f8565b52610d36828a6114f8565b52610cbf565b92505050610d5491503d805f833e610709818361117c565b8c610d05565b60405162461bcd60e51b815260206004820152600d60248201526c125b9d985b1a590818dbdd5b9d609a1b6044820152606490fd5b9050610d9b828461150c565b111583610c13565b60405162461bcd60e51b815260206004820152601060248201526f125b9d985b1a59081cdd185c9d08125160821b6044820152606490fd5b34610453575f366003190112610453576008546040516001600160a01b039091168152602090f35b34610453575f366003190112610453576020600754604051908152f35b34610453575f36600319011261045357602060405160648152f35b3461045357604036600319011261045357610e5461131f565b60ff60243591165f52600360205260405f2080548210156104535760209161015c91611153565b346104535760603660031901126104535760043560243560443567ffffffffffffffff8111610453576020610eb5819236906004016111ba565b604051928184925191829101835e8101600281520301902091604051808460208296549384815201905f5260205f20925f5b818110611063575050610efc9250038461117c565b610f098351831115611415565b80610f15838551611458565b111561105157915b610f268361147d565b90610f30846114af565b92610f3a856114af565b610f438661147d565b91610f4d8761147d565b935f5b888110610f6c57505050906106eb9291604051958695866112c1565b81515f19810190811161059d5761089982610f8a86610f8f94611458565b611458565b51610f9a82896114f8565b52610fa581886114f8565b515f908152600160205260408120546001600160a01b03169190610fc9828a6114f8565b51602460405180958193630178fe3f60e01b835260048301525afa918215610448576001925f915f915f915f91611033575b5060ff611008868d6114f8565b91169052611016848a6114f8565b5261102183886114f8565b5261102c828b6114f8565b5201610f50565b9250505061104b91503d805f833e610709818361117c565b8e610ffb565b5061105d818351611458565b91610f1d565b8454835260019485019488945060209093019201610ee7565b346104535761108a3661113d565b905f52600460205260405f2080548210156104535760209161015c91611153565b34610453576020366003190112610453576004355f818152600160205260408120546001600160a01b0316916106af83151561132f565b805180835260209291819084018484015e5f828201840152601f01601f1916010190565b92949361113160609361112360ff946080885260808801906110e2565b9086820360208801526110e2565b95604085015216910152565b6040906003190112610453576004359060243590565b8054821015611168575f5260205f2001905f90565b634e487b7160e01b5f52603260045260245ffd5b90601f8019910116810190811067ffffffffffffffff82111761050957604052565b67ffffffffffffffff811161050957601f01601f191660200190565b81601f82011215610453578035906111d18261119e565b926111df604051948561117c565b8284526020838301011161045357815f926020809301838601378301015290565b90602080835192838152019201905f5b81811061121d5750505090565b8251845260209384019390920191600101611210565b9080602083519182815201916020808360051b8301019401925f915b83831061125e57505050505090565b909192939460208061127c600193601f1986820301875289516110e2565b9701930193019193929061124f565b90602080835192838152019201905f5b8181106112a85750505090565b825160ff1684526020938401939092019160010161129b565b939061131c95936112f261130e946112e46113009460a08a5260a08a0190611200565b9088820360208a0152611233565b908682036040880152611233565b908482036060860152611200565b91608081840391015261128b565b90565b6004359060ff8216820361045357565b1561133657565b60405162461bcd60e51b815260206004820152600e60248201526d11185d18481b9bdd08199bdd5b9960921b6044820152606490fd5b81601f82011215610453578051906113838261119e565b92611391604051948561117c565b8284526020838301011161045357815f9260208093018386015e8301015290565b91909160808184031261045357805167ffffffffffffffff811161045357836113dc91830161136c565b9260208201519067ffffffffffffffff8211610453576113fd91830161136c565b916060604083015192015160ff811681036104535790565b1561141c57565b60405162461bcd60e51b81526020600482015260146024820152734f6666736574206f7574206f6620626f756e647360601b6044820152606490fd5b9190820391821161059d57565b67ffffffffffffffff81116105095760051b60200190565b9061148782611465565b611494604051918261117c565b82815280926114a5601f1991611465565b0190602036910137565b906114b982611465565b6114c6604051918261117c565b82815280926114d7601f1991611465565b01905f5b8281106114e757505050565b8060606020809385010152016114db565b80518210156111685760209160051b010190565b9190820180921161059d57565b1561152057565b60405162461bcd60e51b815260206004820152600e60248201526d496e76616c696420726174696e6760901b6044820152606490fd5b8054680100000000000000008110156105095761157891600182018155611153565b819291549060031b91821b915f19901b1916179055565b5f19811461059d576001019056fe608034607457601f6108f138819003918201601f19168301916001600160401b03831184841017607857808492602094604052833981010312607457516001600160a01b03811690819003607457600280546001600160a01b0319169190911790555f600155604051610864908161008d8239f35b5f80fd5b634e487b7160e01b5f52604160045260245ffdfe6080806040526004361015610012575f80fd5b5f3560e01c9081630178fe3f146105ac575080635da40c471461058f578063a0b0607f14610573578063babd3d9a14610551578063cd446e2214610529578063da6ea12a146104d45763fd1eb1fe14610069575f80fd5b346104d05760a03660031901126104d05760243567ffffffffffffffff81116104d05761009a9036906004016107d8565b60443567ffffffffffffffff81116104d0576100ba9036906004016107d8565b906084359160ff83168093036104d0576002546001600160a01b0316330361048b576103e86001541015610454576103e882511161041f5760328151116103e557600583116103af5760405191610110836106fa565b82526020820190815260408201906064358252606083019384526004355f525f60205260405f20925180519067ffffffffffffffff82116102dd57819061015786546106c2565b601f811161035f575b50602090601f83116001146102fc575f926102f1575b50508160011b915f199060031b1c19161783555b518051600184019167ffffffffffffffff82116102dd576101ab83546106c2565b601f8111610298575b50602090601f831160011461022f57918060ff969492600396945f92610224575b50508160011b915f1990871b1c19161790555b5160028201550191511660ff198254161790556001545f198114610210576001016001555f80f35b634e487b7160e01b5f52601160045260245ffd5b015190505f806101d5565b90601f19831691845f52815f20925f5b81811061028057509260019285926003989660ff9a989610610269575b505050811b0190556101e8565b01515f1983891b60f8161c191690555f808061025c565b9293602060018192878601518155019501930161023f565b835f5260205f20601f840160051c810191602085106102d3575b601f0160051c01905b8181106102c857506101b4565b5f81556001016102bb565b90915081906102b2565b634e487b7160e01b5f52604160045260245ffd5b015190505f80610176565b5f8781528281209350601f198516905b818110610347575090846001959493921061032f575b505050811b01835561018a565b01515f1960f88460031b161c191690555f8080610322565b9293602060018192878601518155019501930161030c565b909150855f5260205f20601f840160051c810191602085106103a5575b90601f859493920160051c01905b8181106103975750610160565b5f815584935060010161038a565b909150819061037c565b60405162461bcd60e51b815260206004820152600e60248201526d496e76616c696420726174696e6760901b6044820152606490fd5b60405162461bcd60e51b815260206004820152601260248201527144617461207479706520746f6f206c6f6e6760701b6044820152606490fd5b60405162461bcd60e51b815260206004820152600d60248201526c4461746120746f6f206c6f6e6760981b6044820152606490fd5b60405162461bcd60e51b815260206004820152600f60248201526e14dd1bdc9859d9481a5cc8199d5b1b608a1b6044820152606490fd5b60405162461bcd60e51b815260206004820152601d60248201527f4f6e6c79204d617374657220436f6e74726163742063616e2063616c6c0000006044820152606490fd5b5f80fd5b346104d05760203660031901126104d0576004355f525f60205260405f206104fb81610738565b61052561050a60018401610738565b9260ff6003600283015492015416906040519485948561068b565b0390f35b346104d0575f3660031901126104d0576002546040516001600160a01b039091168152602090f35b346104d0575f3660031901126104d05760206103e86001541015604051908152f35b346104d0575f3660031901126104d05760206040516103e88152f35b346104d0575f3660031901126104d0576020600154604051908152f35b346104d05760203660031901126104d0576004355f525f60205260405f20906105d4816106fa565b6105dd82610738565b81526105eb60018301610738565b906020810191825260ff60036002850154946040840195865201541660608201908152815151156106315760ff610525925193519451915116906040519485948561068b565b60405162461bcd60e51b815260206004820152600e60248201526d11185d18481b9bdd08199bdd5b9960921b6044820152606490fd5b805180835260209291819084018484015e5f828201840152601f01601f1916010190565b9294936106b66060936106a860ff94608088526080880190610667565b908682036020880152610667565b95604085015216910152565b90600182811c921680156106f0575b60208310146106dc57565b634e487b7160e01b5f52602260045260245ffd5b91607f16916106d1565b6080810190811067ffffffffffffffff8211176102dd57604052565b90601f8019910116810190811067ffffffffffffffff8211176102dd57604052565b9060405191825f82549261074b846106c2565b80845293600181169081156107b65750600114610772575b5061077092500383610716565b565b90505f9291925260205f20905f915b81831061079a575050906020610770928201015f610763565b6020919350806001915483858901015201910190918492610781565b90506020925061077094915060ff191682840152151560051b8201015f610763565b81601f820112156104d05780359067ffffffffffffffff82116102dd576040519261080d601f8401601f191660200185610716565b828452602083830101116104d057815f92602080930183860137830101529056fea2646970667358221220b38bb918725c90ead853d241fb9ccaa81495bf9870fa19354f90d1150528b4e564736f6c634300081e0033a264697066735822122074e7fa3b37fcf9a5ed3ca69b4f7cfc275b76f09e47e1dbf786e7d0a2eb74431a64736f6c634300081e0033608034607457601f6108f138819003918201601f19168301916001600160401b03831184841017607857808492602094604052833981010312607457516001600160a01b03811690819003607457600280546001600160a01b0319169190911790555f600155604051610864908161008d8239f35b5f80fd5b634e487b7160e01b5f52604160045260245ffdfe6080806040526004361015610012575f80fd5b5f3560e01c9081630178fe3f146105ac575080635da40c471461058f578063a0b0607f14610573578063babd3d9a14610551578063cd446e2214610529578063da6ea12a146104d45763fd1eb1fe14610069575f80fd5b346104d05760a03660031901126104d05760243567ffffffffffffffff81116104d05761009a9036906004016107d8565b60443567ffffffffffffffff81116104d0576100ba9036906004016107d8565b906084359160ff83168093036104d0576002546001600160a01b0316330361048b576103e86001541015610454576103e882511161041f5760328151116103e557600583116103af5760405191610110836106fa565b82526020820190815260408201906064358252606083019384526004355f525f60205260405f20925180519067ffffffffffffffff82116102dd57819061015786546106c2565b601f811161035f575b50602090601f83116001146102fc575f926102f1575b50508160011b915f199060031b1c19161783555b518051600184019167ffffffffffffffff82116102dd576101ab83546106c2565b601f8111610298575b50602090601f831160011461022f57918060ff969492600396945f92610224575b50508160011b915f1990871b1c19161790555b5160028201550191511660ff198254161790556001545f198114610210576001016001555f80f35b634e487b7160e01b5f52601160045260245ffd5b015190505f806101d5565b90601f19831691845f52815f20925f5b81811061028057509260019285926003989660ff9a989610610269575b505050811b0190556101e8565b01515f1983891b60f8161c191690555f808061025c565b9293602060018192878601518155019501930161023f565b835f5260205f20601f840160051c810191602085106102d3575b601f0160051c01905b8181106102c857506101b4565b5f81556001016102bb565b90915081906102b2565b634e487b7160e01b5f52604160045260245ffd5b015190505f80610176565b5f8781528281209350601f198516905b818110610347575090846001959493921061032f575b505050811b01835561018a565b01515f1960f88460031b161c191690555f8080610322565b9293602060018192878601518155019501930161030c565b909150855f5260205f20601f840160051c810191602085106103a5575b90601f859493920160051c01905b8181106103975750610160565b5f815584935060010161038a565b909150819061037c565b60405162461bcd60e51b815260206004820152600e60248201526d496e76616c696420726174696e6760901b6044820152606490fd5b60405162461bcd60e51b815260206004820152601260248201527144617461207479706520746f6f206c6f6e6760701b6044820152606490fd5b60405162461bcd60e51b815260206004820152600d60248201526c4461746120746f6f206c6f6e6760981b6044820152606490fd5b60405162461bcd60e51b815260206004820152600f60248201526e14dd1bdc9859d9481a5cc8199d5b1b608a1b6044820152606490fd5b60405162461bcd60e51b815260206004820152601d60248201527f4f6e6c79204d617374657220436f6e74726163742063616e2063616c6c0000006044820152606490fd5b5f80fd5b346104d05760203660031901126104d0576004355f525f60205260405f206104fb81610738565b61052561050a60018401610738565b9260ff6003600283015492015416906040519485948561068b565b0390f35b346104d0575f3660031901126104d0576002546040516001600160a01b039091168152602090f35b346104d0575f3660031901126104d05760206103e86001541015604051908152f35b346104d0575f3660031901126104d05760206040516103e88152f35b346104d0575f3660031901126104d0576020600154604051908152f35b346104d05760203660031901126104d0576004355f525f60205260405f20906105d4816106fa565b6105dd82610738565b81526105eb60018301610738565b906020810191825260ff60036002850154946040840195865201541660608201908152815151156106315760ff610525925193519451915116906040519485948561068b565b60405162461bcd60e51b815260206004820152600e60248201526d11185d18481b9bdd08199bdd5b9960921b6044820152606490fd5b805180835260209291819084018484015e5f828201840152601f01601f1916010190565b9294936106b66060936106a860ff94608088526080880190610667565b908682036020880152610667565b95604085015216910152565b90600182811c921680156106f0575b60208310146106dc57565b634e487b7160e01b5f52602260045260245ffd5b91607f16916106d1565b6080810190811067ffffffffffffffff8211176102dd57604052565b90601f8019910116810190811067ffffffffffffffff8211176102dd57604052565b9060405191825f82549261074b846106c2565b80845293600181169081156107b65750600114610772575b5061077092500383610716565b565b90505f9291925260205f20905f915b81831061079a575050906020610770928201015f610763565b6020919350806001915483858901015201910190918492610781565b90506020925061077094915060ff191682840152151560051b8201015f610763565b81601f820112156104d05780359067ffffffffffffffff82116102dd576040519261080d601f8401601f191660200185610716565b828452602083830101116104d057815f92602080930183860137830101529056fea2646970667358221220b38bb918725c90ead853d241fb9ccaa81495bf9870fa19354f90d1150528b4e564736f6c634300081e0033",
					"opcodes": "PUSH1 0x80 PUSH1 0x40 MSTORE CALLVALUE PUSH2 0xFA JUMPI PUSH1 0x8 DUP1 SLOAD PUSH1 0x1 PUSH1 0x1 PUSH1 0xA0 SHL SUB NOT AND CALLER OR SWAP1 SSTORE PUSH0 PUSH1 0x6 DUP2 SWAP1 SSTORE PUSH1 0x7 SSTORE PUSH1 0x40 MLOAD PUSH2 0x8F1 DUP1 DUP3 ADD SWAP1 PUSH1 0x1 PUSH1 0x1 PUSH1 0x40 SHL SUB DUP3 GT DUP4 DUP4 LT OR PUSH2 0xE6 JUMPI PUSH1 0x20 SWAP2 DUP4 SWAP2 PUSH2 0x1FC3 DUP4 CODECOPY ADDRESS DUP2 MSTORE SUB ADD SWAP1 PUSH0 CREATE DUP1 ISZERO PUSH2 0xDB JUMPI PUSH1 0x1 DUP1 PUSH1 0xA0 SHL SUB AND PUSH1 0x6 SLOAD PUSH0 MSTORE PUSH0 PUSH1 0x20 MSTORE PUSH1 0x40 PUSH0 KECCAK256 DUP2 PUSH1 0x1 DUP1 PUSH1 0xA0 SHL SUB NOT DUP3 SLOAD AND OR SWAP1 SSTORE PUSH1 0x6 SLOAD SWAP1 PUSH32 0x9DEDE39B617164D465CA522F28BB62B2E885CE5793BCE366296D86BA2310DE18 PUSH1 0x20 PUSH1 0x40 MLOAD DUP5 DUP2 MSTORE LOG2 PUSH0 NOT DUP2 EQ PUSH2 0xC7 JUMPI PUSH1 0x1 ADD PUSH1 0x6 SSTORE PUSH1 0x40 MLOAD PUSH2 0x1EC4 SWAP1 DUP2 PUSH2 0xFF DUP3 CODECOPY RETURN JUMPDEST PUSH4 0x4E487B71 PUSH1 0xE0 SHL PUSH0 MSTORE PUSH1 0x11 PUSH1 0x4 MSTORE PUSH1 0x24 PUSH0 REVERT JUMPDEST PUSH1 0x40 MLOAD RETURNDATASIZE PUSH0 DUP3 RETURNDATACOPY RETURNDATASIZE SWAP1 REVERT JUMPDEST PUSH4 0x4E487B71 PUSH1 0xE0 SHL PUSH0 MSTORE PUSH1 0x41 PUSH1 0x4 MSTORE PUSH1 0x24 PUSH0 REVERT JUMPDEST PUSH0 DUP1 REVERT INVALID PUSH1 0x80 PUSH1 0x40 MSTORE PUSH1 0x4 CALLDATASIZE LT ISZERO PUSH2 0x11 JUMPI PUSH0 DUP1 REVERT JUMPDEST PUSH0 PUSH0 CALLDATALOAD PUSH1 0xE0 SHR DUP1 PUSH4 0x178FE3F EQ PUSH2 0x10AB JUMPI DUP1 PUSH4 0x1C175EE4 EQ PUSH2 0x107C JUMPI DUP1 PUSH4 0x2D281364 EQ PUSH2 0xE7B JUMPI DUP1 PUSH4 0x37D7CD79 EQ PUSH2 0xE3B JUMPI DUP1 PUSH4 0x3ABE26D4 EQ PUSH2 0xE20 JUMPI DUP1 PUSH4 0x3CF1C366 EQ PUSH2 0xE03 JUMPI DUP1 PUSH4 0x8BC3BBC0 EQ PUSH2 0xBA2 JUMPI DUP1 PUSH4 0x8DA5CB5B EQ PUSH2 0xDDB JUMPI DUP1 PUSH4 0x907C6C2E EQ PUSH2 0xBF0 JUMPI DUP1 PUSH4 0x95BC9928 EQ PUSH2 0xBBF JUMPI DUP1 PUSH4 0xA2ED365B EQ PUSH2 0xBA2 JUMPI DUP1 PUSH4 0xA42B2CF0 EQ PUSH2 0xB78 JUMPI DUP1 PUSH4 0xAB746BA3 EQ PUSH2 0x98C JUMPI DUP1 PUSH4 0xAFFF9B4D EQ PUSH2 0x7B2 JUMPI DUP1 PUSH4 0xB5174A12 EQ PUSH2 0x75C JUMPI DUP1 PUSH4 0xB8222859 EQ PUSH2 0x71D JUMPI DUP1 PUSH4 0xC5372DCC EQ PUSH2 0x66D JUMPI DUP1 PUSH4 0xC747A0F5 EQ PUSH2 0x1A5 JUMPI DUP1 PUSH4 0xCCC658F8 EQ PUSH2 0x172 JUMPI PUSH4 0xE0C3AD85 EQ PUSH2 0xF6 JUMPI PUSH0 DUP1 REVERT JUMPDEST CALLVALUE PUSH2 0x16B JUMPI PUSH1 0x40 CALLDATASIZE PUSH1 0x3 NOT ADD SLT PUSH2 0x16B JUMPI PUSH1 0x4 CALLDATALOAD PUSH8 0xFFFFFFFFFFFFFFFF DUP2 GT PUSH2 0x16E JUMPI PUSH2 0x127 SWAP1 CALLDATASIZE SWAP1 PUSH1 0x4 ADD PUSH2 0x11BA JUMP JUMPDEST PUSH1 0x40 MLOAD DUP2 MLOAD PUSH1 0x24 CALLDATALOAD SWAP4 SWAP3 PUSH1 0x20 SWAP2 DUP4 SWAP2 DUP2 SWAP1 DUP5 ADD DUP4 MCOPY DUP2 ADD PUSH1 0x2 DUP2 MSTORE SUB ADD SWAP1 KECCAK256 SWAP1 DUP2 SLOAD DUP4 LT ISZERO PUSH2 0x16B JUMPI PUSH1 0x20 PUSH2 0x15C DUP5 DUP5 PUSH2 0x1153 JUMP JUMPDEST SWAP1 SLOAD SWAP1 PUSH1 0x3 SHL SHR PUSH1 0x40 MLOAD SWAP1 DUP2 MSTORE RETURN JUMPDEST DUP1 REVERT JUMPDEST POP DUP1 REVERT JUMPDEST POP CALLVALUE PUSH2 0x16B JUMPI PUSH1 0x20 CALLDATASIZE PUSH1 0x3 NOT ADD SLT PUSH2 0x16B JUMPI PUSH1 0x20 SWAP1 PUSH1 0x4 CALLDATALOAD DUP2 MSTORE PUSH1 0x1 DUP3 MSTORE PUSH1 0x40 PUSH1 0x1 DUP1 PUSH1 0xA0 SHL SUB SWAP2 KECCAK256 SLOAD AND PUSH1 0x40 MLOAD SWAP1 DUP2 MSTORE RETURN JUMPDEST POP CALLVALUE PUSH2 0x453 JUMPI PUSH1 0x60 CALLDATASIZE PUSH1 0x3 NOT ADD SLT PUSH2 0x453 JUMPI PUSH1 0x4 CALLDATALOAD PUSH8 0xFFFFFFFFFFFFFFFF DUP2 GT PUSH2 0x453 JUMPI PUSH2 0x1D7 SWAP1 CALLDATASIZE SWAP1 PUSH1 0x4 ADD PUSH2 0x11BA JUMP JUMPDEST SWAP1 PUSH1 0x24 CALLDATALOAD PUSH8 0xFFFFFFFFFFFFFFFF DUP2 GT PUSH2 0x453 JUMPI PUSH2 0x1F8 SWAP1 CALLDATASIZE SWAP1 PUSH1 0x4 ADD PUSH2 0x11BA JUMP JUMPDEST PUSH1 0x44 CALLDATALOAD PUSH1 0xFF DUP2 AND DUP1 SWAP2 SUB PUSH2 0x453 JUMPI PUSH1 0x8 SLOAD PUSH1 0x1 PUSH1 0x1 PUSH1 0xA0 SHL SUB AND CALLER SUB PUSH2 0x632 JUMPI DUP4 MLOAD ISZERO PUSH2 0x5F6 JUMPI DUP2 MLOAD ISZERO PUSH2 0x5B1 JUMPI PUSH2 0x233 PUSH1 0x5 DUP3 GT ISZERO PUSH2 0x1519 JUMP JUMPDEST PUSH1 0x6 SLOAD PUSH0 NOT DUP2 ADD DUP2 DUP2 GT PUSH2 0x59D JUMPI PUSH0 MSTORE PUSH0 PUSH1 0x20 MSTORE PUSH1 0x1 DUP1 PUSH1 0xA0 SHL SUB PUSH1 0x40 PUSH0 KECCAK256 SLOAD AND SWAP1 PUSH1 0x40 MLOAD PUSH4 0x5D5E9ECD PUSH1 0xE1 SHL DUP2 MSTORE PUSH1 0x20 DUP2 PUSH1 0x4 DUP2 DUP7 GAS STATICCALL SWAP1 DUP2 ISZERO PUSH2 0x448 JUMPI PUSH0 SWAP2 PUSH2 0x562 JUMPI JUMPDEST POP PUSH2 0x457 JUMPI JUMPDEST POP PUSH1 0x1 DUP1 PUSH1 0xA0 SHL SUB AND PUSH1 0x7 SLOAD DUP2 EXTCODESIZE ISZERO PUSH2 0x453 JUMPI PUSH1 0x40 MLOAD SWAP1 PUSH4 0x7E8F58FF PUSH1 0xE1 SHL DUP3 MSTORE PUSH1 0x4 DUP3 ADD MSTORE PUSH1 0xA0 PUSH1 0x24 DUP3 ADD MSTORE PUSH0 DUP2 DUP1 PUSH2 0x2D1 PUSH2 0x2BF PUSH1 0xA4 DUP4 ADD DUP12 PUSH2 0x10E2 JUMP JUMPDEST DUP3 DUP2 SUB PUSH1 0x3 NOT ADD PUSH1 0x44 DUP5 ADD MSTORE DUP9 PUSH2 0x10E2 JUMP JUMPDEST TIMESTAMP PUSH1 0x64 DUP4 ADD MSTORE DUP7 PUSH1 0x84 DUP4 ADD MSTORE SUB DUP2 DUP4 DUP7 GAS CALL DUP1 ISZERO PUSH2 0x448 JUMPI PUSH2 0x432 JUMPI JUMPDEST POP PUSH2 0x40F SWAP4 SWAP5 PUSH1 0x7 SLOAD DUP7 MSTORE PUSH1 0x1 PUSH1 0x20 MSTORE PUSH1 0x40 DUP7 KECCAK256 PUSH1 0x1 DUP1 PUSH1 0xA0 SHL SUB DUP4 AND PUSH12 0xFFFFFFFFFFFFFFFFFFFFFFFF PUSH1 0xA0 SHL DUP3 SLOAD AND OR SWAP1 SSTORE PUSH32 0x555B057972C66BD1796F2018BBCDE1880D15866A26587E16EE62619DA01AD41D PUSH1 0x40 MLOAD SWAP2 PUSH2 0x36A DUP7 MLOAD SWAP4 PUSH1 0x20 DUP2 DUP2 DUP11 ADD SWAP7 DUP1 DUP9 DUP4 MCOPY DUP2 ADD PUSH1 0x2 DUP2 MSTORE SUB ADD SWAP1 KECCAK256 PUSH1 0x7 SLOAD SWAP1 PUSH2 0x1556 JUMP JUMPDEST DUP5 PUSH2 0x415 JUMPI JUMPDEST PUSH3 0x15180 TIMESTAMP DIV DUP9 MSTORE PUSH1 0x4 PUSH1 0x20 MSTORE PUSH2 0x38D PUSH1 0x40 DUP10 KECCAK256 PUSH1 0x7 SLOAD SWAP1 PUSH2 0x1556 JUMP JUMPDEST PUSH1 0x40 MLOAD PUSH1 0x20 DUP2 ADD SWAP1 PUSH2 0x3B9 PUSH1 0x20 DUP3 DUP6 MLOAD DUP1 DUP4 DUP9 ADD DUP8 MCOPY DUP2 ADD DUP14 DUP4 DUP3 ADD MSTORE SUB ADD PUSH1 0x1F NOT DUP2 ADD DUP4 MSTORE DUP3 PUSH2 0x117C JUMP JUMPDEST MLOAD SWAP1 KECCAK256 SWAP3 PUSH1 0x7 SLOAD SWAP7 DUP8 SWAP5 DUP11 MSTORE PUSH1 0x5 PUSH1 0x20 MSTORE DUP5 PUSH1 0x40 DUP12 KECCAK256 SSTORE PUSH1 0x40 MLOAD SWAP2 DUP3 SWAP2 MLOAD DUP1 SWAP2 DUP4 MCOPY DUP2 ADD DUP11 DUP2 MSTORE SUB SWAP1 KECCAK256 SWAP4 PUSH2 0x3F9 PUSH1 0x40 MLOAD SWAP3 PUSH1 0x60 DUP5 MSTORE PUSH1 0x60 DUP5 ADD SWAP1 PUSH2 0x10E2 JUMP JUMPDEST SWAP6 PUSH1 0x20 DUP4 ADD MSTORE PUSH1 0x40 DUP3 ADD MSTORE DUP1 TIMESTAMP SWAP6 SUB SWAP1 LOG4 PUSH2 0x158F JUMP JUMPDEST PUSH1 0x7 SSTORE DUP1 RETURN JUMPDEST DUP5 DUP9 MSTORE PUSH1 0x3 PUSH1 0x20 MSTORE PUSH2 0x42D PUSH1 0x40 DUP10 KECCAK256 PUSH1 0x7 SLOAD SWAP1 PUSH2 0x1556 JUMP JUMPDEST PUSH2 0x370 JUMP JUMPDEST PUSH2 0x40F SWAP5 POP PUSH0 PUSH2 0x441 SWAP2 PUSH2 0x117C JUMP JUMPDEST PUSH0 SWAP4 PUSH2 0x2EE JUMP JUMPDEST PUSH1 0x40 MLOAD RETURNDATASIZE PUSH0 DUP3 RETURNDATACOPY RETURNDATASIZE SWAP1 REVERT JUMPDEST PUSH0 DUP1 REVERT JUMPDEST PUSH1 0x64 SWAP2 POP LT ISZERO PUSH2 0x51D JUMPI PUSH1 0x40 MLOAD PUSH2 0x8F1 DUP1 DUP3 ADD SWAP1 DUP3 DUP3 LT PUSH8 0xFFFFFFFFFFFFFFFF DUP4 GT OR PUSH2 0x509 JUMPI PUSH1 0x20 SWAP2 DUP4 SWAP2 PUSH2 0x159E DUP4 CODECOPY ADDRESS DUP2 MSTORE SUB ADD SWAP1 PUSH0 CREATE DUP1 ISZERO PUSH2 0x448 JUMPI PUSH1 0x1 DUP1 PUSH1 0xA0 SHL SUB AND PUSH1 0x6 SLOAD PUSH0 MSTORE PUSH0 PUSH1 0x20 MSTORE PUSH1 0x40 PUSH0 KECCAK256 PUSH1 0x1 DUP1 PUSH1 0xA0 SHL SUB DUP3 AND PUSH12 0xFFFFFFFFFFFFFFFFFFFFFFFF PUSH1 0xA0 SHL DUP3 SLOAD AND OR SWAP1 SSTORE PUSH2 0x500 PUSH1 0x6 SLOAD DUP3 PUSH32 0x9DEDE39B617164D465CA522F28BB62B2E885CE5793BCE366296D86BA2310DE18 PUSH1 0x20 PUSH1 0x40 MLOAD DUP5 DUP2 MSTORE LOG2 PUSH2 0x158F JUMP JUMPDEST PUSH1 0x6 SSTORE PUSH0 PUSH2 0x27F JUMP JUMPDEST PUSH4 0x4E487B71 PUSH1 0xE0 SHL PUSH0 MSTORE PUSH1 0x41 PUSH1 0x4 MSTORE PUSH1 0x24 PUSH0 REVERT JUMPDEST PUSH1 0x40 MLOAD PUSH3 0x461BCD PUSH1 0xE5 SHL DUP2 MSTORE PUSH1 0x20 PUSH1 0x4 DUP3 ADD MSTORE PUSH1 0x1B PUSH1 0x24 DUP3 ADD MSTORE PUSH32 0x4D6178206368696C6420636F6E74726163747320726561636865640000000000 PUSH1 0x44 DUP3 ADD MSTORE PUSH1 0x64 SWAP1 REVERT JUMPDEST SWAP1 POP PUSH1 0x20 DUP2 RETURNDATASIZE PUSH1 0x20 GT PUSH2 0x595 JUMPI JUMPDEST DUP2 PUSH2 0x57D PUSH1 0x20 SWAP4 DUP4 PUSH2 0x117C JUMP JUMPDEST DUP2 ADD SUB SLT PUSH2 0x453 JUMPI MLOAD DUP1 ISZERO ISZERO DUP2 SUB PUSH2 0x453 JUMPI PUSH0 PUSH2 0x279 JUMP JUMPDEST RETURNDATASIZE SWAP2 POP PUSH2 0x570 JUMP JUMPDEST PUSH4 0x4E487B71 PUSH1 0xE0 SHL PUSH0 MSTORE PUSH1 0x11 PUSH1 0x4 MSTORE PUSH1 0x24 PUSH0 REVERT JUMPDEST PUSH1 0x40 MLOAD PUSH3 0x461BCD PUSH1 0xE5 SHL DUP2 MSTORE PUSH1 0x20 PUSH1 0x4 DUP3 ADD MSTORE PUSH1 0x19 PUSH1 0x24 DUP3 ADD MSTORE PUSH32 0x4461746120747970652063616E6E6F7420626520656D70747900000000000000 PUSH1 0x44 DUP3 ADD MSTORE PUSH1 0x64 SWAP1 REVERT JUMPDEST PUSH1 0x40 MLOAD PUSH3 0x461BCD PUSH1 0xE5 SHL DUP2 MSTORE PUSH1 0x20 PUSH1 0x4 DUP3 ADD MSTORE PUSH1 0x14 PUSH1 0x24 DUP3 ADD MSTORE PUSH20 0x446174612063616E6E6F7420626520656D707479 PUSH1 0x60 SHL PUSH1 0x44 DUP3 ADD MSTORE PUSH1 0x64 SWAP1 REVERT JUMPDEST PUSH1 0x40 MLOAD PUSH3 0x461BCD PUSH1 0xE5 SHL DUP2 MSTORE PUSH1 0x20 PUSH1 0x4 DUP3 ADD MSTORE PUSH1 0x13 PUSH1 0x24 DUP3 ADD MSTORE PUSH19 0x13DB9B1E481BDDDB995C8818D85B8818D85B1B PUSH1 0x6A SHL PUSH1 0x44 DUP3 ADD MSTORE PUSH1 0x64 SWAP1 REVERT JUMPDEST CALLVALUE PUSH2 0x453 JUMPI PUSH1 0x20 CALLDATASIZE PUSH1 0x3 NOT ADD SLT PUSH2 0x453 JUMPI PUSH1 0x4 CALLDATALOAD PUSH0 MSTORE PUSH1 0x5 PUSH1 0x20 MSTORE PUSH1 0x40 PUSH0 KECCAK256 SLOAD DUP1 PUSH0 MSTORE PUSH1 0x1 PUSH1 0x20 MSTORE PUSH0 PUSH1 0x1 DUP1 PUSH1 0xA0 SHL SUB PUSH1 0x40 DUP3 KECCAK256 SLOAD AND SWAP2 PUSH2 0x6AF DUP4 ISZERO ISZERO PUSH2 0x132F JUMP JUMPDEST PUSH1 0x24 PUSH1 0x40 MLOAD DUP1 SWAP5 DUP2 SWAP4 PUSH4 0x178FE3F PUSH1 0xE0 SHL DUP4 MSTORE PUSH1 0x4 DUP4 ADD MSTORE GAS STATICCALL DUP1 ISZERO PUSH2 0x448 JUMPI PUSH0 PUSH0 SWAP2 PUSH0 PUSH0 SWAP2 PUSH2 0x6EF JUMPI JUMPDEST SWAP1 PUSH2 0x6EB SWAP2 PUSH1 0x40 MLOAD SWAP5 DUP6 SWAP5 DUP6 PUSH2 0x1106 JUMP JUMPDEST SUB SWAP1 RETURN JUMPDEST POP POP POP POP PUSH2 0x711 PUSH2 0x6EB SWAP2 RETURNDATASIZE DUP1 PUSH0 DUP4 RETURNDATACOPY PUSH2 0x709 DUP2 DUP4 PUSH2 0x117C JUMP JUMPDEST DUP2 ADD SWAP1 PUSH2 0x13B2 JUMP JUMPDEST SWAP2 SWAP4 POP DUP4 SWAP3 SWAP2 SWAP1 PUSH2 0x6DA JUMP JUMPDEST CALLVALUE PUSH2 0x453 JUMPI PUSH1 0x20 CALLDATASIZE PUSH1 0x3 NOT ADD SLT PUSH2 0x453 JUMPI PUSH1 0xFF PUSH2 0x738 PUSH2 0x131F JUMP JUMPDEST AND PUSH2 0x746 PUSH1 0x5 DUP3 GT ISZERO PUSH2 0x1519 JUMP JUMPDEST PUSH0 MSTORE PUSH1 0x3 PUSH1 0x20 MSTORE PUSH1 0x20 PUSH1 0x40 PUSH0 KECCAK256 SLOAD PUSH1 0x40 MLOAD SWAP1 DUP2 MSTORE RETURN JUMPDEST CALLVALUE PUSH2 0x453 JUMPI PUSH1 0x20 CALLDATASIZE PUSH1 0x3 NOT ADD SLT PUSH2 0x453 JUMPI PUSH1 0x4 CALLDATALOAD PUSH8 0xFFFFFFFFFFFFFFFF DUP2 GT PUSH2 0x453 JUMPI PUSH1 0x20 DUP1 PUSH2 0x791 DUP2 SWAP4 CALLDATASIZE SWAP1 PUSH1 0x4 ADD PUSH2 0x11BA JUMP JUMPDEST PUSH1 0x40 MLOAD SWAP3 DUP2 DUP5 SWAP3 MLOAD SWAP2 DUP3 SWAP2 ADD DUP4 MCOPY DUP2 ADD PUSH1 0x2 DUP2 MSTORE SUB ADD SWAP1 KECCAK256 SLOAD PUSH1 0x40 MLOAD SWAP1 DUP2 MSTORE RETURN JUMPDEST CALLVALUE PUSH2 0x453 JUMPI PUSH1 0x60 CALLDATASIZE PUSH1 0x3 NOT ADD SLT PUSH2 0x453 JUMPI PUSH2 0x7CB PUSH2 0x131F JUMP JUMPDEST PUSH1 0x24 CALLDATALOAD PUSH1 0xFF PUSH1 0x44 CALLDATALOAD SWAP3 AND PUSH2 0x7E2 PUSH1 0x5 DUP3 GT ISZERO PUSH2 0x1519 JUMP JUMPDEST PUSH0 MSTORE PUSH1 0x3 PUSH1 0x20 MSTORE PUSH1 0x40 PUSH0 KECCAK256 SWAP1 PUSH1 0x40 MLOAD DUP1 DUP4 PUSH1 0x20 DUP3 SWAP6 SLOAD SWAP4 DUP5 DUP2 MSTORE ADD SWAP1 PUSH0 MSTORE PUSH1 0x20 PUSH0 KECCAK256 SWAP3 PUSH0 JUMPDEST DUP2 DUP2 LT PUSH2 0x973 JUMPI POP POP PUSH2 0x81C SWAP3 POP SUB DUP4 PUSH2 0x117C JUMP JUMPDEST PUSH2 0x829 DUP3 MLOAD DUP5 GT ISZERO PUSH2 0x1415 JUMP JUMPDEST DUP1 PUSH2 0x835 DUP5 DUP5 MLOAD PUSH2 0x1458 JUMP JUMPDEST GT ISZERO PUSH2 0x961 JUMPI SWAP1 JUMPDEST PUSH2 0x846 DUP3 PUSH2 0x147D JUMP JUMPDEST SWAP1 PUSH2 0x850 DUP4 PUSH2 0x14AF JUMP JUMPDEST SWAP3 PUSH2 0x85A DUP2 PUSH2 0x14AF JUMP JUMPDEST PUSH2 0x863 DUP3 PUSH2 0x147D JUMP JUMPDEST SWAP2 PUSH2 0x86D DUP2 PUSH2 0x147D JUMP JUMPDEST SWAP4 PUSH0 JUMPDEST DUP3 DUP2 LT PUSH2 0x88C JUMPI POP POP POP SWAP1 PUSH2 0x6EB SWAP3 SWAP2 PUSH1 0x40 MLOAD SWAP6 DUP7 SWAP6 DUP7 PUSH2 0x12C1 JUMP JUMPDEST PUSH2 0x89F PUSH2 0x899 DUP3 DUP12 PUSH2 0x150C JUMP JUMPDEST DUP4 PUSH2 0x14F8 JUMP JUMPDEST MLOAD PUSH2 0x8AA DUP3 DUP10 PUSH2 0x14F8 JUMP JUMPDEST MSTORE PUSH2 0x8B5 DUP2 DUP9 PUSH2 0x14F8 JUMP JUMPDEST MLOAD PUSH0 SWAP1 DUP2 MSTORE PUSH1 0x1 PUSH1 0x20 MSTORE PUSH1 0x40 DUP2 KECCAK256 SLOAD PUSH1 0x1 PUSH1 0x1 PUSH1 0xA0 SHL SUB AND SWAP2 SWAP1 PUSH2 0x8D9 DUP3 DUP11 PUSH2 0x14F8 JUMP JUMPDEST MLOAD PUSH1 0x24 PUSH1 0x40 MLOAD DUP1 SWAP6 DUP2 SWAP4 PUSH4 0x178FE3F PUSH1 0xE0 SHL DUP4 MSTORE PUSH1 0x4 DUP4 ADD MSTORE GAS STATICCALL SWAP2 DUP3 ISZERO PUSH2 0x448 JUMPI PUSH1 0x1 SWAP3 PUSH0 SWAP2 PUSH0 SWAP2 PUSH0 SWAP2 PUSH0 SWAP2 PUSH2 0x943 JUMPI JUMPDEST POP PUSH1 0xFF PUSH2 0x918 DUP7 DUP14 PUSH2 0x14F8 JUMP JUMPDEST SWAP2 AND SWAP1 MSTORE PUSH2 0x926 DUP5 DUP11 PUSH2 0x14F8 JUMP JUMPDEST MSTORE PUSH2 0x931 DUP4 DUP9 PUSH2 0x14F8 JUMP JUMPDEST MSTORE PUSH2 0x93C DUP3 DUP12 PUSH2 0x14F8 JUMP JUMPDEST MSTORE ADD PUSH2 0x870 JUMP JUMPDEST SWAP3 POP POP POP PUSH2 0x95B SWAP2 POP RETURNDATASIZE DUP1 PUSH0 DUP4 RETURNDATACOPY PUSH2 0x709 DUP2 DUP4 PUSH2 0x117C JUMP JUMPDEST DUP15 PUSH2 0x90B JUMP JUMPDEST POP PUSH2 0x96D DUP3 DUP3 MLOAD PUSH2 0x1458 JUMP JUMPDEST SWAP1 PUSH2 0x83D JUMP JUMPDEST DUP5 SLOAD DUP4 MSTORE PUSH1 0x1 SWAP5 DUP6 ADD SWAP5 DUP8 SWAP5 POP PUSH1 0x20 SWAP1 SWAP4 ADD SWAP3 ADD PUSH2 0x807 JUMP JUMPDEST CALLVALUE PUSH2 0x453 JUMPI PUSH1 0x60 CALLDATASIZE PUSH1 0x3 NOT ADD SLT PUSH2 0x453 JUMPI PUSH1 0x4 CALLDATALOAD PUSH8 0xFFFFFFFFFFFFFFFF DUP2 GT PUSH2 0x453 JUMPI PUSH2 0x9BD SWAP1 CALLDATASIZE SWAP1 PUSH1 0x4 ADD PUSH2 0x11BA JUMP JUMPDEST PUSH1 0x24 CALLDATALOAD PUSH1 0x20 DUP1 PUSH1 0x44 CALLDATALOAD SWAP4 PUSH1 0x40 MLOAD SWAP3 DUP2 DUP5 SWAP3 MLOAD SWAP2 DUP3 SWAP2 ADD DUP4 MCOPY DUP2 ADD PUSH1 0x2 DUP2 MSTORE SUB ADD SWAP1 KECCAK256 SWAP1 PUSH1 0x40 MLOAD DUP1 DUP4 PUSH1 0x20 DUP3 SWAP6 SLOAD SWAP4 DUP5 DUP2 MSTORE ADD SWAP1 PUSH0 MSTORE PUSH1 0x20 PUSH0 KECCAK256 SWAP3 PUSH0 JUMPDEST DUP2 DUP2 LT PUSH2 0xB5F JUMPI POP POP PUSH2 0xA0E SWAP3 POP SUB DUP4 PUSH2 0x117C JUMP JUMPDEST PUSH2 0xA1B DUP3 MLOAD DUP5 GT ISZERO PUSH2 0x1415 JUMP JUMPDEST DUP1 PUSH2 0xA27 DUP5 DUP5 MLOAD PUSH2 0x1458 JUMP JUMPDEST GT ISZERO PUSH2 0xB4D JUMPI SWAP1 JUMPDEST PUSH2 0xA38 DUP3 PUSH2 0x147D JUMP JUMPDEST SWAP1 PUSH2 0xA42 DUP4 PUSH2 0x14AF JUMP JUMPDEST SWAP3 PUSH2 0xA4C DUP2 PUSH2 0x14AF JUMP JUMPDEST PUSH2 0xA55 DUP3 PUSH2 0x147D JUMP JUMPDEST SWAP2 PUSH2 0xA5F DUP2 PUSH2 0x147D JUMP JUMPDEST SWAP4 PUSH0 JUMPDEST DUP3 DUP2 LT PUSH2 0xA7E JUMPI POP POP POP SWAP1 PUSH2 0x6EB SWAP3 SWAP2 PUSH1 0x40 MLOAD SWAP6 DUP7 SWAP6 DUP7 PUSH2 0x12C1 JUMP JUMPDEST PUSH2 0xA8B PUSH2 0x899 DUP3 DUP12 PUSH2 0x150C JUMP JUMPDEST MLOAD PUSH2 0xA96 DUP3 DUP10 PUSH2 0x14F8 JUMP JUMPDEST MSTORE PUSH2 0xAA1 DUP2 DUP9 PUSH2 0x14F8 JUMP JUMPDEST MLOAD PUSH0 SWAP1 DUP2 MSTORE PUSH1 0x1 PUSH1 0x20 MSTORE PUSH1 0x40 DUP2 KECCAK256 SLOAD PUSH1 0x1 PUSH1 0x1 PUSH1 0xA0 SHL SUB AND SWAP2 SWAP1 PUSH2 0xAC5 DUP3 DUP11 PUSH2 0x14F8 JUMP JUMPDEST MLOAD PUSH1 0x24 PUSH1 0x40 MLOAD DUP1 SWAP6 DUP2 SWAP4 PUSH4 0x178FE3F PUSH1 0xE0 SHL DUP4 MSTORE PUSH1 0x4 DUP4 ADD MSTORE GAS STATICCALL SWAP2 DUP3 ISZERO PUSH2 0x448 JUMPI PUSH1 0x1 SWAP3 PUSH0 SWAP2 PUSH0 SWAP2 PUSH0 SWAP2 PUSH0 SWAP2 PUSH2 0xB2F JUMPI JUMPDEST POP PUSH1 0xFF PUSH2 0xB04 DUP7 DUP14 PUSH2 0x14F8 JUMP JUMPDEST SWAP2 AND SWAP1 MSTORE PUSH2 0xB12 DUP5 DUP11 PUSH2 0x14F8 JUMP JUMPDEST MSTORE PUSH2 0xB1D DUP4 DUP9 PUSH2 0x14F8 JUMP JUMPDEST MSTORE PUSH2 0xB28 DUP3 DUP12 PUSH2 0x14F8 JUMP JUMPDEST MSTORE ADD PUSH2 0xA62 JUMP JUMPDEST SWAP3 POP POP POP PUSH2 0xB47 SWAP2 POP RETURNDATASIZE DUP1 PUSH0 DUP4 RETURNDATACOPY PUSH2 0x709 DUP2 DUP4 PUSH2 0x117C JUMP JUMPDEST DUP15 PUSH2 0xAF7 JUMP JUMPDEST POP PUSH2 0xB59 DUP3 DUP3 MLOAD PUSH2 0x1458 JUMP JUMPDEST SWAP1 PUSH2 0xA2F JUMP JUMPDEST DUP5 SLOAD DUP4 MSTORE PUSH1 0x1 SWAP5 DUP6 ADD SWAP5 DUP8 SWAP5 POP PUSH1 0x20 SWAP1 SWAP4 ADD SWAP3 ADD PUSH2 0x9F9 JUMP JUMPDEST CALLVALUE PUSH2 0x453 JUMPI PUSH1 0x20 CALLDATASIZE PUSH1 0x3 NOT ADD SLT PUSH2 0x453 JUMPI PUSH1 0x4 CALLDATALOAD PUSH0 MSTORE PUSH1 0x5 PUSH1 0x20 MSTORE PUSH1 0x20 PUSH1 0x40 PUSH0 KECCAK256 SLOAD PUSH1 0x40 MLOAD SWAP1 DUP2 MSTORE RETURN JUMPDEST CALLVALUE PUSH2 0x453 JUMPI PUSH0 CALLDATASIZE PUSH1 0x3 NOT ADD SLT PUSH2 0x453 JUMPI PUSH1 0x20 PUSH1 0x6 SLOAD PUSH1 0x40 MLOAD SWAP1 DUP2 MSTORE RETURN JUMPDEST CALLVALUE PUSH2 0x453 JUMPI PUSH1 0x20 CALLDATASIZE PUSH1 0x3 NOT ADD SLT PUSH2 0x453 JUMPI PUSH1 0x4 CALLDATALOAD PUSH0 MSTORE PUSH0 PUSH1 0x20 MSTORE PUSH1 0x20 PUSH1 0x1 DUP1 PUSH1 0xA0 SHL SUB PUSH1 0x40 PUSH0 KECCAK256 SLOAD AND PUSH1 0x40 MLOAD SWAP1 DUP2 MSTORE RETURN JUMPDEST CALLVALUE PUSH2 0x453 JUMPI PUSH2 0xBFE CALLDATASIZE PUSH2 0x113D JUMP JUMPDEST PUSH1 0x7 SLOAD DUP1 DUP4 LT ISZERO PUSH2 0xDA3 JUMPI DUP2 ISZERO ISZERO SWAP1 DUP2 PUSH2 0xD8F JUMPI JUMPDEST POP ISZERO PUSH2 0xD5A JUMPI PUSH2 0xC22 DUP2 PUSH2 0x14AF JUMP JUMPDEST SWAP2 PUSH2 0xC2C DUP3 PUSH2 0x14AF JUMP JUMPDEST PUSH2 0xC35 DUP4 PUSH2 0x147D JUMP JUMPDEST SWAP2 PUSH2 0xC3F DUP5 PUSH2 0x147D JUMP JUMPDEST SWAP4 PUSH0 JUMPDEST DUP2 DUP2 LT PUSH2 0xC97 JUMPI PUSH2 0xC6D DUP8 PUSH2 0x6EB DUP9 PUSH2 0xC89 DUP10 PUSH2 0xC7B DUP11 PUSH1 0x40 MLOAD SWAP8 DUP9 SWAP8 PUSH1 0x80 DUP10 MSTORE PUSH1 0x80 DUP10 ADD SWAP1 PUSH2 0x1233 JUMP JUMPDEST SWAP1 DUP8 DUP3 SUB PUSH1 0x20 DUP10 ADD MSTORE PUSH2 0x1233 JUMP JUMPDEST SWAP1 DUP6 DUP3 SUB PUSH1 0x40 DUP8 ADD MSTORE PUSH2 0x1200 JUMP JUMPDEST SWAP1 DUP4 DUP3 SUB PUSH1 0x60 DUP6 ADD MSTORE PUSH2 0x128B JUMP JUMPDEST PUSH2 0xCA1 DUP2 DUP5 PUSH2 0x150C JUMP JUMPDEST PUSH0 SWAP1 DUP2 MSTORE PUSH1 0x1 PUSH1 0x20 MSTORE PUSH1 0x40 SWAP1 KECCAK256 SLOAD PUSH1 0x1 PUSH1 0x1 PUSH1 0xA0 SHL SUB AND SWAP1 DUP2 PUSH2 0xCC9 JUMPI JUMPDEST PUSH1 0x1 SWAP2 POP ADD PUSH2 0xC42 JUMP JUMPDEST PUSH0 PUSH2 0xCD4 DUP3 DUP7 PUSH2 0x150C JUMP JUMPDEST PUSH1 0x24 PUSH1 0x40 MLOAD DUP1 SWAP6 DUP2 SWAP4 PUSH4 0x178FE3F PUSH1 0xE0 SHL DUP4 MSTORE PUSH1 0x4 DUP4 ADD MSTORE GAS STATICCALL SWAP2 DUP3 ISZERO PUSH2 0x448 JUMPI PUSH1 0x1 SWAP3 PUSH0 SWAP2 PUSH0 SWAP2 PUSH0 SWAP2 PUSH0 SWAP2 PUSH2 0xD3C JUMPI JUMPDEST POP PUSH1 0xFF PUSH2 0xD12 DUP7 DUP14 PUSH2 0x14F8 JUMP JUMPDEST SWAP2 AND SWAP1 MSTORE PUSH2 0xD20 DUP5 DUP11 PUSH2 0x14F8 JUMP JUMPDEST MSTORE PUSH2 0xD2B DUP4 DUP9 PUSH2 0x14F8 JUMP JUMPDEST MSTORE PUSH2 0xD36 DUP3 DUP11 PUSH2 0x14F8 JUMP JUMPDEST MSTORE PUSH2 0xCBF JUMP JUMPDEST SWAP3 POP POP POP PUSH2 0xD54 SWAP2 POP RETURNDATASIZE DUP1 PUSH0 DUP4 RETURNDATACOPY PUSH2 0x709 DUP2 DUP4 PUSH2 0x117C JUMP JUMPDEST DUP13 PUSH2 0xD05 JUMP JUMPDEST PUSH1 0x40 MLOAD PUSH3 0x461BCD PUSH1 0xE5 SHL DUP2 MSTORE PUSH1 0x20 PUSH1 0x4 DUP3 ADD MSTORE PUSH1 0xD PUSH1 0x24 DUP3 ADD MSTORE PUSH13 0x125B9D985B1A590818DBDD5B9D PUSH1 0x9A SHL PUSH1 0x44 DUP3 ADD MSTORE PUSH1 0x64 SWAP1 REVERT JUMPDEST SWAP1 POP PUSH2 0xD9B DUP3 DUP5 PUSH2 0x150C JUMP JUMPDEST GT ISZERO DUP4 PUSH2 0xC13 JUMP JUMPDEST PUSH1 0x40 MLOAD PUSH3 0x461BCD PUSH1 0xE5 SHL DUP2 MSTORE PUSH1 0x20 PUSH1 0x4 DUP3 ADD MSTORE PUSH1 0x10 PUSH1 0x24 DUP3 ADD MSTORE PUSH16 0x125B9D985B1A59081CDD185C9D081251 PUSH1 0x82 SHL PUSH1 0x44 DUP3 ADD MSTORE PUSH1 0x64 SWAP1 REVERT JUMPDEST CALLVALUE PUSH2 0x453 JUMPI PUSH0 CALLDATASIZE PUSH1 0x3 NOT ADD SLT PUSH2 0x453 JUMPI PUSH1 0x8 SLOAD PUSH1 0x40 MLOAD PUSH1 0x1 PUSH1 0x1 PUSH1 0xA0 SHL SUB SWAP1 SWAP2 AND DUP2 MSTORE PUSH1 0x20 SWAP1 RETURN JUMPDEST CALLVALUE PUSH2 0x453 JUMPI PUSH0 CALLDATASIZE PUSH1 0x3 NOT ADD SLT PUSH2 0x453 JUMPI PUSH1 0x20 PUSH1 0x7 SLOAD PUSH1 0x40 MLOAD SWAP1 DUP2 MSTORE RETURN JUMPDEST CALLVALUE PUSH2 0x453 JUMPI PUSH0 CALLDATASIZE PUSH1 0x3 NOT ADD SLT PUSH2 0x453 JUMPI PUSH1 0x20 PUSH1 0x40 MLOAD PUSH1 0x64 DUP2 MSTORE RETURN JUMPDEST CALLVALUE PUSH2 0x453 JUMPI PUSH1 0x40 CALLDATASIZE PUSH1 0x3 NOT ADD SLT PUSH2 0x453 JUMPI PUSH2 0xE54 PUSH2 0x131F JUMP JUMPDEST PUSH1 0xFF PUSH1 0x24 CALLDATALOAD SWAP2 AND PUSH0 MSTORE PUSH1 0x3 PUSH1 0x20 MSTORE PUSH1 0x40 PUSH0 KECCAK256 DUP1 SLOAD DUP3 LT ISZERO PUSH2 0x453 JUMPI PUSH1 0x20 SWAP2 PUSH2 0x15C SWAP2 PUSH2 0x1153 JUMP JUMPDEST CALLVALUE PUSH2 0x453 JUMPI PUSH1 0x60 CALLDATASIZE PUSH1 0x3 NOT ADD SLT PUSH2 0x453 JUMPI PUSH1 0x4 CALLDATALOAD PUSH1 0x24 CALLDATALOAD PUSH1 0x44 CALLDATALOAD PUSH8 0xFFFFFFFFFFFFFFFF DUP2 GT PUSH2 0x453 JUMPI PUSH1 0x20 PUSH2 0xEB5 DUP2 SWAP3 CALLDATASIZE SWAP1 PUSH1 0x4 ADD PUSH2 0x11BA JUMP JUMPDEST PUSH1 0x40 MLOAD SWAP3 DUP2 DUP5 SWAP3 MLOAD SWAP2 DUP3 SWAP2 ADD DUP4 MCOPY DUP2 ADD PUSH1 0x2 DUP2 MSTORE SUB ADD SWAP1 KECCAK256 SWAP2 PUSH1 0x40 MLOAD DUP1 DUP5 PUSH1 0x20 DUP3 SWAP7 SLOAD SWAP4 DUP5 DUP2 MSTORE ADD SWAP1 PUSH0 MSTORE PUSH1 0x20 PUSH0 KECCAK256 SWAP3 PUSH0 JUMPDEST DUP2 DUP2 LT PUSH2 0x1063 JUMPI POP POP PUSH2 0xEFC SWAP3 POP SUB DUP5 PUSH2 0x117C JUMP JUMPDEST PUSH2 0xF09 DUP4 MLOAD DUP4 GT ISZERO PUSH2 0x1415 JUMP JUMPDEST DUP1 PUSH2 0xF15 DUP4 DUP6 MLOAD PUSH2 0x1458 JUMP JUMPDEST GT ISZERO PUSH2 0x1051 JUMPI SWAP2 JUMPDEST PUSH2 0xF26 DUP4 PUSH2 0x147D JUMP JUMPDEST SWAP1 PUSH2 0xF30 DUP5 PUSH2 0x14AF JUMP JUMPDEST SWAP3 PUSH2 0xF3A DUP6 PUSH2 0x14AF JUMP JUMPDEST PUSH2 0xF43 DUP7 PUSH2 0x147D JUMP JUMPDEST SWAP2 PUSH2 0xF4D DUP8 PUSH2 0x147D JUMP JUMPDEST SWAP4 PUSH0 JUMPDEST DUP9 DUP2 LT PUSH2 0xF6C JUMPI POP POP POP SWAP1 PUSH2 0x6EB SWAP3 SWAP2 PUSH1 0x40 MLOAD SWAP6 DUP7 SWAP6 DUP7 PUSH2 0x12C1 JUMP JUMPDEST DUP2 MLOAD PUSH0 NOT DUP2 ADD SWAP1 DUP2 GT PUSH2 0x59D JUMPI PUSH2 0x899 DUP3 PUSH2 0xF8A DUP7 PUSH2 0xF8F SWAP5 PUSH2 0x1458 JUMP JUMPDEST PUSH2 0x1458 JUMP JUMPDEST MLOAD PUSH2 0xF9A DUP3 DUP10 PUSH2 0x14F8 JUMP JUMPDEST MSTORE PUSH2 0xFA5 DUP2 DUP9 PUSH2 0x14F8 JUMP JUMPDEST MLOAD PUSH0 SWAP1 DUP2 MSTORE PUSH1 0x1 PUSH1 0x20 MSTORE PUSH1 0x40 DUP2 KECCAK256 SLOAD PUSH1 0x1 PUSH1 0x1 PUSH1 0xA0 SHL SUB AND SWAP2 SWAP1 PUSH2 0xFC9 DUP3 DUP11 PUSH2 0x14F8 JUMP JUMPDEST MLOAD PUSH1 0x24 PUSH1 0x40 MLOAD DUP1 SWAP6 DUP2 SWAP4 PUSH4 0x178FE3F PUSH1 0xE0 SHL DUP4 MSTORE PUSH1 0x4 DUP4 ADD MSTORE GAS STATICCALL SWAP2 DUP3 ISZERO PUSH2 0x448 JUMPI PUSH1 0x1 SWAP3 PUSH0 SWAP2 PUSH0 SWAP2 PUSH0 SWAP2 PUSH0 SWAP2 PUSH2 0x1033 JUMPI JUMPDEST POP PUSH1 0xFF PUSH2 0x1008 DUP7 DUP14 PUSH2 0x14F8 JUMP JUMPDEST SWAP2 AND SWAP1 MSTORE PUSH2 0x1016 DUP5 DUP11 PUSH2 0x14F8 JUMP JUMPDEST MSTORE PUSH2 0x1021 DUP4 DUP9 PUSH2 0x14F8 JUMP JUMPDEST MSTORE PUSH2 0x102C DUP3 DUP12 PUSH2 0x14F8 JUMP JUMPDEST MSTORE ADD PUSH2 0xF50 JUMP JUMPDEST SWAP3 POP POP POP PUSH2 0x104B SWAP2 POP RETURNDATASIZE DUP1 PUSH0 DUP4 RETURNDATACOPY PUSH2 0x709 DUP2 DUP4 PUSH2 0x117C JUMP JUMPDEST DUP15 PUSH2 0xFFB JUMP JUMPDEST POP PUSH2 0x105D DUP2 DUP4 MLOAD PUSH2 0x1458 JUMP JUMPDEST SWAP2 PUSH2 0xF1D JUMP JUMPDEST DUP5 SLOAD DUP4 MSTORE PUSH1 0x1 SWAP5 DUP6 ADD SWAP5 DUP9 SWAP5 POP PUSH1 0x20 SWAP1 SWAP4 ADD SWAP3 ADD PUSH2 0xEE7 JUMP JUMPDEST CALLVALUE PUSH2 0x453 JUMPI PUSH2 0x108A CALLDATASIZE PUSH2 0x113D JUMP JUMPDEST SWAP1 PUSH0 MSTORE PUSH1 0x4 PUSH1 0x20 MSTORE PUSH1 0x40 PUSH0 KECCAK256 DUP1 SLOAD DUP3 LT ISZERO PUSH2 0x453 JUMPI PUSH1 0x20 SWAP2 PUSH2 0x15C SWAP2 PUSH2 0x1153 JUMP JUMPDEST CALLVALUE PUSH2 0x453 JUMPI PUSH1 0x20 CALLDATASIZE PUSH1 0x3 NOT ADD SLT PUSH2 0x453 JUMPI PUSH1 0x4 CALLDATALOAD PUSH0 DUP2 DUP2 MSTORE PUSH1 0x1 PUSH1 0x20 MSTORE PUSH1 0x40 DUP2 KECCAK256 SLOAD PUSH1 0x1 PUSH1 0x1 PUSH1 0xA0 SHL SUB AND SWAP2 PUSH2 0x6AF DUP4 ISZERO ISZERO PUSH2 0x132F JUMP JUMPDEST DUP1 MLOAD DUP1 DUP4 MSTORE PUSH1 0x20 SWAP3 SWAP2 DUP2 SWAP1 DUP5 ADD DUP5 DUP5 ADD MCOPY PUSH0 DUP3 DUP3 ADD DUP5 ADD MSTORE PUSH1 0x1F ADD PUSH1 0x1F NOT AND ADD ADD SWAP1 JUMP JUMPDEST SWAP3 SWAP5 SWAP4 PUSH2 0x1131 PUSH1 0x60 SWAP4 PUSH2 0x1123 PUSH1 0xFF SWAP5 PUSH1 0x80 DUP9 MSTORE PUSH1 0x80 DUP9 ADD SWAP1 PUSH2 0x10E2 JUMP JUMPDEST SWAP1 DUP7 DUP3 SUB PUSH1 0x20 DUP9 ADD MSTORE PUSH2 0x10E2 JUMP JUMPDEST SWAP6 PUSH1 0x40 DUP6 ADD MSTORE AND SWAP2 ADD MSTORE JUMP JUMPDEST PUSH1 0x40 SWAP1 PUSH1 0x3 NOT ADD SLT PUSH2 0x453 JUMPI PUSH1 0x4 CALLDATALOAD SWAP1 PUSH1 0x24 CALLDATALOAD SWAP1 JUMP JUMPDEST DUP1 SLOAD DUP3 LT ISZERO PUSH2 0x1168 JUMPI PUSH0 MSTORE PUSH1 0x20 PUSH0 KECCAK256 ADD SWAP1 PUSH0 SWAP1 JUMP JUMPDEST PUSH4 0x4E487B71 PUSH1 0xE0 SHL PUSH0 MSTORE PUSH1 0x32 PUSH1 0x4 MSTORE PUSH1 0x24 PUSH0 REVERT JUMPDEST SWAP1 PUSH1 0x1F DUP1 NOT SWAP2 ADD AND DUP2 ADD SWAP1 DUP2 LT PUSH8 0xFFFFFFFFFFFFFFFF DUP3 GT OR PUSH2 0x509 JUMPI PUSH1 0x40 MSTORE JUMP JUMPDEST PUSH8 0xFFFFFFFFFFFFFFFF DUP2 GT PUSH2 0x509 JUMPI PUSH1 0x1F ADD PUSH1 0x1F NOT AND PUSH1 0x20 ADD SWAP1 JUMP JUMPDEST DUP2 PUSH1 0x1F DUP3 ADD SLT ISZERO PUSH2 0x453 JUMPI DUP1 CALLDATALOAD SWAP1 PUSH2 0x11D1 DUP3 PUSH2 0x119E JUMP JUMPDEST SWAP3 PUSH2 0x11DF PUSH1 0x40 MLOAD SWAP5 DUP6 PUSH2 0x117C JUMP JUMPDEST DUP3 DUP5 MSTORE PUSH1 0x20 DUP4 DUP4 ADD ADD GT PUSH2 0x453 JUMPI DUP2 PUSH0 SWAP3 PUSH1 0x20 DUP1 SWAP4 ADD DUP4 DUP7 ADD CALLDATACOPY DUP4 ADD ADD MSTORE SWAP1 JUMP JUMPDEST SWAP1 PUSH1 0x20 DUP1 DUP4 MLOAD SWAP3 DUP4 DUP2 MSTORE ADD SWAP3 ADD SWAP1 PUSH0 JUMPDEST DUP2 DUP2 LT PUSH2 0x121D JUMPI POP POP POP SWAP1 JUMP JUMPDEST DUP3 MLOAD DUP5 MSTORE PUSH1 0x20 SWAP4 DUP5 ADD SWAP4 SWAP1 SWAP3 ADD SWAP2 PUSH1 0x1 ADD PUSH2 0x1210 JUMP JUMPDEST SWAP1 DUP1 PUSH1 0x20 DUP4 MLOAD SWAP2 DUP3 DUP2 MSTORE ADD SWAP2 PUSH1 0x20 DUP1 DUP4 PUSH1 0x5 SHL DUP4 ADD ADD SWAP5 ADD SWAP3 PUSH0 SWAP2 JUMPDEST DUP4 DUP4 LT PUSH2 0x125E JUMPI POP POP POP POP POP SWAP1 JUMP JUMPDEST SWAP1 SWAP2 SWAP3 SWAP4 SWAP5 PUSH1 0x20 DUP1 PUSH2 0x127C PUSH1 0x1 SWAP4 PUSH1 0x1F NOT DUP7 DUP3 SUB ADD DUP8 MSTORE DUP10 MLOAD PUSH2 0x10E2 JUMP JUMPDEST SWAP8 ADD SWAP4 ADD SWAP4 ADD SWAP2 SWAP4 SWAP3 SWAP1 PUSH2 0x124F JUMP JUMPDEST SWAP1 PUSH1 0x20 DUP1 DUP4 MLOAD SWAP3 DUP4 DUP2 MSTORE ADD SWAP3 ADD SWAP1 PUSH0 JUMPDEST DUP2 DUP2 LT PUSH2 0x12A8 JUMPI POP POP POP SWAP1 JUMP JUMPDEST DUP3 MLOAD PUSH1 0xFF AND DUP5 MSTORE PUSH1 0x20 SWAP4 DUP5 ADD SWAP4 SWAP1 SWAP3 ADD SWAP2 PUSH1 0x1 ADD PUSH2 0x129B JUMP JUMPDEST SWAP4 SWAP1 PUSH2 0x131C SWAP6 SWAP4 PUSH2 0x12F2 PUSH2 0x130E SWAP5 PUSH2 0x12E4 PUSH2 0x1300 SWAP5 PUSH1 0xA0 DUP11 MSTORE PUSH1 0xA0 DUP11 ADD SWAP1 PUSH2 0x1200 JUMP JUMPDEST SWAP1 DUP9 DUP3 SUB PUSH1 0x20 DUP11 ADD MSTORE PUSH2 0x1233 JUMP JUMPDEST SWAP1 DUP7 DUP3 SUB PUSH1 0x40 DUP9 ADD MSTORE PUSH2 0x1233 JUMP JUMPDEST SWAP1 DUP5 DUP3 SUB PUSH1 0x60 DUP7 ADD MSTORE PUSH2 0x1200 JUMP JUMPDEST SWAP2 PUSH1 0x80 DUP2 DUP5 SUB SWAP2 ADD MSTORE PUSH2 0x128B JUMP JUMPDEST SWAP1 JUMP JUMPDEST PUSH1 0x4 CALLDATALOAD SWAP1 PUSH1 0xFF DUP3 AND DUP3 SUB PUSH2 0x453 JUMPI JUMP JUMPDEST ISZERO PUSH2 0x1336 JUMPI JUMP JUMPDEST PUSH1 0x40 MLOAD PUSH3 0x461BCD PUSH1 0xE5 SHL DUP2 MSTORE PUSH1 0x20 PUSH1 0x4 DUP3 ADD MSTORE PUSH1 0xE PUSH1 0x24 DUP3 ADD MSTORE PUSH14 0x11185D18481B9BDD08199BDD5B99 PUSH1 0x92 SHL PUSH1 0x44 DUP3 ADD MSTORE PUSH1 0x64 SWAP1 REVERT JUMPDEST DUP2 PUSH1 0x1F DUP3 ADD SLT ISZERO PUSH2 0x453 JUMPI DUP1 MLOAD SWAP1 PUSH2 0x1383 DUP3 PUSH2 0x119E JUMP JUMPDEST SWAP3 PUSH2 0x1391 PUSH1 0x40 MLOAD SWAP5 DUP6 PUSH2 0x117C JUMP JUMPDEST DUP3 DUP5 MSTORE PUSH1 0x20 DUP4 DUP4 ADD ADD GT PUSH2 0x453 JUMPI DUP2 PUSH0 SWAP3 PUSH1 0x20 DUP1 SWAP4 ADD DUP4 DUP7 ADD MCOPY DUP4 ADD ADD MSTORE SWAP1 JUMP JUMPDEST SWAP2 SWAP1 SWAP2 PUSH1 0x80 DUP2 DUP5 SUB SLT PUSH2 0x453 JUMPI DUP1 MLOAD PUSH8 0xFFFFFFFFFFFFFFFF DUP2 GT PUSH2 0x453 JUMPI DUP4 PUSH2 0x13DC SWAP2 DUP4 ADD PUSH2 0x136C JUMP JUMPDEST SWAP3 PUSH1 0x20 DUP3 ADD MLOAD SWAP1 PUSH8 0xFFFFFFFFFFFFFFFF DUP3 GT PUSH2 0x453 JUMPI PUSH2 0x13FD SWAP2 DUP4 ADD PUSH2 0x136C JUMP JUMPDEST SWAP2 PUSH1 0x60 PUSH1 0x40 DUP4 ADD MLOAD SWAP3 ADD MLOAD PUSH1 0xFF DUP2 AND DUP2 SUB PUSH2 0x453 JUMPI SWAP1 JUMP JUMPDEST ISZERO PUSH2 0x141C JUMPI JUMP JUMPDEST PUSH1 0x40 MLOAD PUSH3 0x461BCD PUSH1 0xE5 SHL DUP2 MSTORE PUSH1 0x20 PUSH1 0x4 DUP3 ADD MSTORE PUSH1 0x14 PUSH1 0x24 DUP3 ADD MSTORE PUSH20 0x4F6666736574206F7574206F6620626F756E6473 PUSH1 0x60 SHL PUSH1 0x44 DUP3 ADD MSTORE PUSH1 0x64 SWAP1 REVERT JUMPDEST SWAP2 SWAP1 DUP3 SUB SWAP2 DUP3 GT PUSH2 0x59D JUMPI JUMP JUMPDEST PUSH8 0xFFFFFFFFFFFFFFFF DUP2 GT PUSH2 0x509 JUMPI PUSH1 0x5 SHL PUSH1 0x20 ADD SWAP1 JUMP JUMPDEST SWAP1 PUSH2 0x1487 DUP3 PUSH2 0x1465 JUMP JUMPDEST PUSH2 0x1494 PUSH1 0x40 MLOAD SWAP2 DUP3 PUSH2 0x117C JUMP JUMPDEST DUP3 DUP2 MSTORE DUP1 SWAP3 PUSH2 0x14A5 PUSH1 0x1F NOT SWAP2 PUSH2 0x1465 JUMP JUMPDEST ADD SWAP1 PUSH1 0x20 CALLDATASIZE SWAP2 ADD CALLDATACOPY JUMP JUMPDEST SWAP1 PUSH2 0x14B9 DUP3 PUSH2 0x1465 JUMP JUMPDEST PUSH2 0x14C6 PUSH1 0x40 MLOAD SWAP2 DUP3 PUSH2 0x117C JUMP JUMPDEST DUP3 DUP2 MSTORE DUP1 SWAP3 PUSH2 0x14D7 PUSH1 0x1F NOT SWAP2 PUSH2 0x1465 JUMP JUMPDEST ADD SWAP1 PUSH0 JUMPDEST DUP3 DUP2 LT PUSH2 0x14E7 JUMPI POP POP POP JUMP JUMPDEST DUP1 PUSH1 0x60 PUSH1 0x20 DUP1 SWAP4 DUP6 ADD ADD MSTORE ADD PUSH2 0x14DB JUMP JUMPDEST DUP1 MLOAD DUP3 LT ISZERO PUSH2 0x1168 JUMPI PUSH1 0x20 SWAP2 PUSH1 0x5 SHL ADD ADD SWAP1 JUMP JUMPDEST SWAP2 SWAP1 DUP3 ADD DUP1 SWAP3 GT PUSH2 0x59D JUMPI JUMP JUMPDEST ISZERO PUSH2 0x1520 JUMPI JUMP JUMPDEST PUSH1 0x40 MLOAD PUSH3 0x461BCD PUSH1 0xE5 SHL DUP2 MSTORE PUSH1 0x20 PUSH1 0x4 DUP3 ADD MSTORE PUSH1 0xE PUSH1 0x24 DUP3 ADD MSTORE PUSH14 0x496E76616C696420726174696E67 PUSH1 0x90 SHL PUSH1 0x44 DUP3 ADD MSTORE PUSH1 0x64 SWAP1 REVERT JUMPDEST DUP1 SLOAD PUSH9 0x10000000000000000 DUP2 LT ISZERO PUSH2 0x509 JUMPI PUSH2 0x1578 SWAP2 PUSH1 0x1 DUP3 ADD DUP2 SSTORE PUSH2 0x1153 JUMP JUMPDEST DUP2 SWAP3 SWAP2 SLOAD SWAP1 PUSH1 0x3 SHL SWAP2 DUP3 SHL SWAP2 PUSH0 NOT SWAP1 SHL NOT AND OR SWAP1 SSTORE JUMP JUMPDEST PUSH0 NOT DUP2 EQ PUSH2 0x59D JUMPI PUSH1 0x1 ADD SWAP1 JUMP INVALID PUSH1 0x80 CALLVALUE PUSH1 0x74 JUMPI PUSH1 0x1F PUSH2 0x8F1 CODESIZE DUP2 SWAP1 SUB SWAP2 DUP3 ADD PUSH1 0x1F NOT AND DUP4 ADD SWAP2 PUSH1 0x1 PUSH1 0x1 PUSH1 0x40 SHL SUB DUP4 GT DUP5 DUP5 LT OR PUSH1 0x78 JUMPI DUP1 DUP5 SWAP3 PUSH1 0x20 SWAP5 PUSH1 0x40 MSTORE DUP4 CODECOPY DUP2 ADD SUB SLT PUSH1 0x74 JUMPI MLOAD PUSH1 0x1 PUSH1 0x1 PUSH1 0xA0 SHL SUB DUP2 AND SWAP1 DUP2 SWAP1 SUB PUSH1 0x74 JUMPI PUSH1 0x2 DUP1 SLOAD PUSH1 0x1 PUSH1 0x1 PUSH1 0xA0 SHL SUB NOT AND SWAP2 SWAP1 SWAP2 OR SWAP1 SSTORE PUSH0 PUSH1 0x1 SSTORE PUSH1 0x40 MLOAD PUSH2 0x864 SWAP1 DUP2 PUSH2 0x8D DUP3 CODECOPY RETURN JUMPDEST PUSH0 DUP1 REVERT JUMPDEST PUSH4 0x4E487B71 PUSH1 0xE0 SHL PUSH0 MSTORE PUSH1 0x41 PUSH1 0x4 MSTORE PUSH1 0x24 PUSH0 REVERT INVALID PUSH1 0x80 DUP1 PUSH1 0x40 MSTORE PUSH1 0x4 CALLDATASIZE LT ISZERO PUSH2 0x12 JUMPI PUSH0 DUP1 REVERT JUMPDEST PUSH0 CALLDATALOAD PUSH1 0xE0 SHR SWAP1 DUP2 PUSH4 0x178FE3F EQ PUSH2 0x5AC JUMPI POP DUP1 PUSH4 0x5DA40C47 EQ PUSH2 0x58F JUMPI DUP1 PUSH4 0xA0B0607F EQ PUSH2 0x573 JUMPI DUP1 PUSH4 0xBABD3D9A EQ PUSH2 0x551 JUMPI DUP1 PUSH4 0xCD446E22 EQ PUSH2 0x529 JUMPI DUP1 PUSH4 0xDA6EA12A EQ PUSH2 0x4D4 JUMPI PUSH4 0xFD1EB1FE EQ PUSH2 0x69 JUMPI PUSH0 DUP1 REVERT JUMPDEST CALLVALUE PUSH2 0x4D0 JUMPI PUSH1 0xA0 CALLDATASIZE PUSH1 0x3 NOT ADD SLT PUSH2 0x4D0 JUMPI PUSH1 0x24 CALLDATALOAD PUSH8 0xFFFFFFFFFFFFFFFF DUP2 GT PUSH2 0x4D0 JUMPI PUSH2 0x9A SWAP1 CALLDATASIZE SWAP1 PUSH1 0x4 ADD PUSH2 0x7D8 JUMP JUMPDEST PUSH1 0x44 CALLDATALOAD PUSH8 0xFFFFFFFFFFFFFFFF DUP2 GT PUSH2 0x4D0 JUMPI PUSH2 0xBA SWAP1 CALLDATASIZE SWAP1 PUSH1 0x4 ADD PUSH2 0x7D8 JUMP JUMPDEST SWAP1 PUSH1 0x84 CALLDATALOAD SWAP2 PUSH1 0xFF DUP4 AND DUP1 SWAP4 SUB PUSH2 0x4D0 JUMPI PUSH1 0x2 SLOAD PUSH1 0x1 PUSH1 0x1 PUSH1 0xA0 SHL SUB AND CALLER SUB PUSH2 0x48B JUMPI PUSH2 0x3E8 PUSH1 0x1 SLOAD LT ISZERO PUSH2 0x454 JUMPI PUSH2 0x3E8 DUP3 MLOAD GT PUSH2 0x41F JUMPI PUSH1 0x32 DUP2 MLOAD GT PUSH2 0x3E5 JUMPI PUSH1 0x5 DUP4 GT PUSH2 0x3AF JUMPI PUSH1 0x40 MLOAD SWAP2 PUSH2 0x110 DUP4 PUSH2 0x6FA JUMP JUMPDEST DUP3 MSTORE PUSH1 0x20 DUP3 ADD SWAP1 DUP2 MSTORE PUSH1 0x40 DUP3 ADD SWAP1 PUSH1 0x64 CALLDATALOAD DUP3 MSTORE PUSH1 0x60 DUP4 ADD SWAP4 DUP5 MSTORE PUSH1 0x4 CALLDATALOAD PUSH0 MSTORE PUSH0 PUSH1 0x20 MSTORE PUSH1 0x40 PUSH0 KECCAK256 SWAP3 MLOAD DUP1 MLOAD SWAP1 PUSH8 0xFFFFFFFFFFFFFFFF DUP3 GT PUSH2 0x2DD JUMPI DUP2 SWAP1 PUSH2 0x157 DUP7 SLOAD PUSH2 0x6C2 JUMP JUMPDEST PUSH1 0x1F DUP2 GT PUSH2 0x35F JUMPI JUMPDEST POP PUSH1 0x20 SWAP1 PUSH1 0x1F DUP4 GT PUSH1 0x1 EQ PUSH2 0x2FC JUMPI PUSH0 SWAP3 PUSH2 0x2F1 JUMPI JUMPDEST POP POP DUP2 PUSH1 0x1 SHL SWAP2 PUSH0 NOT SWAP1 PUSH1 0x3 SHL SHR NOT AND OR DUP4 SSTORE JUMPDEST MLOAD DUP1 MLOAD PUSH1 0x1 DUP5 ADD SWAP2 PUSH8 0xFFFFFFFFFFFFFFFF DUP3 GT PUSH2 0x2DD JUMPI PUSH2 0x1AB DUP4 SLOAD PUSH2 0x6C2 JUMP JUMPDEST PUSH1 0x1F DUP2 GT PUSH2 0x298 JUMPI JUMPDEST POP PUSH1 0x20 SWAP1 PUSH1 0x1F DUP4 GT PUSH1 0x1 EQ PUSH2 0x22F JUMPI SWAP2 DUP1 PUSH1 0xFF SWAP7 SWAP5 SWAP3 PUSH1 0x3 SWAP7 SWAP5 PUSH0 SWAP3 PUSH2 0x224 JUMPI JUMPDEST POP POP DUP2 PUSH1 0x1 SHL SWAP2 PUSH0 NOT SWAP1 DUP8 SHL SHR NOT AND OR SWAP1 SSTORE JUMPDEST MLOAD PUSH1 0x2 DUP3 ADD SSTORE ADD SWAP2 MLOAD AND PUSH1 0xFF NOT DUP3 SLOAD AND OR SWAP1 SSTORE PUSH1 0x1 SLOAD PUSH0 NOT DUP2 EQ PUSH2 0x210 JUMPI PUSH1 0x1 ADD PUSH1 0x1 SSTORE PUSH0 DUP1 RETURN JUMPDEST PUSH4 0x4E487B71 PUSH1 0xE0 SHL PUSH0 MSTORE PUSH1 0x11 PUSH1 0x4 MSTORE PUSH1 0x24 PUSH0 REVERT JUMPDEST ADD MLOAD SWAP1 POP PUSH0 DUP1 PUSH2 0x1D5 JUMP JUMPDEST SWAP1 PUSH1 0x1F NOT DUP4 AND SWAP2 DUP5 PUSH0 MSTORE DUP2 PUSH0 KECCAK256 SWAP3 PUSH0 JUMPDEST DUP2 DUP2 LT PUSH2 0x280 JUMPI POP SWAP3 PUSH1 0x1 SWAP3 DUP6 SWAP3 PUSH1 0x3 SWAP9 SWAP7 PUSH1 0xFF SWAP11 SWAP9 SWAP7 LT PUSH2 0x269 JUMPI JUMPDEST POP POP POP DUP2 SHL ADD SWAP1 SSTORE PUSH2 0x1E8 JUMP JUMPDEST ADD MLOAD PUSH0 NOT DUP4 DUP10 SHL PUSH1 0xF8 AND SHR NOT AND SWAP1 SSTORE PUSH0 DUP1 DUP1 PUSH2 0x25C JUMP JUMPDEST SWAP3 SWAP4 PUSH1 0x20 PUSH1 0x1 DUP2 SWAP3 DUP8 DUP7 ADD MLOAD DUP2 SSTORE ADD SWAP6 ADD SWAP4 ADD PUSH2 0x23F JUMP JUMPDEST DUP4 PUSH0 MSTORE PUSH1 0x20 PUSH0 KECCAK256 PUSH1 0x1F DUP5 ADD PUSH1 0x5 SHR DUP2 ADD SWAP2 PUSH1 0x20 DUP6 LT PUSH2 0x2D3 JUMPI JUMPDEST PUSH1 0x1F ADD PUSH1 0x5 SHR ADD SWAP1 JUMPDEST DUP2 DUP2 LT PUSH2 0x2C8 JUMPI POP PUSH2 0x1B4 JUMP JUMPDEST PUSH0 DUP2 SSTORE PUSH1 0x1 ADD PUSH2 0x2BB JUMP JUMPDEST SWAP1 SWAP2 POP DUP2 SWAP1 PUSH2 0x2B2 JUMP JUMPDEST PUSH4 0x4E487B71 PUSH1 0xE0 SHL PUSH0 MSTORE PUSH1 0x41 PUSH1 0x4 MSTORE PUSH1 0x24 PUSH0 REVERT JUMPDEST ADD MLOAD SWAP1 POP PUSH0 DUP1 PUSH2 0x176 JUMP JUMPDEST PUSH0 DUP8 DUP2 MSTORE DUP3 DUP2 KECCAK256 SWAP4 POP PUSH1 0x1F NOT DUP6 AND SWAP1 JUMPDEST DUP2 DUP2 LT PUSH2 0x347 JUMPI POP SWAP1 DUP5 PUSH1 0x1 SWAP6 SWAP5 SWAP4 SWAP3 LT PUSH2 0x32F JUMPI JUMPDEST POP POP POP DUP2 SHL ADD DUP4 SSTORE PUSH2 0x18A JUMP JUMPDEST ADD MLOAD PUSH0 NOT PUSH1 0xF8 DUP5 PUSH1 0x3 SHL AND SHR NOT AND SWAP1 SSTORE PUSH0 DUP1 DUP1 PUSH2 0x322 JUMP JUMPDEST SWAP3 SWAP4 PUSH1 0x20 PUSH1 0x1 DUP2 SWAP3 DUP8 DUP7 ADD MLOAD DUP2 SSTORE ADD SWAP6 ADD SWAP4 ADD PUSH2 0x30C JUMP JUMPDEST SWAP1 SWAP2 POP DUP6 PUSH0 MSTORE PUSH1 0x20 PUSH0 KECCAK256 PUSH1 0x1F DUP5 ADD PUSH1 0x5 SHR DUP2 ADD SWAP2 PUSH1 0x20 DUP6 LT PUSH2 0x3A5 JUMPI JUMPDEST SWAP1 PUSH1 0x1F DUP6 SWAP5 SWAP4 SWAP3 ADD PUSH1 0x5 SHR ADD SWAP1 JUMPDEST DUP2 DUP2 LT PUSH2 0x397 JUMPI POP PUSH2 0x160 JUMP JUMPDEST PUSH0 DUP2 SSTORE DUP5 SWAP4 POP PUSH1 0x1 ADD PUSH2 0x38A JUMP JUMPDEST SWAP1 SWAP2 POP DUP2 SWAP1 PUSH2 0x37C JUMP JUMPDEST PUSH1 0x40 MLOAD PUSH3 0x461BCD PUSH1 0xE5 SHL DUP2 MSTORE PUSH1 0x20 PUSH1 0x4 DUP3 ADD MSTORE PUSH1 0xE PUSH1 0x24 DUP3 ADD MSTORE PUSH14 0x496E76616C696420726174696E67 PUSH1 0x90 SHL PUSH1 0x44 DUP3 ADD MSTORE PUSH1 0x64 SWAP1 REVERT JUMPDEST PUSH1 0x40 MLOAD PUSH3 0x461BCD PUSH1 0xE5 SHL DUP2 MSTORE PUSH1 0x20 PUSH1 0x4 DUP3 ADD MSTORE PUSH1 0x12 PUSH1 0x24 DUP3 ADD MSTORE PUSH18 0x44617461207479706520746F6F206C6F6E67 PUSH1 0x70 SHL PUSH1 0x44 DUP3 ADD MSTORE PUSH1 0x64 SWAP1 REVERT JUMPDEST PUSH1 0x40 MLOAD PUSH3 0x461BCD PUSH1 0xE5 SHL DUP2 MSTORE PUSH1 0x20 PUSH1 0x4 DUP3 ADD MSTORE PUSH1 0xD PUSH1 0x24 DUP3 ADD MSTORE PUSH13 0x4461746120746F6F206C6F6E67 PUSH1 0x98 SHL PUSH1 0x44 DUP3 ADD MSTORE PUSH1 0x64 SWAP1 REVERT JUMPDEST PUSH1 0x40 MLOAD PUSH3 0x461BCD PUSH1 0xE5 SHL DUP2 MSTORE PUSH1 0x20 PUSH1 0x4 DUP3 ADD MSTORE PUSH1 0xF PUSH1 0x24 DUP3 ADD MSTORE PUSH15 0x14DD1BDC9859D9481A5CC8199D5B1B PUSH1 0x8A SHL PUSH1 0x44 DUP3 ADD MSTORE PUSH1 0x64 SWAP1 REVERT JUMPDEST PUSH1 0x40 MLOAD PUSH3 0x461BCD PUSH1 0xE5 SHL DUP2 MSTORE PUSH1 0x20 PUSH1 0x4 DUP3 ADD MSTORE PUSH1 0x1D PUSH1 0x24 DUP3 ADD MSTORE PUSH32 0x4F6E6C79204D617374657220436F6E74726163742063616E2063616C6C000000 PUSH1 0x44 DUP3 ADD MSTORE PUSH1 0x64 SWAP1 REVERT JUMPDEST PUSH0 DUP1 REVERT JUMPDEST CALLVALUE PUSH2 0x4D0 JUMPI PUSH1 0x20 CALLDATASIZE PUSH1 0x3 NOT ADD SLT PUSH2 0x4D0 JUMPI PUSH1 0x4 CALLDATALOAD PUSH0 MSTORE PUSH0 PUSH1 0x20 MSTORE PUSH1 0x40 PUSH0 KECCAK256 PUSH2 0x4FB DUP2 PUSH2 0x738 JUMP JUMPDEST PUSH2 0x525 PUSH2 0x50A PUSH1 0x1 DUP5 ADD PUSH2 0x738 JUMP JUMPDEST SWAP3 PUSH1 0xFF PUSH1 0x3 PUSH1 0x2 DUP4 ADD SLOAD SWAP3 ADD SLOAD AND SWAP1 PUSH1 0x40 MLOAD SWAP5 DUP6 SWAP5 DUP6 PUSH2 0x68B JUMP JUMPDEST SUB SWAP1 RETURN JUMPDEST CALLVALUE PUSH2 0x4D0 JUMPI PUSH0 CALLDATASIZE PUSH1 0x3 NOT ADD SLT PUSH2 0x4D0 JUMPI PUSH1 0x2 SLOAD PUSH1 0x40 MLOAD PUSH1 0x1 PUSH1 0x1 PUSH1 0xA0 SHL SUB SWAP1 SWAP2 AND DUP2 MSTORE PUSH1 0x20 SWAP1 RETURN JUMPDEST CALLVALUE PUSH2 0x4D0 JUMPI PUSH0 CALLDATASIZE PUSH1 0x3 NOT ADD SLT PUSH2 0x4D0 JUMPI PUSH1 0x20 PUSH2 0x3E8 PUSH1 0x1 SLOAD LT ISZERO PUSH1 0x40 MLOAD SWAP1 DUP2 MSTORE RETURN JUMPDEST CALLVALUE PUSH2 0x4D0 JUMPI PUSH0 CALLDATASIZE PUSH1 0x3 NOT ADD SLT PUSH2 0x4D0 JUMPI PUSH1 0x20 PUSH1 0x40 MLOAD PUSH2 0x3E8 DUP2 MSTORE RETURN JUMPDEST CALLVALUE PUSH2 0x4D0 JUMPI PUSH0 CALLDATASIZE PUSH1 0x3 NOT ADD SLT PUSH2 0x4D0 JUMPI PUSH1 0x20 PUSH1 0x1 SLOAD PUSH1 0x40 MLOAD SWAP1 DUP2 MSTORE RETURN JUMPDEST CALLVALUE PUSH2 0x4D0 JUMPI PUSH1 0x20 CALLDATASIZE PUSH1 0x3 NOT ADD SLT PUSH2 0x4D0 JUMPI PUSH1 0x4 CALLDATALOAD PUSH0 MSTORE PUSH0 PUSH1 0x20 MSTORE PUSH1 0x40 PUSH0 KECCAK256 SWAP1 PUSH2 0x5D4 DUP2 PUSH2 0x6FA JUMP JUMPDEST PUSH2 0x5DD DUP3 PUSH2 0x738 JUMP JUMPDEST DUP2 MSTORE PUSH2 0x5EB PUSH1 0x1 DUP4 ADD PUSH2 0x738 JUMP JUMPDEST SWAP1 PUSH1 0x20 DUP2 ADD SWAP2 DUP3 MSTORE PUSH1 0xFF PUSH1 0x3 PUSH1 0x2 DUP6 ADD SLOAD SWAP5 PUSH1 0x40 DUP5 ADD SWAP6 DUP7 MSTORE ADD SLOAD AND PUSH1 0x60 DUP3 ADD SWAP1 DUP2 MSTORE DUP2 MLOAD MLOAD ISZERO PUSH2 0x631 JUMPI PUSH1 0xFF PUSH2 0x525 SWAP3 MLOAD SWAP4 MLOAD SWAP5 MLOAD SWAP2 MLOAD AND SWAP1 PUSH1 0x40 MLOAD SWAP5 DUP6 SWAP5 DUP6 PUSH2 0x68B JUMP JUMPDEST PUSH1 0x40 MLOAD PUSH3 0x461BCD PUSH1 0xE5 SHL DUP2 MSTORE PUSH1 0x20 PUSH1 0x4 DUP3 ADD MSTORE PUSH1 0xE PUSH1 0x24 DUP3 ADD MSTORE PUSH14 0x11185D18481B9BDD08199BDD5B99 PUSH1 0x92 SHL PUSH1 0x44 DUP3 ADD MSTORE PUSH1 0x64 SWAP1 REVERT JUMPDEST DUP1 MLOAD DUP1 DUP4 MSTORE PUSH1 0x20 SWAP3 SWAP2 DUP2 SWAP1 DUP5 ADD DUP5 DUP5 ADD MCOPY PUSH0 DUP3 DUP3 ADD DUP5 ADD MSTORE PUSH1 0x1F ADD PUSH1 0x1F NOT AND ADD ADD SWAP1 JUMP JUMPDEST SWAP3 SWAP5 SWAP4 PUSH2 0x6B6 PUSH1 0x60 SWAP4 PUSH2 0x6A8 PUSH1 0xFF SWAP5 PUSH1 0x80 DUP9 MSTORE PUSH1 0x80 DUP9 ADD SWAP1 PUSH2 0x667 JUMP JUMPDEST SWAP1 DUP7 DUP3 SUB PUSH1 0x20 DUP9 ADD MSTORE PUSH2 0x667 JUMP JUMPDEST SWAP6 PUSH1 0x40 DUP6 ADD MSTORE AND SWAP2 ADD MSTORE JUMP JUMPDEST SWAP1 PUSH1 0x1 DUP3 DUP2 SHR SWAP3 AND DUP1 ISZERO PUSH2 0x6F0 JUMPI JUMPDEST PUSH1 0x20 DUP4 LT EQ PUSH2 0x6DC JUMPI JUMP JUMPDEST PUSH4 0x4E487B71 PUSH1 0xE0 SHL PUSH0 MSTORE PUSH1 0x22 PUSH1 0x4 MSTORE PUSH1 0x24 PUSH0 REVERT JUMPDEST SWAP2 PUSH1 0x7F AND SWAP2 PUSH2 0x6D1 JUMP JUMPDEST PUSH1 0x80 DUP2 ADD SWAP1 DUP2 LT PUSH8 0xFFFFFFFFFFFFFFFF DUP3 GT OR PUSH2 0x2DD JUMPI PUSH1 0x40 MSTORE JUMP JUMPDEST SWAP1 PUSH1 0x1F DUP1 NOT SWAP2 ADD AND DUP2 ADD SWAP1 DUP2 LT PUSH8 0xFFFFFFFFFFFFFFFF DUP3 GT OR PUSH2 0x2DD JUMPI PUSH1 0x40 MSTORE JUMP JUMPDEST SWAP1 PUSH1 0x40 MLOAD SWAP2 DUP3 PUSH0 DUP3 SLOAD SWAP3 PUSH2 0x74B DUP5 PUSH2 0x6C2 JUMP JUMPDEST DUP1 DUP5 MSTORE SWAP4 PUSH1 0x1 DUP2 AND SWAP1 DUP2 ISZERO PUSH2 0x7B6 JUMPI POP PUSH1 0x1 EQ PUSH2 0x772 JUMPI JUMPDEST POP PUSH2 0x770 SWAP3 POP SUB DUP4 PUSH2 0x716 JUMP JUMPDEST JUMP JUMPDEST SWAP1 POP PUSH0 SWAP3 SWAP2 SWAP3 MSTORE PUSH1 0x20 PUSH0 KECCAK256 SWAP1 PUSH0 SWAP2 JUMPDEST DUP2 DUP4 LT PUSH2 0x79A JUMPI POP POP SWAP1 PUSH1 0x20 PUSH2 0x770 SWAP3 DUP3 ADD ADD PUSH0 PUSH2 0x763 JUMP JUMPDEST PUSH1 0x20 SWAP2 SWAP4 POP DUP1 PUSH1 0x1 SWAP2 SLOAD DUP4 DUP6 DUP10 ADD ADD MSTORE ADD SWAP2 ADD SWAP1 SWAP2 DUP5 SWAP3 PUSH2 0x781 JUMP JUMPDEST SWAP1 POP PUSH1 0x20 SWAP3 POP PUSH2 0x770 SWAP5 SWAP2 POP PUSH1 0xFF NOT AND DUP3 DUP5 ADD MSTORE ISZERO ISZERO PUSH1 0x5 SHL DUP3 ADD ADD PUSH0 PUSH2 0x763 JUMP JUMPDEST DUP2 PUSH1 0x1F DUP3 ADD SLT ISZERO PUSH2 0x4D0 JUMPI DUP1 CALLDATALOAD SWAP1 PUSH8 0xFFFFFFFFFFFFFFFF DUP3 GT PUSH2 0x2DD JUMPI PUSH1 0x40 MLOAD SWAP3 PUSH2 0x80D PUSH1 0x1F DUP5 ADD PUSH1 0x1F NOT AND PUSH1 0x20 ADD DUP6 PUSH2 0x716 JUMP JUMPDEST DUP3 DUP5 MSTORE PUSH1 0x20 DUP4 DUP4 ADD ADD GT PUSH2 0x4D0 JUMPI DUP2 PUSH0 SWAP3 PUSH1 0x20 DUP1 SWAP4 ADD DUP4 DUP7 ADD CALLDATACOPY DUP4 ADD ADD MSTORE SWAP1 JUMP INVALID LOG2 PUSH5 0x6970667358 0x22 SLT KECCAK256 0xB3 DUP12 0xB9 XOR PUSH19 0x5C90EAD853D241FB9CCAA81495BF9870FA1935 0x4F SWAP1 DATALOADN 0x1505 0x28 0xB4 JUMPF 0x6473 PUSH16 0x6C634300081E0033A264697066735822 SLT KECCAK256 PUSH21 0xE7FA3B37FCF9A5ED3CA69B4F7CFC275B76F09E47E1 0xDB 0xF7 DUP7 SWAPN 0xD0 LOG2 0xEB PUSH21 0x431A64736F6C634300081E0033608034607457601F PUSH2 0x8F1 CODESIZE DUP2 SWAP1 SUB SWAP2 DUP3 ADD PUSH1 0x1F NOT AND DUP4 ADD SWAP2 PUSH1 0x1 PUSH1 0x1 PUSH1 0x40 SHL SUB DUP4 GT DUP5 DUP5 LT OR PUSH1 0x78 JUMPI DUP1 DUP5 SWAP3 PUSH1 0x20 SWAP5 PUSH1 0x40 MSTORE DUP4 CODECOPY DUP2 ADD SUB SLT PUSH1 0x74 JUMPI MLOAD PUSH1 0x1 PUSH1 0x1 PUSH1 0xA0 SHL SUB DUP2 AND SWAP1 DUP2 SWAP1 SUB PUSH1 0x74 JUMPI PUSH1 0x2 DUP1 SLOAD PUSH1 0x1 PUSH1 0x1 PUSH1 0xA0 SHL SUB NOT AND SWAP2 SWAP1 SWAP2 OR SWAP1 SSTORE PUSH0 PUSH1 0x1 SSTORE PUSH1 0x40 MLOAD PUSH2 0x864 SWAP1 DUP2 PUSH2 0x8D DUP3 CODECOPY RETURN JUMPDEST PUSH0 DUP1 REVERT JUMPDEST PUSH4 0x4E487B71 PUSH1 0xE0 SHL PUSH0 MSTORE PUSH1 0x41 PUSH1 0x4 MSTORE PUSH1 0x24 PUSH0 REVERT INVALID PUSH1 0x80 DUP1 PUSH1 0x40 MSTORE PUSH1 0x4 CALLDATASIZE LT ISZERO PUSH2 0x12 JUMPI PUSH0 DUP1 REVERT JUMPDEST PUSH0 CALLDATALOAD PUSH1 0xE0 SHR SWAP1 DUP2 PUSH4 0x178FE3F EQ PUSH2 0x5AC JUMPI POP DUP1 PUSH4 0x5DA40C47 EQ PUSH2 0x58F JUMPI DUP1 PUSH4 0xA0B0607F EQ PUSH2 0x573 JUMPI DUP1 PUSH4 0xBABD3D9A EQ PUSH2 0x551 JUMPI DUP1 PUSH4 0xCD446E22 EQ PUSH2 0x529 JUMPI DUP1 PUSH4 0xDA6EA12A EQ PUSH2 0x4D4 JUMPI PUSH4 0xFD1EB1FE EQ PUSH2 0x69 JUMPI PUSH0 DUP1 REVERT JUMPDEST CALLVALUE PUSH2 0x4D0 JUMPI PUSH1 0xA0 CALLDATASIZE PUSH1 0x3 NOT ADD SLT PUSH2 0x4D0 JUMPI PUSH1 0x24 CALLDATALOAD PUSH8 0xFFFFFFFFFFFFFFFF DUP2 GT PUSH2 0x4D0 JUMPI PUSH2 0x9A SWAP1 CALLDATASIZE SWAP1 PUSH1 0x4 ADD PUSH2 0x7D8 JUMP JUMPDEST PUSH1 0x44 CALLDATALOAD PUSH8 0xFFFFFFFFFFFFFFFF DUP2 GT PUSH2 0x4D0 JUMPI PUSH2 0xBA SWAP1 CALLDATASIZE SWAP1 PUSH1 0x4 ADD PUSH2 0x7D8 JUMP JUMPDEST SWAP1 PUSH1 0x84 CALLDATALOAD SWAP2 PUSH1 0xFF DUP4 AND DUP1 SWAP4 SUB PUSH2 0x4D0 JUMPI PUSH1 0x2 SLOAD PUSH1 0x1 PUSH1 0x1 PUSH1 0xA0 SHL SUB AND CALLER SUB PUSH2 0x48B JUMPI PUSH2 0x3E8 PUSH1 0x1 SLOAD LT ISZERO PUSH2 0x454 JUMPI PUSH2 0x3E8 DUP3 MLOAD GT PUSH2 0x41F JUMPI PUSH1 0x32 DUP2 MLOAD GT PUSH2 0x3E5 JUMPI PUSH1 0x5 DUP4 GT PUSH2 0x3AF JUMPI PUSH1 0x40 MLOAD SWAP2 PUSH2 0x110 DUP4 PUSH2 0x6FA JUMP JUMPDEST DUP3 MSTORE PUSH1 0x20 DUP3 ADD SWAP1 DUP2 MSTORE PUSH1 0x40 DUP3 ADD SWAP1 PUSH1 0x64 CALLDATALOAD DUP3 MSTORE PUSH1 0x60 DUP4 ADD SWAP4 DUP5 MSTORE PUSH1 0x4 CALLDATALOAD PUSH0 MSTORE PUSH0 PUSH1 0x20 MSTORE PUSH1 0x40 PUSH0 KECCAK256 SWAP3 MLOAD DUP1 MLOAD SWAP1 PUSH8 0xFFFFFFFFFFFFFFFF DUP3 GT PUSH2 0x2DD JUMPI DUP2 SWAP1 PUSH2 0x157 DUP7 SLOAD PUSH2 0x6C2 JUMP JUMPDEST PUSH1 0x1F DUP2 GT PUSH2 0x35F JUMPI JUMPDEST POP PUSH1 0x20 SWAP1 PUSH1 0x1F DUP4 GT PUSH1 0x1 EQ PUSH2 0x2FC JUMPI PUSH0 SWAP3 PUSH2 0x2F1 JUMPI JUMPDEST POP POP DUP2 PUSH1 0x1 SHL SWAP2 PUSH0 NOT SWAP1 PUSH1 0x3 SHL SHR NOT AND OR DUP4 SSTORE JUMPDEST MLOAD DUP1 MLOAD PUSH1 0x1 DUP5 ADD SWAP2 PUSH8 0xFFFFFFFFFFFFFFFF DUP3 GT PUSH2 0x2DD JUMPI PUSH2 0x1AB DUP4 SLOAD PUSH2 0x6C2 JUMP JUMPDEST PUSH1 0x1F DUP2 GT PUSH2 0x298 JUMPI JUMPDEST POP PUSH1 0x20 SWAP1 PUSH1 0x1F DUP4 GT PUSH1 0x1 EQ PUSH2 0x22F JUMPI SWAP2 DUP1 PUSH1 0xFF SWAP7 SWAP5 SWAP3 PUSH1 0x3 SWAP7 SWAP5 PUSH0 SWAP3 PUSH2 0x224 JUMPI JUMPDEST POP POP DUP2 PUSH1 0x1 SHL SWAP2 PUSH0 NOT SWAP1 DUP8 SHL SHR NOT AND OR SWAP1 SSTORE JUMPDEST MLOAD PUSH1 0x2 DUP3 ADD SSTORE ADD SWAP2 MLOAD AND PUSH1 0xFF NOT DUP3 SLOAD AND OR SWAP1 SSTORE PUSH1 0x1 SLOAD PUSH0 NOT DUP2 EQ PUSH2 0x210 JUMPI PUSH1 0x1 ADD PUSH1 0x1 SSTORE PUSH0 DUP1 RETURN JUMPDEST PUSH4 0x4E487B71 PUSH1 0xE0 SHL PUSH0 MSTORE PUSH1 0x11 PUSH1 0x4 MSTORE PUSH1 0x24 PUSH0 REVERT JUMPDEST ADD MLOAD SWAP1 POP PUSH0 DUP1 PUSH2 0x1D5 JUMP JUMPDEST SWAP1 PUSH1 0x1F NOT DUP4 AND SWAP2 DUP5 PUSH0 MSTORE DUP2 PUSH0 KECCAK256 SWAP3 PUSH0 JUMPDEST DUP2 DUP2 LT PUSH2 0x280 JUMPI POP SWAP3 PUSH1 0x1 SWAP3 DUP6 SWAP3 PUSH1 0x3 SWAP9 SWAP7 PUSH1 0xFF SWAP11 SWAP9 SWAP7 LT PUSH2 0x269 JUMPI JUMPDEST POP POP POP DUP2 SHL ADD SWAP1 SSTORE PUSH2 0x1E8 JUMP JUMPDEST ADD MLOAD PUSH0 NOT DUP4 DUP10 SHL PUSH1 0xF8 AND SHR NOT AND SWAP1 SSTORE PUSH0 DUP1 DUP1 PUSH2 0x25C JUMP JUMPDEST SWAP3 SWAP4 PUSH1 0x20 PUSH1 0x1 DUP2 SWAP3 DUP8 DUP7 ADD MLOAD DUP2 SSTORE ADD SWAP6 ADD SWAP4 ADD PUSH2 0x23F JUMP JUMPDEST DUP4 PUSH0 MSTORE PUSH1 0x20 PUSH0 KECCAK256 PUSH1 0x1F DUP5 ADD PUSH1 0x5 SHR DUP2 ADD SWAP2 PUSH1 0x20 DUP6 LT PUSH2 0x2D3 JUMPI JUMPDEST PUSH1 0x1F ADD PUSH1 0x5 SHR ADD SWAP1 JUMPDEST DUP2 DUP2 LT PUSH2 0x2C8 JUMPI POP PUSH2 0x1B4 JUMP JUMPDEST PUSH0 DUP2 SSTORE PUSH1 0x1 ADD PUSH2 0x2BB JUMP JUMPDEST SWAP1 SWAP2 POP DUP2 SWAP1 PUSH2 0x2B2 JUMP JUMPDEST PUSH4 0x4E487B71 PUSH1 0xE0 SHL PUSH0 MSTORE PUSH1 0x41 PUSH1 0x4 MSTORE PUSH1 0x24 PUSH0 REVERT JUMPDEST ADD MLOAD SWAP1 POP PUSH0 DUP1 PUSH2 0x176 JUMP JUMPDEST PUSH0 DUP8 DUP2 MSTORE DUP3 DUP2 KECCAK256 SWAP4 POP PUSH1 0x1F NOT DUP6 AND SWAP1 JUMPDEST DUP2 DUP2 LT PUSH2 0x347 JUMPI POP SWAP1 DUP5 PUSH1 0x1 SWAP6 SWAP5 SWAP4 SWAP3 LT PUSH2 0x32F JUMPI JUMPDEST POP POP POP DUP2 SHL ADD DUP4 SSTORE PUSH2 0x18A JUMP JUMPDEST ADD MLOAD PUSH0 NOT PUSH1 0xF8 DUP5 PUSH1 0x3 SHL AND SHR NOT AND SWAP1 SSTORE PUSH0 DUP1 DUP1 PUSH2 0x322 JUMP JUMPDEST SWAP3 SWAP4 PUSH1 0x20 PUSH1 0x1 DUP2 SWAP3 DUP8 DUP7 ADD MLOAD DUP2 SSTORE ADD SWAP6 ADD SWAP4 ADD PUSH2 0x30C JUMP JUMPDEST SWAP1 SWAP2 POP DUP6 PUSH0 MSTORE PUSH1 0x20 PUSH0 KECCAK256 PUSH1 0x1F DUP5 ADD PUSH1 0x5 SHR DUP2 ADD SWAP2 PUSH1 0x20 DUP6 LT PUSH2 0x3A5 JUMPI JUMPDEST SWAP1 PUSH1 0x1F DUP6 SWAP5 SWAP4 SWAP3 ADD PUSH1 0x5 SHR ADD SWAP1 JUMPDEST DUP2 DUP2 LT PUSH2 0x397 JUMPI POP PUSH2 0x160 JUMP JUMPDEST PUSH0 DUP2 SSTORE DUP5 SWAP4 POP PUSH1 0x1 ADD PUSH2 0x38A JUMP JUMPDEST SWAP1 SWAP2 POP DUP2 SWAP1 PUSH2 0x37C JUMP JUMPDEST PUSH1 0x40 MLOAD PUSH3 0x461BCD PUSH1 0xE5 SHL DUP2 MSTORE PUSH1 0x20 PUSH1 0x4 DUP3 ADD MSTORE PUSH1 0xE PUSH1 0x24 DUP3 ADD MSTORE PUSH14 0x496E76616C696420726174696E67 PUSH1 0x90 SHL PUSH1 0x44 DUP3 ADD MSTORE PUSH1 0x64 SWAP1 REVERT JUMPDEST PUSH1 0x40 MLOAD PUSH3 0x461BCD PUSH1 0xE5 SHL DUP2 MSTORE PUSH1 0x20 PUSH1 0x4 DUP3 ADD MSTORE PUSH1 0x12 PUSH1 0x24 DUP3 ADD MSTORE PUSH18 0x44617461207479706520746F6F206C6F6E67 PUSH1 0x70 SHL PUSH1 0x44 DUP3 ADD MSTORE PUSH1 0x64 SWAP1 REVERT JUMPDEST PUSH1 0x40 MLOAD PUSH3 0x461BCD PUSH1 0xE5 SHL DUP2 MSTORE PUSH1 0x20 PUSH1 0x4 DUP3 ADD MSTORE PUSH1 0xD PUSH1 0x24 DUP3 ADD MSTORE PUSH13 0x4461746120746F6F206C6F6E67 PUSH1 0x98 SHL PUSH1 0x44 DUP3 ADD MSTORE PUSH1 0x64 SWAP1 REVERT JUMPDEST PUSH1 0x40 MLOAD PUSH3 0x461BCD PUSH1 0xE5 SHL DUP2 MSTORE PUSH1 0x20 PUSH1 0x4 DUP3 ADD MSTORE PUSH1 0xF PUSH1 0x24 DUP3 ADD MSTORE PUSH15 0x14DD1BDC9859D9481A5CC8199D5B1B PUSH1 0x8A SHL PUSH1 0x44 DUP3 ADD MSTORE PUSH1 0x64 SWAP1 REVERT JUMPDEST PUSH1 0x40 MLOAD PUSH3 0x461BCD PUSH1 0xE5 SHL DUP2 MSTORE PUSH1 0x20 PUSH1 0x4 DUP3 ADD MSTORE PUSH1 0x1D PUSH1 0x24 DUP3 ADD MSTORE PUSH32 0x4F6E6C79204D617374657220436F6E74726163742063616E2063616C6C000000 PUSH1 0x44 DUP3 ADD MSTORE PUSH1 0x64 SWAP1 REVERT JUMPDEST PUSH0 DUP1 REVERT JUMPDEST CALLVALUE PUSH2 0x4D0 JUMPI PUSH1 0x20 CALLDATASIZE PUSH1 0x3 NOT ADD SLT PUSH2 0x4D0 JUMPI PUSH1 0x4 CALLDATALOAD PUSH0 MSTORE PUSH0 PUSH1 0x20 MSTORE PUSH1 0x40 PUSH0 KECCAK256 PUSH2 0x4FB DUP2 PUSH2 0x738 JUMP JUMPDEST PUSH2 0x525 PUSH2 0x50A PUSH1 0x1 DUP5 ADD PUSH2 0x738 JUMP JUMPDEST SWAP3 PUSH1 0xFF PUSH1 0x3 PUSH1 0x2 DUP4 ADD SLOAD SWAP3 ADD SLOAD AND SWAP1 PUSH1 0x40 MLOAD SWAP5 DUP6 SWAP5 DUP6 PUSH2 0x68B JUMP JUMPDEST SUB SWAP1 RETURN JUMPDEST CALLVALUE PUSH2 0x4D0 JUMPI PUSH0 CALLDATASIZE PUSH1 0x3 NOT ADD SLT PUSH2 0x4D0 JUMPI PUSH1 0x2 SLOAD PUSH1 0x40 MLOAD PUSH1 0x1 PUSH1 0x1 PUSH1 0xA0 SHL SUB SWAP1 SWAP2 AND DUP2 MSTORE PUSH1 0x20 SWAP1 RETURN JUMPDEST CALLVALUE PUSH2 0x4D0 JUMPI PUSH0 CALLDATASIZE PUSH1 0x3 NOT ADD SLT PUSH2 0x4D0 JUMPI PUSH1 0x20 PUSH2 0x3E8 PUSH1 0x1 SLOAD LT ISZERO PUSH1 0x40 MLOAD SWAP1 DUP2 MSTORE RETURN JUMPDEST CALLVALUE PUSH2 0x4D0 JUMPI PUSH0 CALLDATASIZE PUSH1 0x3 NOT ADD SLT PUSH2 0x4D0 JUMPI PUSH1 0x20 PUSH1 0x40 MLOAD PUSH2 0x3E8 DUP2 MSTORE RETURN JUMPDEST CALLVALUE PUSH2 0x4D0 JUMPI PUSH0 CALLDATASIZE PUSH1 0x3 NOT ADD SLT PUSH2 0x4D0 JUMPI PUSH1 0x20 PUSH1 0x1 SLOAD PUSH1 0x40 MLOAD SWAP1 DUP2 MSTORE RETURN JUMPDEST CALLVALUE PUSH2 0x4D0 JUMPI PUSH1 0x20 CALLDATASIZE PUSH1 0x3 NOT ADD SLT PUSH2 0x4D0 JUMPI PUSH1 0x4 CALLDATALOAD PUSH0 MSTORE PUSH0 PUSH1 0x20 MSTORE PUSH1 0x40 PUSH0 KECCAK256 SWAP1 PUSH2 0x5D4 DUP2 PUSH2 0x6FA JUMP JUMPDEST PUSH2 0x5DD DUP3 PUSH2 0x738 JUMP JUMPDEST DUP2 MSTORE PUSH2 0x5EB PUSH1 0x1 DUP4 ADD PUSH2 0x738 JUMP JUMPDEST SWAP1 PUSH1 0x20 DUP2 ADD SWAP2 DUP3 MSTORE PUSH1 0xFF PUSH1 0x3 PUSH1 0x2 DUP6 ADD SLOAD SWAP5 PUSH1 0x40 DUP5 ADD SWAP6 DUP7 MSTORE ADD SLOAD AND PUSH1 0x60 DUP3 ADD SWAP1 DUP2 MSTORE DUP2 MLOAD MLOAD ISZERO PUSH2 0x631 JUMPI PUSH1 0xFF PUSH2 0x525 SWAP3 MLOAD SWAP4 MLOAD SWAP5 MLOAD SWAP2 MLOAD AND SWAP1 PUSH1 0x40 MLOAD SWAP5 DUP6 SWAP5 DUP6 PUSH2 0x68B JUMP JUMPDEST PUSH1 0x40 MLOAD PUSH3 0x461BCD PUSH1 0xE5 SHL DUP2 MSTORE PUSH1 0x20 PUSH1 0x4 DUP3 ADD MSTORE PUSH1 0xE PUSH1 0x24 DUP3 ADD MSTORE PUSH14 0x11185D18481B9BDD08199BDD5B99 PUSH1 0x92 SHL PUSH1 0x44 DUP3 ADD MSTORE PUSH1 0x64 SWAP1 REVERT JUMPDEST DUP1 MLOAD DUP1 DUP4 MSTORE PUSH1 0x20 SWAP3 SWAP2 DUP2 SWAP1 DUP5 ADD DUP5 DUP5 ADD MCOPY PUSH0 DUP3 DUP3 ADD DUP5 ADD MSTORE PUSH1 0x1F ADD PUSH1 0x1F NOT AND ADD ADD SWAP1 JUMP JUMPDEST SWAP3 SWAP5 SWAP4 PUSH2 0x6B6 PUSH1 0x60 SWAP4 PUSH2 0x6A8 PUSH1 0xFF SWAP5 PUSH1 0x80 DUP9 MSTORE PUSH1 0x80 DUP9 ADD SWAP1 PUSH2 0x667 JUMP JUMPDEST SWAP1 DUP7 DUP3 SUB PUSH1 0x20 DUP9 ADD MSTORE PUSH2 0x667 JUMP JUMPDEST SWAP6 PUSH1 0x40 DUP6 ADD MSTORE AND SWAP2 ADD MSTORE JUMP JUMPDEST SWAP1 PUSH1 0x1 DUP3 DUP2 SHR SWAP3 AND DUP1 ISZERO PUSH2 0x6F0 JUMPI JUMPDEST PUSH1 0x20 DUP4 LT EQ PUSH2 0x6DC JUMPI JUMP JUMPDEST PUSH4 0x4E487B71 PUSH1 0xE0 SHL PUSH0 MSTORE PUSH1 0x22 PUSH1 0x4 MSTORE PUSH1 0x24 PUSH0 REVERT JUMPDEST SWAP2 PUSH1 0x7F AND SWAP2 PUSH2 0x6D1 JUMP JUMPDEST PUSH1 0x80 DUP2 ADD SWAP1 DUP2 LT PUSH8 0xFFFFFFFFFFFFFFFF DUP3 GT OR PUSH2 0x2DD JUMPI PUSH1 0x40 MSTORE JUMP JUMPDEST SWAP1 PUSH1 0x1F DUP1 NOT SWAP2 ADD AND DUP2 ADD SWAP1 DUP2 LT PUSH8 0xFFFFFFFFFFFFFFFF DUP3 GT OR PUSH2 0x2DD JUMPI PUSH1 0x40 MSTORE JUMP JUMPDEST SWAP1 PUSH1 0x40 MLOAD SWAP2 DUP3 PUSH0 DUP3 SLOAD SWAP3 PUSH2 0x74B DUP5 PUSH2 0x6C2 JUMP JUMPDEST DUP1 DUP5 MSTORE SWAP4 PUSH1 0x1 DUP2 AND SWAP1 DUP2 ISZERO PUSH2 0x7B6 JUMPI POP PUSH1 0x1 EQ PUSH2 0x772 JUMPI JUMPDEST POP PUSH2 0x770 SWAP3 POP SUB DUP4 PUSH2 0x716 JUMP JUMPDEST JUMP JUMPDEST SWAP1 POP PUSH0 SWAP3 SWAP2 SWAP3 MSTORE PUSH1 0x20 PUSH0 KECCAK256 SWAP1 PUSH0 SWAP2 JUMPDEST DUP2 DUP4 LT PUSH2 0x79A JUMPI POP POP SWAP1 PUSH1 0x20 PUSH2 0x770 SWAP3 DUP3 ADD ADD PUSH0 PUSH2 0x763 JUMP JUMPDEST PUSH1 0x20 SWAP2 SWAP4 POP DUP1 PUSH1 0x1 SWAP2 SLOAD DUP4 DUP6 DUP10 ADD ADD MSTORE ADD SWAP2 ADD SWAP1 SWAP2 DUP5 SWAP3 PUSH2 0x781 JUMP JUMPDEST SWAP1 POP PUSH1 0x20 SWAP3 POP PUSH2 0x770 SWAP5 SWAP2 POP PUSH1 0xFF NOT AND DUP3 DUP5 ADD MSTORE ISZERO ISZERO PUSH1 0x5 SHL DUP3 ADD ADD PUSH0 PUSH2 0x763 JUMP JUMPDEST DUP2 PUSH1 0x1F DUP3 ADD SLT ISZERO PUSH2 0x4D0 JUMPI DUP1 CALLDATALOAD SWAP1 PUSH8 0xFFFFFFFFFFFFFFFF DUP3 GT PUSH2 0x2DD JUMPI PUSH1 0x40 MLOAD SWAP3 PUSH2 0x80D PUSH1 0x1F DUP5 ADD PUSH1 0x1F NOT AND PUSH1 0x20 ADD DUP6 PUSH2 0x716 JUMP JUMPDEST DUP3 DUP5 MSTORE PUSH1 0x20 DUP4 DUP4 ADD ADD GT PUSH2 0x4D0 JUMPI DUP2 PUSH0 SWAP3 PUSH1 0x20 DUP1 SWAP4 ADD DUP4 DUP7 ADD CALLDATACOPY DUP4 ADD ADD MSTORE SWAP1 JUMP INVALID LOG2 PUSH5 0x6970667358 0x22 SLT KECCAK256 0xB3 DUP12 0xB9 XOR PUSH19 0x5C90EAD853D241FB9CCAA81495BF9870FA1935 0x4F SWAP1 DATALOADN 0x1505 0x28 0xB4 JUMPF 0x6473 PUSH16 0x6C634300081E00330000000000000000 "
				},
				"gasEstimates": {
					"creation": {
						"codeDepositCost": "1575200",
						"executionCost": "infinite",
						"totalCost": "infinite"
					},
					"external": {
						"MAX_CHILD_CONTRACTS()": "235",
						"childContracts(uint256)": "2530",
						"childCount()": "2382",
						"dataHashToId(bytes32)": "2557",
						"dataIdCounter()": "2360",
						"dataToChild(uint256)": "2736",
						"dataTypeToIds(string,uint256)": "infinite",
						"getBatchData(uint256,uint256)": "infinite",
						"getChildCount()": "2470",
						"getData(uint256)": "infinite",
						"getDataByHash(bytes32)": "infinite",
						"getDataByRating(uint8,uint256,uint256)": "infinite",
						"getDataByType(string,uint256,uint256)": "infinite",
						"getDataTypeCount(string)": "infinite",
						"getLatestData(uint256,uint256,string)": "infinite",
						"getRatingCount(uint8)": "2758",
						"owner()": "2428",
						"ratingToIds(uint8,uint256)": "6803",
						"storeData(string,string,uint8)": "infinite",
						"timeToIds(uint256,uint256)": "6731"
					},
					"internal": {
						"createNewChildContract()": "infinite"
					}
				},
				"methodIdentifiers": {
					"MAX_CHILD_CONTRACTS()": "3abe26d4",
					"childContracts(uint256)": "95bc9928",
					"childCount()": "8bc3bbc0",
					"dataHashToId(bytes32)": "a42b2cf0",
					"dataIdCounter()": "3cf1c366",
					"dataToChild(uint256)": "ccc658f8",
					"dataTypeToIds(string,uint256)": "e0c3ad85",
					"getBatchData(uint256,uint256)": "907c6c2e",
					"getChildCount()": "a2ed365b",
					"getData(uint256)": "0178fe3f",
					"getDataByHash(bytes32)": "c5372dcc",
					"getDataByRating(uint8,uint256,uint256)": "afff9b4d",
					"getDataByType(string,uint256,uint256)": "ab746ba3",
					"getDataTypeCount(string)": "b5174a12",
					"getLatestData(uint256,uint256,string)": "2d281364",
					"getRatingCount(uint8)": "b8222859",
					"owner()": "8da5cb5b",
					"ratingToIds(uint8,uint256)": "37d7cd79",
					"storeData(string,string,uint8)": "c747a0f5",
					"timeToIds(uint256,uint256)": "1c175ee4"
				}
			},
			"storageLayout": {
				"storage": [
					{
						"astId": 175,
						"contract": "contracts/MasterStorage.sol:MasterStorage",
						"label": "childContracts",
						"offset": 0,
						"slot": "0",
						"type": "t_mapping(t_uint256,t_address)"
					},
					{
						"astId": 179,
						"contract": "contracts/MasterStorage.sol:MasterStorage",
						"label": "dataToChild",
						"offset": 0,
						"slot": "1",
						"type": "t_mapping(t_uint256,t_address)"
					},
					{
						"astId": 184,
						"contract": "contracts/MasterStorage.sol:MasterStorage",
						"label": "dataTypeToIds",
						"offset": 0,
						"slot": "2",
						"type": "t_mapping(t_string_memory_ptr,t_array(t_uint256)dyn_storage)"
					},
					{
						"astId": 189,
						"contract": "contracts/MasterStorage.sol:MasterStorage",
						"label": "ratingToIds",
						"offset": 0,
						"slot": "3",
						"type": "t_mapping(t_uint8,t_array(t_uint256)dyn_storage)"
					},
					{
						"astId": 194,
						"contract": "contracts/MasterStorage.sol:MasterStorage",
						"label": "timeToIds",
						"offset": 0,
						"slot": "4",
						"type": "t_mapping(t_uint256,t_array(t_uint256)dyn_storage)"
					},
					{
						"astId": 198,
						"contract": "contracts/MasterStorage.sol:MasterStorage",
						"label": "dataHashToId",
						"offset": 0,
						"slot": "5",
						"type": "t_mapping(t_bytes32,t_uint256)"
					},
					{
						"astId": 200,
						"contract": "contracts/MasterStorage.sol:MasterStorage",
						"label": "childCount",
						"offset": 0,
						"slot": "6",
						"type": "t_uint256"
					},
					{
						"astId": 202,
						"contract": "contracts/MasterStorage.sol:MasterStorage",
						"label": "dataIdCounter",
						"offset": 0,
						"slot": "7",
						"type": "t_uint256"
					},
					{
						"astId": 204,
						"contract": "contracts/MasterStorage.sol:MasterStorage",
						"label": "owner",
						"offset": 0,
						"slot": "8",
						"type": "t_address"
					}
				],
				"types": {
					"t_address": {
						"encoding": "inplace",
						"label": "address",
						"numberOfBytes": "20"
					},
					"t_array(t_uint256)dyn_storage": {
						"base": "t_uint256",
						"encoding": "dynamic_array",
						"label": "uint256[]",
						"numberOfBytes": "32"
					},
					"t_bytes32": {
						"encoding": "inplace",
						"label": "bytes32",
						"numberOfBytes": "32"
					},
					"t_mapping(t_bytes32,t_uint256)": {
						"encoding": "mapping",
						"key": "t_bytes32",
						"label": "mapping(bytes32 => uint256)",
						"numberOfBytes": "32",
						"value": "t_uint256"
					},
					"t_mapping(t_string_memory_ptr,t_array(t_uint256)dyn_storage)": {
						"encoding": "mapping",
						"key": "t_string_memory_ptr",
						"label": "mapping(string => uint256[])",
						"numberOfBytes": "32",
						"value": "t_array(t_uint256)dyn_storage"
					},
					"t_mapping(t_uint256,t_address)": {
						"encoding": "mapping",
						"key": "t_uint256",
						"label": "mapping(uint256 => address)",
						"numberOfBytes": "32",
						"value": "t_address"
					},
					"t_mapping(t_uint256,t_array(t_uint256)dyn_storage)": {
						"encoding": "mapping",
						"key": "t_uint256",
						"label": "mapping(uint256 => uint256[])",
						"numberOfBytes": "32",
						"value": "t_array(t_uint256)dyn_storage"
					},
					"t_mapping(t_uint8,t_array(t_uint256)dyn_storage)": {
						"encoding": "mapping",
						"key": "t_uint8",
						"label": "mapping(uint8 => uint256[])",
						"numberOfBytes": "32",
						"value": "t_array(t_uint256)dyn_storage"
					},
					"t_string_memory_ptr": {
						"encoding": "bytes",
						"label": "string",
						"numberOfBytes": "32"
					},
					"t_uint256": {
						"encoding": "inplace",
						"label": "uint256",
						"numberOfBytes": "32"
					},
					"t_uint8": {
						"encoding": "inplace",
						"label": "uint8",
						"numberOfBytes": "1"
					}
				}
			},
			"userdoc": {
				"kind": "user",
				"methods": {},
				"version": 1
			}
		}
	}
}