{
	"data": {
		"bytecode": {
			"linkReferences": {},
			"object": "608034607457601f6108f138819003918201601f19168301916001600160401b03831184841017607857808492602094604052833981010312607457516001600160a01b03811690819003607457600280546001600160a01b0319169190911790555f600155604051610864908161008d8239f35b5f80fd5b634e487b7160e01b5f52604160045260245ffdfe6080806040526004361015610012575f80fd5b5f3560e01c9081630178fe3f146105ac575080635da40c471461058f578063a0b0607f14610573578063babd3d9a14610551578063cd446e2214610529578063da6ea12a146104d45763fd1eb1fe14610069575f80fd5b346104d05760a03660031901126104d05760243567ffffffffffffffff81116104d05761009a9036906004016107d8565b60443567ffffffffffffffff81116104d0576100ba9036906004016107d8565b906084359160ff83168093036104d0576002546001600160a01b0316330361048b576103e86001541015610454576103e882511161041f5760328151116103e557600583116103af5760405191610110836106fa565b82526020820190815260408201906064358252606083019384526004355f525f60205260405f20925180519067ffffffffffffffff82116102dd57819061015786546106c2565b601f811161035f575b50602090601f83116001146102fc575f926102f1575b50508160011b915f199060031b1c19161783555b518051600184019167ffffffffffffffff82116102dd576101ab83546106c2565b601f8111610298575b50602090601f831160011461022f57918060ff969492600396945f92610224575b50508160011b915f1990871b1c19161790555b5160028201550191511660ff198254161790556001545f198114610210576001016001555f80f35b634e487b7160e01b5f52601160045260245ffd5b015190505f806101d5565b90601f19831691845f52815f20925f5b81811061028057509260019285926003989660ff9a989610610269575b505050811b0190556101e8565b01515f1983891b60f8161c191690555f808061025c565b9293602060018192878601518155019501930161023f565b835f5260205f20601f840160051c810191602085106102d3575b601f0160051c01905b8181106102c857506101b4565b5f81556001016102bb565b90915081906102b2565b634e487b7160e01b5f52604160045260245ffd5b015190505f80610176565b5f8781528281209350601f198516905b818110610347575090846001959493921061032f575b505050811b01835561018a565b01515f1960f88460031b161c191690555f8080610322565b9293602060018192878601518155019501930161030c565b909150855f5260205f20601f840160051c810191602085106103a5575b90601f859493920160051c01905b8181106103975750610160565b5f815584935060010161038a565b909150819061037c565b60405162461bcd60e51b815260206004820152600e60248201526d496e76616c696420726174696e6760901b6044820152606490fd5b60405162461bcd60e51b815260206004820152601260248201527144617461207479706520746f6f206c6f6e6760701b6044820152606490fd5b60405162461bcd60e51b815260206004820152600d60248201526c4461746120746f6f206c6f6e6760981b6044820152606490fd5b60405162461bcd60e51b815260206004820152600f60248201526e14dd1bdc9859d9481a5cc8199d5b1b608a1b6044820152606490fd5b60405162461bcd60e51b815260206004820152601d60248201527f4f6e6c79204d617374657220436f6e74726163742063616e2063616c6c0000006044820152606490fd5b5f80fd5b346104d05760203660031901126104d0576004355f525f60205260405f206104fb81610738565b61052561050a60018401610738565b9260ff6003600283015492015416906040519485948561068b565b0390f35b346104d0575f3660031901126104d0576002546040516001600160a01b039091168152602090f35b346104d0575f3660031901126104d05760206103e86001541015604051908152f35b346104d0575f3660031901126104d05760206040516103e88152f35b346104d0575f3660031901126104d0576020600154604051908152f35b346104d05760203660031901126104d0576004355f525f60205260405f20906105d4816106fa565b6105dd82610738565b81526105eb60018301610738565b906020810191825260ff60036002850154946040840195865201541660608201908152815151156106315760ff610525925193519451915116906040519485948561068b565b60405162461bcd60e51b815260206004820152600e60248201526d11185d18481b9bdd08199bdd5b9960921b6044820152606490fd5b805180835260209291819084018484015e5f828201840152601f01601f1916010190565b9294936106b66060936106a860ff94608088526080880190610667565b908682036020880152610667565b95604085015216910152565b90600182811c921680156106f0575b60208310146106dc57565b634e487b7160e01b5f52602260045260245ffd5b91607f16916106d1565b6080810190811067ffffffffffffffff8211176102dd57604052565b90601f8019910116810190811067ffffffffffffffff8211176102dd57604052565b9060405191825f82549261074b846106c2565b80845293600181169081156107b65750600114610772575b5061077092500383610716565b565b90505f9291925260205f20905f915b81831061079a575050906020610770928201015f610763565b6020919350806001915483858901015201910190918492610781565b90506020925061077094915060ff191682840152151560051b8201015f610763565b81601f820112156104d05780359067ffffffffffffffff82116102dd576040519261080d601f8401601f191660200185610716565b828452602083830101116104d057815f92602080930183860137830101529056fea2646970667358221220b38bb918725c90ead853d241fb9ccaa81495bf9870fa19354f90d1150528b4e564736f6c634300081e0033",
			"opcodes": "PUSH1 0x80 CALLVALUE PUSH1 0x74 JUMPI PUSH1 0x1F PUSH2 0x8F1 CODESIZE DUP2 SWAP1 SUB SWAP2 DUP3 ADD PUSH1 0x1F NOT AND DUP4 ADD SWAP2 PUSH1 0x1 PUSH1 0x1 PUSH1 0x40 SHL SUB DUP4 GT DUP5 DUP5 LT OR PUSH1 0x78 JUMPI DUP1 DUP5 SWAP3 PUSH1 0x20 SWAP5 PUSH1 0x40 MSTORE DUP4 CODECOPY DUP2 ADD SUB SLT PUSH1 0x74 JUMPI MLOAD PUSH1 0x1 PUSH1 0x1 PUSH1 0xA0 SHL SUB DUP2 AND SWAP1 DUP2 SWAP1 SUB PUSH1 0x74 JUMPI PUSH1 0x2 DUP1 SLOAD PUSH1 0x1 PUSH1 0x1 PUSH1 0xA0 SHL SUB NOT AND SWAP2 SWAP1 SWAP2 OR SWAP1 SSTORE PUSH0 PUSH1 0x1 SSTORE PUSH1 0x40 MLOAD PUSH2 0x864 SWAP1 DUP2 PUSH2 0x8D DUP3 CODECOPY RETURN JUMPDEST PUSH0 DUP1 REVERT JUMPDEST PUSH4 0x4E487B71 PUSH1 0xE0 SHL PUSH0 MSTORE PUSH1 0x41 PUSH1 0x4 MSTORE PUSH1 0x24 PUSH0 REVERT INVALID PUSH1 0x80 DUP1 PUSH1 0x40 MSTORE PUSH1 0x4 CALLDATASIZE LT ISZERO PUSH2 0x12 JUMPI PUSH0 DUP1 REVERT JUMPDEST PUSH0 CALLDATALOAD PUSH1 0xE0 SHR SWAP1 DUP2 PUSH4 0x178FE3F EQ PUSH2 0x5AC JUMPI POP DUP1 PUSH4 0x5DA40C47 EQ PUSH2 0x58F JUMPI DUP1 PUSH4 0xA0B0607F EQ PUSH2 0x573 JUMPI DUP1 PUSH4 0xBABD3D9A EQ PUSH2 0x551 JUMPI DUP1 PUSH4 0xCD446E22 EQ PUSH2 0x529 JUMPI DUP1 PUSH4 0xDA6EA12A EQ PUSH2 0x4D4 JUMPI PUSH4 0xFD1EB1FE EQ PUSH2 0x69 JUMPI PUSH0 DUP1 REVERT JUMPDEST CALLVALUE PUSH2 0x4D0 JUMPI PUSH1 0xA0 CALLDATASIZE PUSH1 0x3 NOT ADD SLT PUSH2 0x4D0 JUMPI PUSH1 0x24 CALLDATALOAD PUSH8 0xFFFFFFFFFFFFFFFF DUP2 GT PUSH2 0x4D0 JUMPI PUSH2 0x9A SWAP1 CALLDATASIZE SWAP1 PUSH1 0x4 ADD PUSH2 0x7D8 JUMP JUMPDEST PUSH1 0x44 CALLDATALOAD PUSH8 0xFFFFFFFFFFFFFFFF DUP2 GT PUSH2 0x4D0 JUMPI PUSH2 0xBA SWAP1 CALLDATASIZE SWAP1 PUSH1 0x4 ADD PUSH2 0x7D8 JUMP JUMPDEST SWAP1 PUSH1 0x84 CALLDATALOAD SWAP2 PUSH1 0xFF DUP4 AND DUP1 SWAP4 SUB PUSH2 0x4D0 JUMPI PUSH1 0x2 SLOAD PUSH1 0x1 PUSH1 0x1 PUSH1 0xA0 SHL SUB AND CALLER SUB PUSH2 0x48B JUMPI PUSH2 0x3E8 PUSH1 0x1 SLOAD LT ISZERO PUSH2 0x454 JUMPI PUSH2 0x3E8 DUP3 MLOAD GT PUSH2 0x41F JUMPI PUSH1 0x32 DUP2 MLOAD GT PUSH2 0x3E5 JUMPI PUSH1 0x5 DUP4 GT PUSH2 0x3AF JUMPI PUSH1 0x40 MLOAD SWAP2 PUSH2 0x110 DUP4 PUSH2 0x6FA JUMP JUMPDEST DUP3 MSTORE PUSH1 0x20 DUP3 ADD SWAP1 DUP2 MSTORE PUSH1 0x40 DUP3 ADD SWAP1 PUSH1 0x64 CALLDATALOAD DUP3 MSTORE PUSH1 0x60 DUP4 ADD SWAP4 DUP5 MSTORE PUSH1 0x4 CALLDATALOAD PUSH0 MSTORE PUSH0 PUSH1 0x20 MSTORE PUSH1 0x40 PUSH0 KECCAK256 SWAP3 MLOAD DUP1 MLOAD SWAP1 PUSH8 0xFFFFFFFFFFFFFFFF DUP3 GT PUSH2 0x2DD JUMPI DUP2 SWAP1 PUSH2 0x157 DUP7 SLOAD PUSH2 0x6C2 JUMP JUMPDEST PUSH1 0x1F DUP2 GT PUSH2 0x35F JUMPI JUMPDEST POP PUSH1 0x20 SWAP1 PUSH1 0x1F DUP4 GT PUSH1 0x1 EQ PUSH2 0x2FC JUMPI PUSH0 SWAP3 PUSH2 0x2F1 JUMPI JUMPDEST POP POP DUP2 PUSH1 0x1 SHL SWAP2 PUSH0 NOT SWAP1 PUSH1 0x3 SHL SHR NOT AND OR DUP4 SSTORE JUMPDEST MLOAD DUP1 MLOAD PUSH1 0x1 DUP5 ADD SWAP2 PUSH8 0xFFFFFFFFFFFFFFFF DUP3 GT PUSH2 0x2DD JUMPI PUSH2 0x1AB DUP4 SLOAD PUSH2 0x6C2 JUMP JUMPDEST PUSH1 0x1F DUP2 GT PUSH2 0x298 JUMPI JUMPDEST POP PUSH1 0x20 SWAP1 PUSH1 0x1F DUP4 GT PUSH1 0x1 EQ PUSH2 0x22F JUMPI SWAP2 DUP1 PUSH1 0xFF SWAP7 SWAP5 SWAP3 PUSH1 0x3 SWAP7 SWAP5 PUSH0 SWAP3 PUSH2 0x224 JUMPI JUMPDEST POP POP DUP2 PUSH1 0x1 SHL SWAP2 PUSH0 NOT SWAP1 DUP8 SHL SHR NOT AND OR SWAP1 SSTORE JUMPDEST MLOAD PUSH1 0x2 DUP3 ADD SSTORE ADD SWAP2 MLOAD AND PUSH1 0xFF NOT DUP3 SLOAD AND OR SWAP1 SSTORE PUSH1 0x1 SLOAD PUSH0 NOT DUP2 EQ PUSH2 0x210 JUMPI PUSH1 0x1 ADD PUSH1 0x1 SSTORE PUSH0 DUP1 RETURN JUMPDEST PUSH4 0x4E487B71 PUSH1 0xE0 SHL PUSH0 MSTORE PUSH1 0x11 PUSH1 0x4 MSTORE PUSH1 0x24 PUSH0 REVERT JUMPDEST ADD MLOAD SWAP1 POP PUSH0 DUP1 PUSH2 0x1D5 JUMP JUMPDEST SWAP1 PUSH1 0x1F NOT DUP4 AND SWAP2 DUP5 PUSH0 MSTORE DUP2 PUSH0 KECCAK256 SWAP3 PUSH0 JUMPDEST DUP2 DUP2 LT PUSH2 0x280 JUMPI POP SWAP3 PUSH1 0x1 SWAP3 DUP6 SWAP3 PUSH1 0x3 SWAP9 SWAP7 PUSH1 0xFF SWAP11 SWAP9 SWAP7 LT PUSH2 0x269 JUMPI JUMPDEST POP POP POP DUP2 SHL ADD SWAP1 SSTORE PUSH2 0x1E8 JUMP JUMPDEST ADD MLOAD PUSH0 NOT DUP4 DUP10 SHL PUSH1 0xF8 AND SHR NOT AND SWAP1 SSTORE PUSH0 DUP1 DUP1 PUSH2 0x25C JUMP JUMPDEST SWAP3 SWAP4 PUSH1 0x20 PUSH1 0x1 DUP2 SWAP3 DUP8 DUP7 ADD MLOAD DUP2 SSTORE ADD SWAP6 ADD SWAP4 ADD PUSH2 0x23F JUMP JUMPDEST DUP4 PUSH0 MSTORE PUSH1 0x20 PUSH0 KECCAK256 PUSH1 0x1F DUP5 ADD PUSH1 0x5 SHR DUP2 ADD SWAP2 PUSH1 0x20 DUP6 LT PUSH2 0x2D3 JUMPI JUMPDEST PUSH1 0x1F ADD PUSH1 0x5 SHR ADD SWAP1 JUMPDEST DUP2 DUP2 LT PUSH2 0x2C8 JUMPI POP PUSH2 0x1B4 JUMP JUMPDEST PUSH0 DUP2 SSTORE PUSH1 0x1 ADD PUSH2 0x2BB JUMP JUMPDEST SWAP1 SWAP2 POP DUP2 SWAP1 PUSH2 0x2B2 JUMP JUMPDEST PUSH4 0x4E487B71 PUSH1 0xE0 SHL PUSH0 MSTORE PUSH1 0x41 PUSH1 0x4 MSTORE PUSH1 0x24 PUSH0 REVERT JUMPDEST ADD MLOAD SWAP1 POP PUSH0 DUP1 PUSH2 0x176 JUMP JUMPDEST PUSH0 DUP8 DUP2 MSTORE DUP3 DUP2 KECCAK256 SWAP4 POP PUSH1 0x1F NOT DUP6 AND SWAP1 JUMPDEST DUP2 DUP2 LT PUSH2 0x347 JUMPI POP SWAP1 DUP5 PUSH1 0x1 SWAP6 SWAP5 SWAP4 SWAP3 LT PUSH2 0x32F JUMPI JUMPDEST POP POP POP DUP2 SHL ADD DUP4 SSTORE PUSH2 0x18A JUMP JUMPDEST ADD MLOAD PUSH0 NOT PUSH1 0xF8 DUP5 PUSH1 0x3 SHL AND SHR NOT AND SWAP1 SSTORE PUSH0 DUP1 DUP1 PUSH2 0x322 JUMP JUMPDEST SWAP3 SWAP4 PUSH1 0x20 PUSH1 0x1 DUP2 SWAP3 DUP8 DUP7 ADD MLOAD DUP2 SSTORE ADD SWAP6 ADD SWAP4 ADD PUSH2 0x30C JUMP JUMPDEST SWAP1 SWAP2 POP DUP6 PUSH0 MSTORE PUSH1 0x20 PUSH0 KECCAK256 PUSH1 0x1F DUP5 ADD PUSH1 0x5 SHR DUP2 ADD SWAP2 PUSH1 0x20 DUP6 LT PUSH2 0x3A5 JUMPI JUMPDEST SWAP1 PUSH1 0x1F DUP6 SWAP5 SWAP4 SWAP3 ADD PUSH1 0x5 SHR ADD SWAP1 JUMPDEST DUP2 DUP2 LT PUSH2 0x397 JUMPI POP PUSH2 0x160 JUMP JUMPDEST PUSH0 DUP2 SSTORE DUP5 SWAP4 POP PUSH1 0x1 ADD PUSH2 0x38A JUMP JUMPDEST SWAP1 SWAP2 POP DUP2 SWAP1 PUSH2 0x37C JUMP JUMPDEST PUSH1 0x40 MLOAD PUSH3 0x461BCD PUSH1 0xE5 SHL DUP2 MSTORE PUSH1 0x20 PUSH1 0x4 DUP3 ADD MSTORE PUSH1 0xE PUSH1 0x24 DUP3 ADD MSTORE PUSH14 0x496E76616C696420726174696E67 PUSH1 0x90 SHL PUSH1 0x44 DUP3 ADD MSTORE PUSH1 0x64 SWAP1 REVERT JUMPDEST PUSH1 0x40 MLOAD PUSH3 0x461BCD PUSH1 0xE5 SHL DUP2 MSTORE PUSH1 0x20 PUSH1 0x4 DUP3 ADD MSTORE PUSH1 0x12 PUSH1 0x24 DUP3 ADD MSTORE PUSH18 0x44617461207479706520746F6F206C6F6E67 PUSH1 0x70 SHL PUSH1 0x44 DUP3 ADD MSTORE PUSH1 0x64 SWAP1 REVERT JUMPDEST PUSH1 0x40 MLOAD PUSH3 0x461BCD PUSH1 0xE5 SHL DUP2 MSTORE PUSH1 0x20 PUSH1 0x4 DUP3 ADD MSTORE PUSH1 0xD PUSH1 0x24 DUP3 ADD MSTORE PUSH13 0x4461746120746F6F206C6F6E67 PUSH1 0x98 SHL PUSH1 0x44 DUP3 ADD MSTORE PUSH1 0x64 SWAP1 REVERT JUMPDEST PUSH1 0x40 MLOAD PUSH3 0x461BCD PUSH1 0xE5 SHL DUP2 MSTORE PUSH1 0x20 PUSH1 0x4 DUP3 ADD MSTORE PUSH1 0xF PUSH1 0x24 DUP3 ADD MSTORE PUSH15 0x14DD1BDC9859D9481A5CC8199D5B1B PUSH1 0x8A SHL PUSH1 0x44 DUP3 ADD MSTORE PUSH1 0x64 SWAP1 REVERT JUMPDEST PUSH1 0x40 MLOAD PUSH3 0x461BCD PUSH1 0xE5 SHL DUP2 MSTORE PUSH1 0x20 PUSH1 0x4 DUP3 ADD MSTORE PUSH1 0x1D PUSH1 0x24 DUP3 ADD MSTORE PUSH32 0x4F6E6C79204D617374657220436F6E74726163742063616E2063616C6C000000 PUSH1 0x44 DUP3 ADD MSTORE PUSH1 0x64 SWAP1 REVERT JUMPDEST PUSH0 DUP1 REVERT JUMPDEST CALLVALUE PUSH2 0x4D0 JUMPI PUSH1 0x20 CALLDATASIZE PUSH1 0x3 NOT ADD SLT PUSH2 0x4D0 JUMPI PUSH1 0x4 CALLDATALOAD PUSH0 MSTORE PUSH0 PUSH1 0x20 MSTORE PUSH1 0x40 PUSH0 KECCAK256 PUSH2 0x4FB DUP2 PUSH2 0x738 JUMP JUMPDEST PUSH2 0x525 PUSH2 0x50A PUSH1 0x1 DUP5 ADD PUSH2 0x738 JUMP JUMPDEST SWAP3 PUSH1 0xFF PUSH1 0x3 PUSH1 0x2 DUP4 ADD SLOAD SWAP3 ADD SLOAD AND SWAP1 PUSH1 0x40 MLOAD SWAP5 DUP6 SWAP5 DUP6 PUSH2 0x68B JUMP JUMPDEST SUB SWAP1 RETURN JUMPDEST CALLVALUE PUSH2 0x4D0 JUMPI PUSH0 CALLDATASIZE PUSH1 0x3 NOT ADD SLT PUSH2 0x4D0 JUMPI PUSH1 0x2 SLOAD PUSH1 0x40 MLOAD PUSH1 0x1 PUSH1 0x1 PUSH1 0xA0 SHL SUB SWAP1 SWAP2 AND DUP2 MSTORE PUSH1 0x20 SWAP1 RETURN JUMPDEST CALLVALUE PUSH2 0x4D0 JUMPI PUSH0 CALLDATASIZE PUSH1 0x3 NOT ADD SLT PUSH2 0x4D0 JUMPI PUSH1 0x20 PUSH2 0x3E8 PUSH1 0x1 SLOAD LT ISZERO PUSH1 0x40 MLOAD SWAP1 DUP2 MSTORE RETURN JUMPDEST CALLVALUE PUSH2 0x4D0 JUMPI PUSH0 CALLDATASIZE PUSH1 0x3 NOT ADD SLT PUSH2 0x4D0 JUMPI PUSH1 0x20 PUSH1 0x40 MLOAD PUSH2 0x3E8 DUP2 MSTORE RETURN JUMPDEST CALLVALUE PUSH2 0x4D0 JUMPI PUSH0 CALLDATASIZE PUSH1 0x3 NOT ADD SLT PUSH2 0x4D0 JUMPI PUSH1 0x20 PUSH1 0x1 SLOAD PUSH1 0x40 MLOAD SWAP1 DUP2 MSTORE RETURN JUMPDEST CALLVALUE PUSH2 0x4D0 JUMPI PUSH1 0x20 CALLDATASIZE PUSH1 0x3 NOT ADD SLT PUSH2 0x4D0 JUMPI PUSH1 0x4 CALLDATALOAD PUSH0 MSTORE PUSH0 PUSH1 0x20 MSTORE PUSH1 0x40 PUSH0 KECCAK256 SWAP1 PUSH2 0x5D4 DUP2 PUSH2 0x6FA JUMP JUMPDEST PUSH2 0x5DD DUP3 PUSH2 0x738 JUMP JUMPDEST DUP2 MSTORE PUSH2 0x5EB PUSH1 0x1 DUP4 ADD PUSH2 0x738 JUMP JUMPDEST SWAP1 PUSH1 0x20 DUP2 ADD SWAP2 DUP3 MSTORE PUSH1 0xFF PUSH1 0x3 PUSH1 0x2 DUP6 ADD SLOAD SWAP5 PUSH1 0x40 DUP5 ADD SWAP6 DUP7 MSTORE ADD SLOAD AND PUSH1 0x60 DUP3 ADD SWAP1 DUP2 MSTORE DUP2 MLOAD MLOAD ISZERO PUSH2 0x631 JUMPI PUSH1 0xFF PUSH2 0x525 SWAP3 MLOAD SWAP4 MLOAD SWAP5 MLOAD SWAP2 MLOAD AND SWAP1 PUSH1 0x40 MLOAD SWAP5 DUP6 SWAP5 DUP6 PUSH2 0x68B JUMP JUMPDEST PUSH1 0x40 MLOAD PUSH3 0x461BCD PUSH1 0xE5 SHL DUP2 MSTORE PUSH1 0x20 PUSH1 0x4 DUP3 ADD MSTORE PUSH1 0xE PUSH1 0x24 DUP3 ADD MSTORE PUSH14 0x11185D18481B9BDD08199BDD5B99 PUSH1 0x92 SHL PUSH1 0x44 DUP3 ADD MSTORE PUSH1 0x64 SWAP1 REVERT JUMPDEST DUP1 MLOAD DUP1 DUP4 MSTORE PUSH1 0x20 SWAP3 SWAP2 DUP2 SWAP1 DUP5 ADD DUP5 DUP5 ADD MCOPY PUSH0 DUP3 DUP3 ADD DUP5 ADD MSTORE PUSH1 0x1F ADD PUSH1 0x1F NOT AND ADD ADD SWAP1 JUMP JUMPDEST SWAP3 SWAP5 SWAP4 PUSH2 0x6B6 PUSH1 0x60 SWAP4 PUSH2 0x6A8 PUSH1 0xFF SWAP5 PUSH1 0x80 DUP9 MSTORE PUSH1 0x80 DUP9 ADD SWAP1 PUSH2 0x667 JUMP JUMPDEST SWAP1 DUP7 DUP3 SUB PUSH1 0x20 DUP9 ADD MSTORE PUSH2 0x667 JUMP JUMPDEST SWAP6 PUSH1 0x40 DUP6 ADD MSTORE AND SWAP2 ADD MSTORE JUMP JUMPDEST SWAP1 PUSH1 0x1 DUP3 DUP2 SHR SWAP3 AND DUP1 ISZERO PUSH2 0x6F0 JUMPI JUMPDEST PUSH1 0x20 DUP4 LT EQ PUSH2 0x6DC JUMPI JUMP JUMPDEST PUSH4 0x4E487B71 PUSH1 0xE0 SHL PUSH0 MSTORE PUSH1 0x22 PUSH1 0x4 MSTORE PUSH1 0x24 PUSH0 REVERT JUMPDEST SWAP2 PUSH1 0x7F AND SWAP2 PUSH2 0x6D1 JUMP JUMPDEST PUSH1 0x80 DUP2 ADD SWAP1 DUP2 LT PUSH8 0xFFFFFFFFFFFFFFFF DUP3 GT OR PUSH2 0x2DD JUMPI PUSH1 0x40 MSTORE JUMP JUMPDEST SWAP1 PUSH1 0x1F DUP1 NOT SWAP2 ADD AND DUP2 ADD SWAP1 DUP2 LT PUSH8 0xFFFFFFFFFFFFFFFF DUP3 GT OR PUSH2 0x2DD JUMPI PUSH1 0x40 MSTORE JUMP JUMPDEST SWAP1 PUSH1 0x40 MLOAD SWAP2 DUP3 PUSH0 DUP3 SLOAD SWAP3 PUSH2 0x74B DUP5 PUSH2 0x6C2 JUMP JUMPDEST DUP1 DUP5 MSTORE SWAP4 PUSH1 0x1 DUP2 AND SWAP1 DUP2 ISZERO PUSH2 0x7B6 JUMPI POP PUSH1 0x1 EQ PUSH2 0x772 JUMPI JUMPDEST POP PUSH2 0x770 SWAP3 POP SUB DUP4 PUSH2 0x716 JUMP JUMPDEST JUMP JUMPDEST SWAP1 POP PUSH0 SWAP3 SWAP2 SWAP3 MSTORE PUSH1 0x20 PUSH0 KECCAK256 SWAP1 PUSH0 SWAP2 JUMPDEST DUP2 DUP4 LT PUSH2 0x79A JUMPI POP POP SWAP1 PUSH1 0x20 PUSH2 0x770 SWAP3 DUP3 ADD ADD PUSH0 PUSH2 0x763 JUMP JUMPDEST PUSH1 0x20 SWAP2 SWAP4 POP DUP1 PUSH1 0x1 SWAP2 SLOAD DUP4 DUP6 DUP10 ADD ADD MSTORE ADD SWAP2 ADD SWAP1 SWAP2 DUP5 SWAP3 PUSH2 0x781 JUMP JUMPDEST SWAP1 POP PUSH1 0x20 SWAP3 POP PUSH2 0x770 SWAP5 SWAP2 POP PUSH1 0xFF NOT AND DUP3 DUP5 ADD MSTORE ISZERO ISZERO PUSH1 0x5 SHL DUP3 ADD ADD PUSH0 PUSH2 0x763 JUMP JUMPDEST DUP2 PUSH1 0x1F DUP3 ADD SLT ISZERO PUSH2 0x4D0 JUMPI DUP1 CALLDATALOAD SWAP1 PUSH8 0xFFFFFFFFFFFFFFFF DUP3 GT PUSH2 0x2DD JUMPI PUSH1 0x40 MLOAD SWAP3 PUSH2 0x80D PUSH1 0x1F DUP5 ADD PUSH1 0x1F NOT AND PUSH1 0x20 ADD DUP6 PUSH2 0x716 JUMP JUMPDEST DUP3 DUP5 MSTORE PUSH1 0x20 DUP4 DUP4 ADD ADD GT PUSH2 0x4D0 JUMPI DUP2 PUSH0 SWAP3 PUSH1 0x20 DUP1 SWAP4 ADD DUP4 DUP7 ADD CALLDATACOPY DUP4 ADD ADD MSTORE SWAP1 JUMP INVALID LOG2 PUSH5 0x6970667358 0x22 SLT KECCAK256 0xB3 DUP12 0xB9 XOR PUSH19 0x5C90EAD853D241FB9CCAA81495BF9870FA1935 0x4F SWAP1 DATALOADN 0x1505 0x28 0xB4 JUMPF 0x6473 PUSH16 0x6C634300081E00330000000000000000 "
		},
		"gasEstimates": {
			"creation": {
				"codeDepositCost": "429600",
				"executionCost": "infinite",
				"totalCost": "infinite"
			},
			"external": {
				"MAX_DATA()": "197",
				"dataCount()": "2278",
				"dataStore(uint256)": "infinite",
				"getData(uint256)": "infinite",
				"isFull()": "2331",
				"masterContract()": "2368",
				"storeData(uint256,string,string,uint256,uint8)": "infinite"
			}
		},
		"methodIdentifiers": {
			"MAX_DATA()": "a0b0607f",
			"dataCount()": "5da40c47",
			"dataStore(uint256)": "da6ea12a",
			"getData(uint256)": "0178fe3f",
			"isFull()": "babd3d9a",
			"masterContract()": "cd446e22",
			"storeData(uint256,string,string,uint256,uint8)": "fd1eb1fe"
		}
	},
	"abi": [
		{
			"inputs": [
				{
					"internalType": "address",
					"name": "_masterContract",
					"type": "address"
				}
			],
			"stateMutability": "nonpayable",
			"type": "constructor"
		},
		{
			"inputs": [],
			"name": "MAX_DATA",
			"outputs": [
				{
					"internalType": "uint256",
					"name": "",
					"type": "uint256"
				}
			],
			"stateMutability": "view",
			"type": "function"
		},
		{
			"inputs": [],
			"name": "dataCount",
			"outputs": [
				{
					"internalType": "uint256",
					"name": "",
					"type": "uint256"
				}
			],
			"stateMutability": "view",
			"type": "function"
		},
		{
			"inputs": [
				{
					"internalType": "uint256",
					"name": "",
					"type": "uint256"
				}
			],
			"name": "dataStore",
			"outputs": [
				{
					"internalType": "string",
					"name": "data",
					"type": "string"
				},
				{
					"internalType": "string",
					"name": "dataType",
					"type": "string"
				},
				{
					"internalType": "uint256",
					"name": "timestamp",
					"type": "uint256"
				},
				{
					"internalType": "uint8",
					"name": "rating",
					"type": "uint8"
				}
			],
			"stateMutability": "view",
			"type": "function"
		},
		{
			"inputs": [
				{
					"internalType": "uint256",
					"name": "id",
					"type": "uint256"
				}
			],
			"name": "getData",
			"outputs": [
				{
					"internalType": "string",
					"name": "",
					"type": "string"
				},
				{
					"internalType": "string",
					"name": "",
					"type": "string"
				},
				{
					"internalType": "uint256",
					"name": "",
					"type": "uint256"
				},
				{
					"internalType": "uint8",
					"name": "",
					"type": "uint8"
				}
			],
			"stateMutability": "view",
			"type": "function"
		},
		{
			"inputs": [],
			"name": "isFull",
			"outputs": [
				{
					"internalType": "bool",
					"name": "",
					"type": "bool"
				}
			],
			"stateMutability": "view",
			"type": "function"
		},
		{
			"inputs": [],
			"name": "masterContract",
			"outputs": [
				{
					"internalType": "address",
					"name": "",
					"type": "address"
				}
			],
			"stateMutability": "view",
			"type": "function"
		},
		{
			"inputs": [
				{
					"internalType": "uint256",
					"name": "id",
					"type": "uint256"
				},
				{
					"internalType": "string",
					"name": "data",
					"type": "string"
				},
				{
					"internalType": "string",
					"name": "dataType",
					"type": "string"
				},
				{
					"internalType": "uint256",
					"name": "timestamp",
					"type": "uint256"
				},
				{
					"internalType": "uint8",
					"name": "rating",
					"type": "uint8"
				}
			],
			"name": "storeData",
			"outputs": [],
			"stateMutability": "nonpayable",
			"type": "function"
		}
	]
}